{
  "contractName": "PredictionMarket",
  "abi": [
    {
      "inputs": [
        {
          "internalType": "address",
          "name": "_oracle",
          "type": "address"
        }
      ],
      "stateMutability": "nonpayable",
      "type": "constructor"
    },
    {
      "inputs": [
        {
          "internalType": "enum PredictionMarket.Side",
          "name": "",
          "type": "uint8"
        }
      ],
      "name": "bets",
      "outputs": [
        {
          "internalType": "uint256",
          "name": "",
          "type": "uint256"
        }
      ],
      "stateMutability": "view",
      "type": "function",
      "constant": true
    },
    {
      "inputs": [
        {
          "internalType": "address",
          "name": "",
          "type": "address"
        },
        {
          "internalType": "enum PredictionMarket.Side",
          "name": "",
          "type": "uint8"
        }
      ],
      "name": "betsPerGambler",
      "outputs": [
        {
          "internalType": "uint256",
          "name": "",
          "type": "uint256"
        }
      ],
      "stateMutability": "view",
      "type": "function",
      "constant": true
    },
    {
      "inputs": [],
      "name": "oracle",
      "outputs": [
        {
          "internalType": "address",
          "name": "",
          "type": "address"
        }
      ],
      "stateMutability": "view",
      "type": "function",
      "constant": true
    },
    {
      "inputs": [
        {
          "internalType": "enum PredictionMarket.Side",
          "name": "_side",
          "type": "uint8"
        }
      ],
      "name": "placeBet",
      "outputs": [],
      "stateMutability": "payable",
      "type": "function",
      "payable": true
    },
    {
      "inputs": [],
      "name": "withdrawGain",
      "outputs": [],
      "stateMutability": "nonpayable",
      "type": "function"
    },
    {
      "inputs": [
        {
          "internalType": "enum PredictionMarket.Side",
          "name": "_winner",
          "type": "uint8"
        },
        {
          "internalType": "enum PredictionMarket.Side",
          "name": "_loser",
          "type": "uint8"
        }
      ],
      "name": "reportResult",
      "outputs": [],
      "stateMutability": "nonpayable",
      "type": "function"
    }
  ],
  "bytecode": "0x608060405234801561001057600080fd5b50604051610ce4380380610ce4833981810160405281019061003291906100dc565b80600460006101000a81548173ffffffffffffffffffffffffffffffffffffffff021916908373ffffffffffffffffffffffffffffffffffffffff16021790555050610109565b600080fd5b600073ffffffffffffffffffffffffffffffffffffffff82169050919050565b60006100a98261007e565b9050919050565b6100b98161009e565b81146100c457600080fd5b50565b6000815190506100d6816100b0565b92915050565b6000602082840312156100f2576100f1610079565b5b6000610100848285016100c7565b91505092915050565b610bcc806101186000396000f3fe6080604052600436106100555760003560e01c80632b539c861461005a57806343046844146100715780634ec942b71461008d5780637dc0d1d0146100b65780637e0ecc00146100e15780639d5a37391461011e575b600080fd5b34801561006657600080fd5b5061006f61015b565b005b61008b60048036038101906100869190610738565b610473565b005b34801561009957600080fd5b506100b460048036038101906100af9190610765565b6105a5565b005b3480156100c257600080fd5b506100cb6106ab565b6040516100d891906107e6565b60405180910390f35b3480156100ed57600080fd5b5061010860048036038101906101039190610738565b6106d1565b604051610115919061081a565b60405180910390f35b34801561012a57600080fd5b5061014560048036038101906101409190610861565b6106e9565b604051610152919061081a565b60405180910390f35b6000600360003373ffffffffffffffffffffffffffffffffffffffff1673ffffffffffffffffffffffffffffffffffffffff16815260200190815260200160002060008060000160009054906101000a900460ff1660018111156101c2576101c16108a1565b5b60018111156101d4576101d36108a1565b5b815260200190815260200160002054905060008111610228576040517f08c379a000000000000000000000000000000000000000000000000000000000815260040161021f9061092d565b60405180910390fd5b60011515600160009054906101000a900460ff1615151461027e576040517f08c379a000000000000000000000000000000000000000000000000000000000815260040161027590610999565b60405180910390fd5b6000600260008060000160009054906101000a900460ff1660018111156102a8576102a76108a1565b5b60018111156102ba576102b96108a1565b5b81526020019081526020016000205482600260008060000160019054906101000a900460ff1660018111156102f2576102f16108a1565b5b6001811115610304576103036108a1565b5b81526020019081526020016000205461031d91906109e8565b6103279190610a59565b826103329190610a8a565b90506000600360003373ffffffffffffffffffffffffffffffffffffffff1673ffffffffffffffffffffffffffffffffffffffff168152602001908152602001600020600080600181111561038a576103896108a1565b5b600181111561039c5761039b6108a1565b5b8152602001908152602001600020819055506000600360003373ffffffffffffffffffffffffffffffffffffffff1673ffffffffffffffffffffffffffffffffffffffff1681526020019081526020016000206000600180811115610404576104036108a1565b5b6001811115610416576104156108a1565b5b8152602001908152602001600020819055503373ffffffffffffffffffffffffffffffffffffffff166108fc829081150290604051600060405180830381858888f1935050505015801561046e573d6000803e3d6000fd5b505050565b60001515600160009054906101000a900460ff161515146104c9576040517f08c379a00000000000000000000000000000000000000000000000000000000081526004016104c090610b0a565b60405180910390fd5b34600260008360018111156104e1576104e06108a1565b5b60018111156104f3576104f26108a1565b5b815260200190815260200160002060008282546105109190610a8a565b9250508190555034600360003373ffffffffffffffffffffffffffffffffffffffff1673ffffffffffffffffffffffffffffffffffffffff168152602001908152602001600020600083600181111561056c5761056b6108a1565b5b600181111561057e5761057d6108a1565b5b8152602001908152602001600020600082825461059b9190610a8a565b9250508190555050565b3373ffffffffffffffffffffffffffffffffffffffff16600460009054906101000a900473ffffffffffffffffffffffffffffffffffffffff1673ffffffffffffffffffffffffffffffffffffffff1614610635576040517f08c379a000000000000000000000000000000000000000000000000000000000815260040161062c90610b76565b60405180910390fd5b816000800160006101000a81548160ff0219169083600181111561065c5761065b6108a1565b5b0217905550806000800160016101000a81548160ff02191690836001811115610688576106876108a1565b5b021790555060018060006101000a81548160ff0219169083151502179055505050565b600460009054906101000a900473ffffffffffffffffffffffffffffffffffffffff1681565b60026020528060005260406000206000915090505481565b6003602052816000526040600020602052806000526040600020600091509150505481565b600080fd5b6002811061072057600080fd5b50565b60008135905061073281610713565b92915050565b60006020828403121561074e5761074d61070e565b5b600061075c84828501610723565b91505092915050565b6000806040838503121561077c5761077b61070e565b5b600061078a85828601610723565b925050602061079b85828601610723565b9150509250929050565b600073ffffffffffffffffffffffffffffffffffffffff82169050919050565b60006107d0826107a5565b9050919050565b6107e0816107c5565b82525050565b60006020820190506107fb60008301846107d7565b92915050565b6000819050919050565b61081481610801565b82525050565b600060208201905061082f600083018461080b565b92915050565b61083e816107c5565b811461084957600080fd5b50565b60008135905061085b81610835565b92915050565b600080604083850312156108785761087761070e565b5b60006108868582860161084c565b925050602061089785828601610723565b9150509250929050565b7f4e487b7100000000000000000000000000000000000000000000000000000000600052602160045260246000fd5b600082825260208201905092915050565b7f796f7520646f206e6f74206861766520616e792077696e6e696e672062657400600082015250565b6000610917601f836108d0565b9150610922826108e1565b602082019050919050565b600060208201905081810360008301526109468161090a565b9050919050565b7f656c656374696f6e206e6f742066696e69736865642079657400000000000000600082015250565b60006109836019836108d0565b915061098e8261094d565b602082019050919050565b600060208201905081810360008301526109b281610976565b9050919050565b7f4e487b7100000000000000000000000000000000000000000000000000000000600052601160045260246000fd5b60006109f382610801565b91506109fe83610801565b9250828202610a0c81610801565b91508282048414831517610a2357610a226109b9565b5b5092915050565b7f4e487b7100000000000000000000000000000000000000000000000000000000600052601260045260246000fd5b6000610a6482610801565b9150610a6f83610801565b925082610a7f57610a7e610a2a565b5b828204905092915050565b6000610a9582610801565b9150610aa083610801565b9250828201905080821115610ab857610ab76109b9565b5b92915050565b7f656c656374696f6e2069732066696e6973686564000000000000000000000000600082015250565b6000610af46014836108d0565b9150610aff82610abe565b602082019050919050565b60006020820190508181036000830152610b2381610ae7565b9050919050565b7f6f6e6c79206f7261636c65000000000000000000000000000000000000000000600082015250565b6000610b60600b836108d0565b9150610b6b82610b2a565b602082019050919050565b60006020820190508181036000830152610b8f81610b53565b905091905056fea2646970667358221220181435be4d9134a6556abf9e1f8b3445828bbe7528d704d234f83f97a41082b164736f6c63430008110033",
  "immutableReferences": {},
  "source": "pragma solidity ^0.8.17;\r\n\r\ncontract PredictionMarket {\r\n  enum Side { Biden, Trump }\r\n  struct Result {\r\n    Side winner;\r\n    Side loser;\r\n  }\r\n  Result result;\r\n  bool electionFinished;\r\n\r\n  mapping(Side => uint) public bets;\r\n  mapping(address => mapping(Side => uint)) public betsPerGambler;\r\n  address public oracle;\r\n\r\n  constructor(address _oracle) {\r\n    oracle = _oracle; \r\n  }\r\n\r\n  function placeBet(Side _side) external payable {\r\n    require(electionFinished == false, 'election is finished');\r\n    bets[_side] += msg.value;\r\n    betsPerGambler[msg.sender][_side] += msg.value;\r\n  }\r\n\r\n  function withdrawGain() external {\r\n    uint gamblerBet = betsPerGambler[msg.sender][result.winner];\r\n    require(gamblerBet > 0, 'you do not have any winning bet');  \r\n    require(electionFinished == true, 'election not finished yet');\r\n    uint gain = gamblerBet + bets[result.loser] * gamblerBet / bets[result.winner];\r\n    betsPerGambler[msg.sender][Side.Biden] = 0;\r\n    betsPerGambler[msg.sender][Side.Trump] = 0;\r\n    payable(msg.sender).transfer(gain);\r\n  }\r\n\r\n  function reportResult(Side _winner, Side _loser) external {\r\n    require(oracle == msg.sender, 'only oracle');\r\n    result.winner = _winner;\r\n    result.loser = _loser;\r\n    electionFinished = true;\r\n  }\r\n}\r\n",
  "sourcePath": "C:\\Users\\graez\\CZ4153-lilibet\\contracts\\PredictionMarket.sol",
  "compiler": {
    "name": "solc",
    "version": "0.8.17+commit.8df45f5f.Emscripten.clang"
  },
  "schemaVersion": "3.4.10",
  "updatedAt": "2022-10-08T13:09:03.319Z",
  "networkType": "ethereum",
  "devdoc": {
    "kind": "dev",
    "methods": {},
    "version": 1
  },
  "userdoc": {
    "kind": "user",
    "methods": {},
    "version": 1
  }
}