{
  "contractName": "PredictionMarket",
  "abi": [
    {
      "inputs": [
        {
          "internalType": "address",
          "name": "_oracle",
          "type": "address"
        }
      ],
      "stateMutability": "payable",
      "type": "constructor"
    },
    {
      "anonymous": false,
      "inputs": [
        {
          "indexed": true,
          "internalType": "string",
          "name": "_id",
          "type": "string"
        },
        {
          "indexed": false,
          "internalType": "string",
          "name": "description",
          "type": "string"
        },
        {
          "indexed": false,
          "internalType": "string",
          "name": "query",
          "type": "string"
        }
      ],
      "name": "CreatedBet",
      "type": "event"
    },
    {
      "anonymous": false,
      "inputs": [
        {
          "indexed": true,
          "internalType": "address",
          "name": "sender",
          "type": "address"
        },
        {
          "indexed": false,
          "internalType": "uint256",
          "name": "funds",
          "type": "uint256"
        }
      ],
      "name": "LackingFunds",
      "type": "event"
    },
    {
      "anonymous": false,
      "inputs": [
        {
          "indexed": true,
          "internalType": "address",
          "name": "loser",
          "type": "address"
        }
      ],
      "name": "LostBet",
      "type": "event"
    },
    {
      "anonymous": false,
      "inputs": [
        {
          "indexed": true,
          "internalType": "address",
          "name": "user",
          "type": "address"
        },
        {
          "indexed": true,
          "internalType": "string",
          "name": "_id",
          "type": "string"
        },
        {
          "indexed": false,
          "internalType": "string",
          "name": "id",
          "type": "string"
        },
        {
          "indexed": false,
          "internalType": "string",
          "name": "side",
          "type": "string"
        }
      ],
      "name": "PlacedBets",
      "type": "event"
    },
    {
      "anonymous": false,
      "inputs": [
        {
          "indexed": true,
          "internalType": "string",
          "name": "_id",
          "type": "string"
        },
        {
          "indexed": false,
          "internalType": "string",
          "name": "result",
          "type": "string"
        }
      ],
      "name": "ReportedResult",
      "type": "event"
    },
    {
      "anonymous": false,
      "inputs": [
        {
          "indexed": true,
          "internalType": "address",
          "name": "refunded",
          "type": "address"
        }
      ],
      "name": "UnwonBet",
      "type": "event"
    },
    {
      "anonymous": false,
      "inputs": [
        {
          "indexed": true,
          "internalType": "address",
          "name": "winner",
          "type": "address"
        },
        {
          "indexed": false,
          "internalType": "uint256",
          "name": "won",
          "type": "uint256"
        }
      ],
      "name": "WonBet",
      "type": "event"
    },
    {
      "inputs": [
        {
          "internalType": "uint256",
          "name": "",
          "type": "uint256"
        }
      ],
      "name": "allTopics",
      "outputs": [
        {
          "internalType": "string",
          "name": "",
          "type": "string"
        }
      ],
      "stateMutability": "view",
      "type": "function"
    },
    {
      "inputs": [
        {
          "internalType": "string",
          "name": "",
          "type": "string"
        },
        {
          "internalType": "address",
          "name": "",
          "type": "address"
        }
      ],
      "name": "claimedBets",
      "outputs": [
        {
          "internalType": "bool",
          "name": "",
          "type": "bool"
        }
      ],
      "stateMutability": "view",
      "type": "function"
    },
    {
      "inputs": [
        {
          "internalType": "string",
          "name": "",
          "type": "string"
        }
      ],
      "name": "createdTopics",
      "outputs": [
        {
          "internalType": "bool",
          "name": "",
          "type": "bool"
        }
      ],
      "stateMutability": "view",
      "type": "function"
    },
    {
      "inputs": [
        {
          "internalType": "string",
          "name": "",
          "type": "string"
        }
      ],
      "name": "finishedTopics",
      "outputs": [
        {
          "internalType": "bool",
          "name": "",
          "type": "bool"
        }
      ],
      "stateMutability": "view",
      "type": "function"
    },
    {
      "inputs": [],
      "name": "oracle",
      "outputs": [
        {
          "internalType": "address",
          "name": "",
          "type": "address"
        }
      ],
      "stateMutability": "view",
      "type": "function"
    },
    {
      "inputs": [],
      "name": "oraclePrice",
      "outputs": [
        {
          "internalType": "uint256",
          "name": "",
          "type": "uint256"
        }
      ],
      "stateMutability": "view",
      "type": "function"
    },
    {
      "inputs": [
        {
          "internalType": "string",
          "name": "",
          "type": "string"
        },
        {
          "internalType": "string",
          "name": "",
          "type": "string"
        }
      ],
      "name": "resultPools",
      "outputs": [
        {
          "internalType": "uint256",
          "name": "",
          "type": "uint256"
        }
      ],
      "stateMutability": "view",
      "type": "function"
    },
    {
      "inputs": [
        {
          "internalType": "string",
          "name": "",
          "type": "string"
        }
      ],
      "name": "topicArbitrator",
      "outputs": [
        {
          "internalType": "address",
          "name": "",
          "type": "address"
        }
      ],
      "stateMutability": "view",
      "type": "function"
    },
    {
      "inputs": [
        {
          "internalType": "string",
          "name": "",
          "type": "string"
        }
      ],
      "name": "topicCommissions",
      "outputs": [
        {
          "internalType": "uint256",
          "name": "",
          "type": "uint256"
        }
      ],
      "stateMutability": "view",
      "type": "function"
    },
    {
      "inputs": [
        {
          "internalType": "string",
          "name": "",
          "type": "string"
        }
      ],
      "name": "topicDeadlines",
      "outputs": [
        {
          "internalType": "uint64",
          "name": "",
          "type": "uint64"
        }
      ],
      "stateMutability": "view",
      "type": "function"
    },
    {
      "inputs": [
        {
          "internalType": "string",
          "name": "",
          "type": "string"
        }
      ],
      "name": "topicMinimum",
      "outputs": [
        {
          "internalType": "uint256",
          "name": "",
          "type": "uint256"
        }
      ],
      "stateMutability": "view",
      "type": "function"
    },
    {
      "inputs": [
        {
          "internalType": "string",
          "name": "",
          "type": "string"
        }
      ],
      "name": "topicOwners",
      "outputs": [
        {
          "internalType": "address payable",
          "name": "",
          "type": "address"
        }
      ],
      "stateMutability": "view",
      "type": "function"
    },
    {
      "inputs": [
        {
          "internalType": "string",
          "name": "",
          "type": "string"
        }
      ],
      "name": "topicPools",
      "outputs": [
        {
          "internalType": "uint256",
          "name": "",
          "type": "uint256"
        }
      ],
      "stateMutability": "view",
      "type": "function"
    },
    {
      "inputs": [
        {
          "internalType": "string",
          "name": "",
          "type": "string"
        }
      ],
      "name": "topicResults",
      "outputs": [
        {
          "internalType": "string",
          "name": "",
          "type": "string"
        }
      ],
      "stateMutability": "view",
      "type": "function"
    },
    {
      "inputs": [
        {
          "internalType": "string",
          "name": "",
          "type": "string"
        }
      ],
      "name": "topicSchedules",
      "outputs": [
        {
          "internalType": "uint64",
          "name": "",
          "type": "uint64"
        }
      ],
      "stateMutability": "view",
      "type": "function"
    },
    {
      "inputs": [
        {
          "internalType": "string",
          "name": "",
          "type": "string"
        },
        {
          "internalType": "address",
          "name": "",
          "type": "address"
        },
        {
          "internalType": "string",
          "name": "",
          "type": "string"
        }
      ],
      "name": "userBets",
      "outputs": [
        {
          "internalType": "uint256",
          "name": "",
          "type": "uint256"
        }
      ],
      "stateMutability": "view",
      "type": "function"
    },
    {
      "inputs": [
        {
          "internalType": "string",
          "name": "",
          "type": "string"
        },
        {
          "internalType": "address",
          "name": "",
          "type": "address"
        }
      ],
      "name": "userPools",
      "outputs": [
        {
          "internalType": "uint256",
          "name": "",
          "type": "uint256"
        }
      ],
      "stateMutability": "view",
      "type": "function"
    },
    {
      "inputs": [],
      "name": "getOracle",
      "outputs": [
        {
          "internalType": "address",
          "name": "",
          "type": "address"
        }
      ],
      "stateMutability": "view",
      "type": "function"
    },
    {
      "inputs": [
        {
          "internalType": "string",
          "name": "topicID",
          "type": "string"
        },
        {
          "internalType": "string",
          "name": "topic",
          "type": "string"
        },
        {
          "internalType": "string[]",
          "name": "sides",
          "type": "string[]"
        },
        {
          "internalType": "uint64",
          "name": "deadline",
          "type": "uint64"
        },
        {
          "internalType": "uint256",
          "name": "minimum",
          "type": "uint256"
        },
        {
          "internalType": "uint256",
          "name": "commission",
          "type": "uint256"
        },
        {
          "internalType": "string",
          "name": "description",
          "type": "string"
        },
        {
          "internalType": "address",
          "name": "_arbitrator",
          "type": "address"
        }
      ],
      "name": "createTopic",
      "outputs": [],
      "stateMutability": "nonpayable",
      "type": "function"
    },
    {
      "inputs": [
        {
          "internalType": "string",
          "name": "topicID",
          "type": "string"
        },
        {
          "internalType": "string",
          "name": "side",
          "type": "string"
        }
      ],
      "name": "placeBet",
      "outputs": [],
      "stateMutability": "payable",
      "type": "function"
    },
    {
      "inputs": [
        {
          "internalType": "string",
          "name": "topicID",
          "type": "string"
        },
        {
          "internalType": "string",
          "name": "result",
          "type": "string"
        }
      ],
      "name": "reportResult",
      "outputs": [],
      "stateMutability": "nonpayable",
      "type": "function"
    },
    {
      "inputs": [
        {
          "internalType": "string",
          "name": "topicID",
          "type": "string"
        }
      ],
      "name": "claimBet",
      "outputs": [],
      "stateMutability": "nonpayable",
      "type": "function"
    },
    {
      "inputs": [],
      "name": "getTopics",
      "outputs": [
        {
          "components": [
            {
              "internalType": "string",
              "name": "id",
              "type": "string"
            },
            {
              "internalType": "string",
              "name": "name",
              "type": "string"
            },
            {
              "internalType": "string[]",
              "name": "outcomes",
              "type": "string[]"
            },
            {
              "internalType": "uint64",
              "name": "endDate",
              "type": "uint64"
            },
            {
              "internalType": "uint256",
              "name": "minBet",
              "type": "uint256"
            },
            {
              "internalType": "uint256",
              "name": "comm",
              "type": "uint256"
            },
            {
              "internalType": "string",
              "name": "desc",
              "type": "string"
            },
            {
              "internalType": "address",
              "name": "judge",
              "type": "address"
            },
            {
              "internalType": "bool",
              "name": "finished",
              "type": "bool"
            },
            {
              "internalType": "string",
              "name": "result",
              "type": "string"
            }
          ],
          "internalType": "struct PredictionMarket.topics[]",
          "name": "",
          "type": "tuple[]"
        }
      ],
      "stateMutability": "view",
      "type": "function"
    },
    {
      "inputs": [
        {
          "internalType": "string",
          "name": "id",
          "type": "string"
        }
      ],
      "name": "getTopic",
      "outputs": [
        {
          "components": [
            {
              "internalType": "string",
              "name": "id",
              "type": "string"
            },
            {
              "internalType": "string",
              "name": "name",
              "type": "string"
            },
            {
              "internalType": "string[]",
              "name": "outcomes",
              "type": "string[]"
            },
            {
              "internalType": "uint64",
              "name": "endDate",
              "type": "uint64"
            },
            {
              "internalType": "uint256",
              "name": "minBet",
              "type": "uint256"
            },
            {
              "internalType": "uint256",
              "name": "comm",
              "type": "uint256"
            },
            {
              "internalType": "string",
              "name": "desc",
              "type": "string"
            },
            {
              "internalType": "address",
              "name": "judge",
              "type": "address"
            },
            {
              "internalType": "bool",
              "name": "finished",
              "type": "bool"
            },
            {
              "internalType": "string",
              "name": "result",
              "type": "string"
            }
          ],
          "internalType": "struct PredictionMarket.topics",
          "name": "",
          "type": "tuple"
        }
      ],
      "stateMutability": "view",
      "type": "function"
    },
    {
      "inputs": [
        {
          "internalType": "address",
          "name": "_user",
          "type": "address"
        }
      ],
      "name": "getUserBets",
      "outputs": [
        {
          "components": [
            {
              "internalType": "string",
              "name": "topicid",
              "type": "string"
            },
            {
              "internalType": "address",
              "name": "user",
              "type": "address"
            },
            {
              "internalType": "string",
              "name": "side",
              "type": "string"
            },
            {
              "internalType": "uint256",
              "name": "amt",
              "type": "uint256"
            }
          ],
          "internalType": "struct PredictionMarket.oneBet[]",
          "name": "",
          "type": "tuple[]"
        }
      ],
      "stateMutability": "view",
      "type": "function"
    },
    {
      "inputs": [
        {
          "internalType": "string",
          "name": "topicID",
          "type": "string"
        }
      ],
      "name": "getBetsByTopic",
      "outputs": [
        {
          "components": [
            {
              "internalType": "string",
              "name": "topicid",
              "type": "string"
            },
            {
              "internalType": "address",
              "name": "user",
              "type": "address"
            },
            {
              "internalType": "string",
              "name": "side",
              "type": "string"
            },
            {
              "internalType": "uint256",
              "name": "amt",
              "type": "uint256"
            }
          ],
          "internalType": "struct PredictionMarket.oneBet[]",
          "name": "",
          "type": "tuple[]"
        }
      ],
      "stateMutability": "view",
      "type": "function"
    },
    {
      "inputs": [],
      "name": "getTopicPool",
      "outputs": [
        {
          "components": [
            {
              "internalType": "string",
              "name": "id",
              "type": "string"
            },
            {
              "components": [
                {
                  "internalType": "string",
                  "name": "side",
                  "type": "string"
                },
                {
                  "internalType": "uint256",
                  "name": "amount",
                  "type": "uint256"
                }
              ],
              "internalType": "struct PredictionMarket.indivPool[]",
              "name": "pools",
              "type": "tuple[]"
            }
          ],
          "internalType": "struct PredictionMarket.pool[]",
          "name": "",
          "type": "tuple[]"
        }
      ],
      "stateMutability": "view",
      "type": "function"
    }
  ],
  "bytecode": "0x608060405260405162004fc038038062004fc083398181016040528101906200002991906200011b565b336000806101000a81548173ffffffffffffffffffffffffffffffffffffffff021916908373ffffffffffffffffffffffffffffffffffffffff16021790555080600160006101000a81548173ffffffffffffffffffffffffffffffffffffffff021916908373ffffffffffffffffffffffffffffffffffffffff160217905550506200014d565b600080fd5b600073ffffffffffffffffffffffffffffffffffffffff82169050919050565b6000620000e382620000b6565b9050919050565b620000f581620000d6565b81146200010157600080fd5b50565b6000815190506200011581620000ea565b92915050565b600060208284031215620001345762000133620000b1565b5b6000620001448482850162000104565b91505092915050565b614e63806200015d6000396000f3fe60806040526004361061019b5760003560e01c806385bf206a116100ec578063d6e46d831161008a578063e498bae111610064578063e498bae114610676578063f13dfc2b146106b3578063fd17ec1c146106f0578063fee011771461072d5761019b565b8063d6e46d83146105d1578063dd5d16a4146105fc578063deb233f0146106395761019b565b8063ac13fe33116100c6578063ac13fe33146104dd578063b57e26f01461051a578063c0a980a514610557578063cfc4659f146105945761019b565b806385bf206a1461044e578063992515b0146104775780639a6e238f146104b45761019b565b8063607f2412116101595780637d385593116101335780637d3855931461037e5780637dc0d1d0146103bb578063833b1fce146103e657806384a82269146104115761019b565b8063607f2412146102d9578063668aa82414610316578063689f552b146103415761019b565b8062bffdac146101a057806301347c14146101dd5780632d56657d146102065780632de190e914610243578063474502d8146102805780634844f367146102bd575b600080fd5b3480156101ac57600080fd5b506101c760048036038101906101c291906134b5565b610758565b6040516101d49190613703565b60405180910390f35b3480156101e957600080fd5b5061020460048036038101906101ff91906138a3565b610959565b005b34801561021257600080fd5b5061022d600480360381019061022891906139c9565b610eea565b60405161023a9190613703565b60405180910390f35b34801561024f57600080fd5b5061026a600480360381019061026591906134b5565b61110c565b6040516102779190613a11565b60405180910390f35b34801561028c57600080fd5b506102a760048036038101906102a291906134b5565b611142565b6040516102b49190613c02565b60405180910390f35b6102d760048036038101906102d29190613c24565b611553565b005b3480156102e557600080fd5b5061030060048036038101906102fb9190613c9c565b611bcf565b60405161030d9190613d13565b60405180910390f35b34801561032257600080fd5b5061032b611c7b565b6040516103389190613d44565b60405180910390f35b34801561034d57600080fd5b50610368600480360381019061036391906134b5565b611c81565b6040516103759190613d44565b60405180910390f35b34801561038a57600080fd5b506103a560048036038101906103a09190613d5f565b611caf565b6040516103b29190613d44565b60405180910390f35b3480156103c757600080fd5b506103d0611d0d565b6040516103dd9190613df9565b60405180910390f35b3480156103f257600080fd5b506103fb611d33565b6040516104089190613df9565b60405180910390f35b34801561041d57600080fd5b50610438600480360381019061043391906134b5565b611d5d565b6040516104459190613e35565b60405180910390f35b34801561045a57600080fd5b50610475600480360381019061047091906134b5565b611da6565b005b34801561048357600080fd5b5061049e600480360381019061049991906134b5565b6124a6565b6040516104ab9190613df9565b60405180910390f35b3480156104c057600080fd5b506104db60048036038101906104d69190613c24565b6124ef565b005b3480156104e957600080fd5b5061050460048036038101906104ff91906134b5565b6126ed565b6040516105119190613e5f565b60405180910390f35b34801561052657600080fd5b50610541600480360381019061053c9190613e7a565b61272a565b60405161054e9190613d44565b60405180910390f35b34801561056357600080fd5b5061057e600480360381019061057991906134b5565b612765565b60405161058b9190613d13565b60405180910390f35b3480156105a057600080fd5b506105bb60048036038101906105b691906134b5565b61281b565b6040516105c89190613a11565b60405180910390f35b3480156105dd57600080fd5b506105e6612851565b6040516105f391906140db565b60405180910390f35b34801561060857600080fd5b50610623600480360381019061061e9190613e7a565b612bdc565b6040516106309190613a11565b60405180910390f35b34801561064557600080fd5b50610660600480360381019061065b91906134b5565b612c21565b60405161066d9190613d44565b60405180910390f35b34801561068257600080fd5b5061069d60048036038101906106989190613c24565b612c4f565b6040516106aa9190613d44565b60405180910390f35b3480156106bf57600080fd5b506106da60048036038101906106d591906134b5565b612ca0565b6040516106e79190613d44565b60405180910390f35b3480156106fc57600080fd5b50610717600480360381019061071291906134b5565b612cce565b6040516107249190613e5f565b60405180910390f35b34801561073957600080fd5b50610742612d0b565b60405161074f91906142b5565b60405180910390f35b606060118260405161076a9190614313565b9081526020016040518091039020805480602002602001604051908101604052809291908181526020016000905b8282101561094e57838290600052602060002090600402016040518060800160405290816000820180546107cb90614359565b80601f01602080910402602001604051908101604052809291908181526020018280546107f790614359565b80156108445780601f1061081957610100808354040283529160200191610844565b820191906000526020600020905b81548152906001019060200180831161082757829003601f168201915b505050505081526020016001820160009054906101000a900473ffffffffffffffffffffffffffffffffffffffff1673ffffffffffffffffffffffffffffffffffffffff1673ffffffffffffffffffffffffffffffffffffffff1681526020016002820180546108b390614359565b80601f01602080910402602001604051908101604052809291908181526020018280546108df90614359565b801561092c5780601f106109015761010080835404028352916020019161092c565b820191906000526020600020905b81548152906001019060200180831161090f57829003601f168201915b5050505050815260200160038201548152505081526020019060010190610798565b505050509050919050565b6000885111801561096b575060018651115b80156109805750428567ffffffffffffffff16115b801561098d575060148311155b80156109a65750600160646109a291906143b9565b8410155b80156109db57506003886040516109bd9190614313565b908152602001604051809103902060009054906101000a900460ff16155b610a1a576040517f08c379a0000000000000000000000000000000000000000000000000000000008152600401610a119061445f565b60405180910390fd5b600288908060018154018082558091505060019003906000526020600020016000909190919091509081610a4e919061462b565b506001600389604051610a619190614313565b908152602001604051809103902060006101000a81548160ff02191690831515021790555033600689604051610a979190614313565b908152602001604051809103902060006101000a81548173ffffffffffffffffffffffffffffffffffffffff021916908373ffffffffffffffffffffffffffffffffffffffff16021790555084600489604051610af49190614313565b908152602001604051809103902060006101000a81548167ffffffffffffffff021916908367ffffffffffffffff16021790555062278d0085610b3791906146fd565b600589604051610b479190614313565b908152602001604051809103902060006101000a81548167ffffffffffffffff021916908367ffffffffffffffff16021790555083600989604051610b8c9190614313565b908152602001604051809103902081905550826064610bab9190614768565b600889604051610bbb9190614313565b90815260200160405180910390208190555080600789604051610bde9190614313565b908152602001604051809103902060006101000a81548173ffffffffffffffffffffffffffffffffffffffff021916908373ffffffffffffffffffffffffffffffffffffffff16021790555085600f89604051610c3b9190614313565b90815260200160405180910390209080519060200190610c5c9291906131d8565b506040518061014001604052808981526020018881526020018781526020018667ffffffffffffffff1681526020018581526020018481526020018381526020018273ffffffffffffffffffffffffffffffffffffffff16815260200160001515815260200160405180602001604052806000815250815250600e89604051610ce59190614313565b90815260200160405180910390206000820151816000019081610d08919061462b565b506020820151816001019081610d1e919061462b565b506040820151816002019080519060200190610d3b9291906131d8565b5060608201518160030160006101000a81548167ffffffffffffffff021916908367ffffffffffffffff1602179055506080820151816004015560a0820151816005015560c0820151816006019081610d94919061462b565b5060e08201518160070160006101000a81548173ffffffffffffffffffffffffffffffffffffffff021916908373ffffffffffffffffffffffffffffffffffffffff1602179055506101008201518160070160146101000a81548160ff021916908315150217905550610120820151816008019081610e13919061462b565b5090505060005b8651811015610e90576000600b8a604051610e359190614313565b9081526020016040518091039020888381518110610e5657610e55614799565b5b6020026020010151604051610e6b9190614313565b9081526020016040518091039020819055508080610e88906147c8565b915050610e1a565b5087604051610e9f9190614313565b60405180910390207fb1bcc673ab0845d61da71f0162df55efb4045dc9ced8906cfe5aa3a651c3be798389604051610ed8929190614810565b60405180910390a25050505050505050565b6060601060008373ffffffffffffffffffffffffffffffffffffffff1673ffffffffffffffffffffffffffffffffffffffff168152602001908152602001600020805480602002602001604051908101604052809291908181526020016000905b828210156111015783829060005260206000209060040201604051806080016040529081600082018054610f7e90614359565b80601f0160208091040260200160405190810160405280929190818152602001828054610faa90614359565b8015610ff75780601f10610fcc57610100808354040283529160200191610ff7565b820191906000526020600020905b815481529060010190602001808311610fda57829003601f168201915b505050505081526020016001820160009054906101000a900473ffffffffffffffffffffffffffffffffffffffff1673ffffffffffffffffffffffffffffffffffffffff1673ffffffffffffffffffffffffffffffffffffffff16815260200160028201805461106690614359565b80601f016020809104026020016040519081016040528092919081815260200182805461109290614359565b80156110df5780601f106110b4576101008083540402835291602001916110df565b820191906000526020600020905b8154815290600101906020018083116110c257829003601f168201915b5050505050815260200160038201548152505081526020019060010190610f4b565b505050509050919050565b6003818051602081018201805184825260208301602085012081835280955050505050506000915054906101000a900460ff1681565b61114a613231565b600e8260405161115a9190614313565b90815260200160405180910390206040518061014001604052908160008201805461118490614359565b80601f01602080910402602001604051908101604052809291908181526020018280546111b090614359565b80156111fd5780601f106111d2576101008083540402835291602001916111fd565b820191906000526020600020905b8154815290600101906020018083116111e057829003601f168201915b5050505050815260200160018201805461121690614359565b80601f016020809104026020016040519081016040528092919081815260200182805461124290614359565b801561128f5780601f106112645761010080835404028352916020019161128f565b820191906000526020600020905b81548152906001019060200180831161127257829003601f168201915b5050505050815260200160028201805480602002602001604051908101604052809291908181526020016000905b828210156113695783829060005260206000200180546112dc90614359565b80601f016020809104026020016040519081016040528092919081815260200182805461130890614359565b80156113555780601f1061132a57610100808354040283529160200191611355565b820191906000526020600020905b81548152906001019060200180831161133857829003601f168201915b5050505050815260200190600101906112bd565b5050505081526020016003820160009054906101000a900467ffffffffffffffff1667ffffffffffffffff1667ffffffffffffffff16815260200160048201548152602001600582015481526020016006820180546113c790614359565b80601f01602080910402602001604051908101604052809291908181526020018280546113f390614359565b80156114405780601f1061141557610100808354040283529160200191611440565b820191906000526020600020905b81548152906001019060200180831161142357829003601f168201915b505050505081526020016007820160009054906101000a900473ffffffffffffffffffffffffffffffffffffffff1673ffffffffffffffffffffffffffffffffffffffff1673ffffffffffffffffffffffffffffffffffffffff1681526020016007820160149054906101000a900460ff161515151581526020016008820180546114ca90614359565b80601f01602080910402602001604051908101604052809291908181526020018280546114f690614359565b80156115435780601f1061151857610100808354040283529160200191611543565b820191906000526020600020905b81548152906001019060200180831161152657829003601f168201915b5050505050815250509050919050565b6003826040516115639190614313565b908152602001604051809103902060009054906101000a900460ff1680156115b457506013826040516115969190614313565b908152602001604051809103902060009054906101000a900460ff16155b80156115fc5750426004836040516115cc9190614313565b908152602001604051809103902060009054906101000a900467ffffffffffffffff1667ffffffffffffffff1610155b61163b576040517f08c379a0000000000000000000000000000000000000000000000000000000008152600401611632906148b9565b60405180910390fd5b60003490506000825111611684576040517f08c379a000000000000000000000000000000000000000000000000000000000815260040161167b9061494b565b60405180910390fd5b6009836040516116949190614313565b9081526020016040518091039020543410156116e5576040517f08c379a00000000000000000000000000000000000000000000000000000000081526004016116dc906149dd565b60405180910390fd5b6064816116f291906149fd565b905080600b846040516117059190614313565b9081526020016040518091039020836040516117219190614313565b9081526020016040518091039020600082825461173e91906143b9565b9250508190555080600c846040516117569190614313565b908152602001604051809103902060003373ffffffffffffffffffffffffffffffffffffffff1673ffffffffffffffffffffffffffffffffffffffff16815260200190815260200160002060008282546117b091906143b9565b9250508190555080600a846040516117c89190614313565b908152602001604051809103902060008282546117e591906143b9565b92505081905550806012846040516117fd9190614313565b908152602001604051809103902060003373ffffffffffffffffffffffffffffffffffffffff1673ffffffffffffffffffffffffffffffffffffffff168152602001908152602001600020836040516118569190614313565b9081526020016040518091039020600082825461187391906143b9565b92505081905550601060003373ffffffffffffffffffffffffffffffffffffffff1673ffffffffffffffffffffffffffffffffffffffff16815260200190815260200160002060405180608001604052808581526020013373ffffffffffffffffffffffffffffffffffffffff168152602001848152602001838152509080600181540180825580915050600190039060005260206000209060040201600090919091909150600082015181600001908161192e919061462b565b5060208201518160010160006101000a81548173ffffffffffffffffffffffffffffffffffffffff021916908373ffffffffffffffffffffffffffffffffffffffff160217905550604082015181600201908161198b919061462b565b506060820151816003015550506011836040516119a89190614313565b908152602001604051809103902060405180608001604052808581526020013373ffffffffffffffffffffffffffffffffffffffff1681526020018481526020018381525090806001815401808255809150506001900390600052602060002090600402016000909190919091506000820151816000019081611a2b919061462b565b5060208201518160010160006101000a81548173ffffffffffffffffffffffffffffffffffffffff021916908373ffffffffffffffffffffffffffffffffffffffff1602179055506040820151816002019081611a88919061462b565b5060608201518160030155505060008060009054906101000a900473ffffffffffffffffffffffffffffffffffffffff1673ffffffffffffffffffffffffffffffffffffffff166064604051611add90614a62565b60006040518083038185875af1925050503d8060008114611b1a576040519150601f19603f3d011682016040523d82523d6000602084013e611b1f565b606091505b5050905080611b63576040517f08c379a0000000000000000000000000000000000000000000000000000000008152600401611b5a90614ae9565b60405180910390fd5b83604051611b719190614313565b60405180910390203373ffffffffffffffffffffffffffffffffffffffff167fcd230f7e44a2186de0bb3cf7714b1b492610b841c89ca3dcbd5b1333a3ec18e18686604051611bc1929190614810565b60405180910390a350505050565b60028181548110611bdf57600080fd5b906000526020600020016000915090508054611bfa90614359565b80601f0160208091040260200160405190810160405280929190818152602001828054611c2690614359565b8015611c735780601f10611c4857610100808354040283529160200191611c73565b820191906000526020600020905b815481529060010190602001808311611c5657829003601f168201915b505050505081565b600d5481565b6008818051602081018201805184825260208301602085012081835280955050505050506000915090505481565b6012838051602081018201805184825260208301602085012081835280955050505050506020528160005260406000208180516020810182018051848252602083016020850120818352809550505050505060009250925050505481565b600160009054906101000a900473ffffffffffffffffffffffffffffffffffffffff1681565b6000600160009054906101000a900473ffffffffffffffffffffffffffffffffffffffff16905090565b6006818051602081018201805184825260208301602085012081835280955050505050506000915054906101000a900473ffffffffffffffffffffffffffffffffffffffff1681565b60004262069780600584604051611dbd9190614313565b908152602001604051809103902060009054906101000a900467ffffffffffffffff16611dea91906146fd565b67ffffffffffffffff16109050601382604051611e079190614313565b908152602001604051809103902060009054906101000a900460ff1680611e2b5750805b8015611e9d5750601582604051611e429190614313565b908152602001604051809103902060003373ffffffffffffffffffffffffffffffffffffffff1673ffffffffffffffffffffffffffffffffffffffff16815260200190815260200160002060009054906101000a900460ff16155b8015611f0557506000600c83604051611eb69190614313565b908152602001604051809103902060003373ffffffffffffffffffffffffffffffffffffffff1673ffffffffffffffffffffffffffffffffffffffff1681526020019081526020016000205414155b611f44576040517f08c379a0000000000000000000000000000000000000000000000000000000008152600401611f3b90614b7b565b60405180910390fd5b6001601583604051611f569190614313565b908152602001604051809103902060003373ffffffffffffffffffffffffffffffffffffffff1673ffffffffffffffffffffffffffffffffffffffff16815260200190815260200160002060006101000a81548160ff0219169083151502179055506000601483604051611fca9190614313565b90815260200160405180910390208054611fe390614359565b80601f016020809104026020016040519081016040528092919081815260200182805461200f90614359565b801561205c5780601f106120315761010080835404028352916020019161205c565b820191906000526020600020905b81548152906001019060200180831161203f57829003601f168201915b5050505050905060006012846040516120759190614313565b908152602001604051809103902060003373ffffffffffffffffffffffffffffffffffffffff1673ffffffffffffffffffffffffffffffffffffffff168152602001908152602001600020826040516120ce9190614313565b90815260200160405180910390205490506000600b856040516120f19190614313565b90815260200160405180910390208360405161210d9190614313565b908152602001604051809103902054905060008082036121cd57600c866040516121379190614313565b908152602001604051809103902060003373ffffffffffffffffffffffffffffffffffffffff1673ffffffffffffffffffffffffffffffffffffffff1681526020019081526020016000205490503373ffffffffffffffffffffffffffffffffffffffff167fd062202474cb0be44012226d41105de1db85c69c417fbc111907fcbb25a44aa560405160405180910390a26122c9565b6000831461227b57600082600a886040516121e89190614313565b90815260200160405180910390205461220191906149fd565b90508284826122109190614b9b565b61221a9190614768565b8461222591906143b9565b91503373ffffffffffffffffffffffffffffffffffffffff167fe60bab41c59bb7b8da014b17716e6924f66553ddd1751db88bfa8d831fb3b7b58360405161226d9190613d44565b60405180910390a2506122c8565b3373ffffffffffffffffffffffffffffffffffffffff167f111af70af2304203f6ba46b1d8b86b412f7a22d454c779f8c526df94a3c56e2e60405160405180910390a250505050506124a3565b5b60006008876040516122db9190614313565b908152602001604051809103902054826122f59190614768565b9050808261230391906149fd565b915060003373ffffffffffffffffffffffffffffffffffffffff168360405161232b90614a62565b60006040518083038185875af1925050503d8060008114612368576040519150601f19603f3d011682016040523d82523d6000602084013e61236d565b606091505b50509050806123b1576040517f08c379a00000000000000000000000000000000000000000000000000000000081526004016123a890614c4f565b60405180910390fd5b6006886040516123c19190614313565b908152602001604051809103902060009054906101000a900473ffffffffffffffffffffffffffffffffffffffff1673ffffffffffffffffffffffffffffffffffffffff168260405161241390614a62565b60006040518083038185875af1925050503d8060008114612450576040519150601f19603f3d011682016040523d82523d6000602084013e612455565b606091505b5050809150508061249b576040517f08c379a000000000000000000000000000000000000000000000000000000000815260040161249290614ce1565b60405180910390fd5b505050505050505b50565b6007818051602081018201805184825260208301602085012081835280955050505050506000915054906101000a900473ffffffffffffffffffffffffffffffffffffffff1681565b6007826040516124ff9190614313565b908152602001604051809103902060009054906101000a900473ffffffffffffffffffffffffffffffffffffffff1673ffffffffffffffffffffffffffffffffffffffff163373ffffffffffffffffffffffffffffffffffffffff1614801561259157506013826040516125739190614313565b908152602001604051809103902060009054906101000a900460ff16155b6125d0576040517f08c379a00000000000000000000000000000000000000000000000000000000081526004016125c790614d73565b60405180910390fd5b806014836040516125e19190614313565b908152602001604051809103902090816125fb919061462b565b50600160138360405161260e9190614313565b908152602001604051809103902060006101000a81548160ff0219169083151502179055506001600e836040516126459190614313565b908152602001604051809103902060070160146101000a81548160ff02191690831515021790555080600e8360405161267e9190614313565b9081526020016040518091039020600801908161269b919061462b565b50816040516126aa9190614313565b60405180910390207f9ebd80a0396fbf9d3cfaaba17ab4290390777c1f29bef764b78b7845acaa1461826040516126e19190613d13565b60405180910390a25050565b6005818051602081018201805184825260208301602085012081835280955050505050506000915054906101000a900467ffffffffffffffff1681565b600c82805160208101820180518482526020830160208501208183528095505050505050602052806000526040600020600091509150505481565b601481805160208101820180518482526020830160208501208183528095505050505050600091509050805461279a90614359565b80601f01602080910402602001604051908101604052809291908181526020018280546127c690614359565b80156128135780601f106127e857610100808354040283529160200191612813565b820191906000526020600020905b8154815290600101906020018083116127f657829003601f168201915b505050505081565b6013818051602081018201805184825260208301602085012081835280955050505050506000915054906101000a900460ff1681565b6060600060028054905067ffffffffffffffff8111156128745761287361338a565b5b6040519080825280602002602001820160405280156128ad57816020015b61289a6132a6565b8152602001906001900390816128925790505b50905060005b600280549050811015612bd4576000600282815481106128d6576128d5614799565b5b9060005260206000200180546128eb90614359565b80601f016020809104026020016040519081016040528092919081815260200182805461291790614359565b80156129645780601f1061293957610100808354040283529160200191612964565b820191906000526020600020905b81548152906001019060200180831161294757829003601f168201915b505050505090506000600f8260405161297d9190614313565b90815260200160405180910390208054905067ffffffffffffffff8111156129a8576129a761338a565b5b6040519080825280602002602001820160405280156129e157816020015b6129ce6132c0565b8152602001906001900390816129c65790505b50905060005b600f836040516129f79190614313565b908152602001604051809103902080549050811015612b8b576040518060400160405280600f85604051612a2b9190614313565b90815260200160405180910390208381548110612a4b57612a4a614799565b5b906000526020600020018054612a6090614359565b80601f0160208091040260200160405190810160405280929190818152602001828054612a8c90614359565b8015612ad95780601f10612aae57610100808354040283529160200191612ad9565b820191906000526020600020905b815481529060010190602001808311612abc57829003601f168201915b50505050508152602001600b85604051612af39190614313565b9081526020016040518091039020600f86604051612b119190614313565b90815260200160405180910390208481548110612b3157612b30614799565b5b90600052602060002001604051612b489190614e16565b908152602001604051809103902054815250828281518110612b6d57612b6c614799565b5b60200260200101819052508080612b83906147c8565b9150506129e7565b50604051806040016040528083815260200182815250848481518110612bb457612bb3614799565b5b602002602001018190525050508080612bcc906147c8565b9150506128b3565b508091505090565b6015828051602081018201805184825260208301602085012081835280955050505050506020528060005260406000206000915091509054906101000a900460ff1681565b600a818051602081018201805184825260208301602085012081835280955050505050506000915090505481565b600b8280516020810182018051848252602083016020850120818352809550505050505081805160208101820180518482526020830160208501208183528095505050505050600091509150505481565b6009818051602081018201805184825260208301602085012081835280955050505050506000915090505481565b6004818051602081018201805184825260208301602085012081835280955050505050506000915054906101000a900467ffffffffffffffff1681565b6060600060028054905067ffffffffffffffff811115612d2e57612d2d61338a565b5b604051908082528060200260200182016040528015612d6757816020015b612d54613231565b815260200190600190039081612d4c5790505b50905060005b6002805490508110156131d0576000600e60028381548110612d9257612d91614799565b5b90600052602060002001604051612da99190614e16565b908152602001604051809103902090508060405180610140016040529081600082018054612dd690614359565b80601f0160208091040260200160405190810160405280929190818152602001828054612e0290614359565b8015612e4f5780601f10612e2457610100808354040283529160200191612e4f565b820191906000526020600020905b815481529060010190602001808311612e3257829003601f168201915b50505050508152602001600182018054612e6890614359565b80601f0160208091040260200160405190810160405280929190818152602001828054612e9490614359565b8015612ee15780601f10612eb657610100808354040283529160200191612ee1565b820191906000526020600020905b815481529060010190602001808311612ec457829003601f168201915b5050505050815260200160028201805480602002602001604051908101604052809291908181526020016000905b82821015612fbb578382906000526020600020018054612f2e90614359565b80601f0160208091040260200160405190810160405280929190818152602001828054612f5a90614359565b8015612fa75780601f10612f7c57610100808354040283529160200191612fa7565b820191906000526020600020905b815481529060010190602001808311612f8a57829003601f168201915b505050505081526020019060010190612f0f565b5050505081526020016003820160009054906101000a900467ffffffffffffffff1667ffffffffffffffff1667ffffffffffffffff168152602001600482015481526020016005820154815260200160068201805461301990614359565b80601f016020809104026020016040519081016040528092919081815260200182805461304590614359565b80156130925780601f1061306757610100808354040283529160200191613092565b820191906000526020600020905b81548152906001019060200180831161307557829003601f168201915b505050505081526020016007820160009054906101000a900473ffffffffffffffffffffffffffffffffffffffff1673ffffffffffffffffffffffffffffffffffffffff1673ffffffffffffffffffffffffffffffffffffffff1681526020016007820160149054906101000a900460ff1615151515815260200160088201805461311c90614359565b80601f016020809104026020016040519081016040528092919081815260200182805461314890614359565b80156131955780601f1061316a57610100808354040283529160200191613195565b820191906000526020600020905b81548152906001019060200180831161317857829003601f168201915b5050505050815250508383815181106131b1576131b0614799565b5b60200260200101819052505080806131c8906147c8565b915050612d6d565b508091505090565b828054828255906000526020600020908101928215613220579160200282015b8281111561321f57825182908161320f919061462b565b50916020019190600101906131f8565b5b50905061322d91906132da565b5090565b604051806101400160405280606081526020016060815260200160608152602001600067ffffffffffffffff168152602001600081526020016000815260200160608152602001600073ffffffffffffffffffffffffffffffffffffffff168152602001600015158152602001606081525090565b604051806040016040528060608152602001606081525090565b604051806040016040528060608152602001600081525090565b5b808211156132fa57600081816132f191906132fe565b506001016132db565b5090565b50805461330a90614359565b6000825580601f1061331c575061333b565b601f01602090049060005260206000209081019061333a919061333e565b5b50565b5b8082111561335757600081600090555060010161333f565b5090565b6000604051905090565b600080fd5b600080fd5b600080fd5b600080fd5b6000601f19601f8301169050919050565b7f4e487b7100000000000000000000000000000000000000000000000000000000600052604160045260246000fd5b6133c282613379565b810181811067ffffffffffffffff821117156133e1576133e061338a565b5b80604052505050565b60006133f461335b565b905061340082826133b9565b919050565b600067ffffffffffffffff8211156134205761341f61338a565b5b61342982613379565b9050602081019050919050565b82818337600083830152505050565b600061345861345384613405565b6133ea565b90508281526020810184848401111561347457613473613374565b5b61347f848285613436565b509392505050565b600082601f83011261349c5761349b61336f565b5b81356134ac848260208601613445565b91505092915050565b6000602082840312156134cb576134ca613365565b5b600082013567ffffffffffffffff8111156134e9576134e861336a565b5b6134f584828501613487565b91505092915050565b600081519050919050565b600082825260208201905092915050565b6000819050602082019050919050565b600081519050919050565b600082825260208201905092915050565b60005b83811015613564578082015181840152602081019050613549565b60008484015250505050565b600061357b8261352a565b6135858185613535565b9350613595818560208601613546565b61359e81613379565b840191505092915050565b600073ffffffffffffffffffffffffffffffffffffffff82169050919050565b60006135d4826135a9565b9050919050565b6135e4816135c9565b82525050565b6000819050919050565b6135fd816135ea565b82525050565b600060808301600083015184820360008601526136208282613570565b915050602083015161363560208601826135db565b506040830151848203604086015261364d8282613570565b915050606083015161366260608601826135f4565b508091505092915050565b60006136798383613603565b905092915050565b6000602082019050919050565b6000613699826134fe565b6136a38185613509565b9350836020820285016136b58561351a565b8060005b858110156136f157848403895281516136d2858261366d565b94506136dd83613681565b925060208a019950506001810190506136b9565b50829750879550505050505092915050565b6000602082019050818103600083015261371d818461368e565b905092915050565b600067ffffffffffffffff8211156137405761373f61338a565b5b602082029050602081019050919050565b600080fd5b600061376961376484613725565b6133ea565b9050808382526020820190506020840283018581111561378c5761378b613751565b5b835b818110156137d357803567ffffffffffffffff8111156137b1576137b061336f565b5b8086016137be8982613487565b8552602085019450505060208101905061378e565b5050509392505050565b600082601f8301126137f2576137f161336f565b5b8135613802848260208601613756565b91505092915050565b600067ffffffffffffffff82169050919050565b6138288161380b565b811461383357600080fd5b50565b6000813590506138458161381f565b92915050565b613854816135ea565b811461385f57600080fd5b50565b6000813590506138718161384b565b92915050565b613880816135c9565b811461388b57600080fd5b50565b60008135905061389d81613877565b92915050565b600080600080600080600080610100898b0312156138c4576138c3613365565b5b600089013567ffffffffffffffff8111156138e2576138e161336a565b5b6138ee8b828c01613487565b985050602089013567ffffffffffffffff81111561390f5761390e61336a565b5b61391b8b828c01613487565b975050604089013567ffffffffffffffff81111561393c5761393b61336a565b5b6139488b828c016137dd565b96505060606139598b828c01613836565b955050608061396a8b828c01613862565b94505060a061397b8b828c01613862565b93505060c089013567ffffffffffffffff81111561399c5761399b61336a565b5b6139a88b828c01613487565b92505060e06139b98b828c0161388e565b9150509295985092959890939650565b6000602082840312156139df576139de613365565b5b60006139ed8482850161388e565b91505092915050565b60008115159050919050565b613a0b816139f6565b82525050565b6000602082019050613a266000830184613a02565b92915050565b600081519050919050565b600082825260208201905092915050565b6000819050602082019050919050565b6000613a648383613570565b905092915050565b6000602082019050919050565b6000613a8482613a2c565b613a8e8185613a37565b935083602082028501613aa085613a48565b8060005b85811015613adc5784840389528151613abd8582613a58565b9450613ac883613a6c565b925060208a01995050600181019050613aa4565b50829750879550505050505092915050565b613af78161380b565b82525050565b613b06816139f6565b82525050565b6000610140830160008301518482036000860152613b2a8282613570565b91505060208301518482036020860152613b448282613570565b91505060408301518482036040860152613b5e8282613a79565b9150506060830151613b736060860182613aee565b506080830151613b8660808601826135f4565b5060a0830151613b9960a08601826135f4565b5060c083015184820360c0860152613bb18282613570565b91505060e0830151613bc660e08601826135db565b50610100830151613bdb610100860182613afd565b50610120830151848203610120860152613bf58282613570565b9150508091505092915050565b60006020820190508181036000830152613c1c8184613b0c565b905092915050565b60008060408385031215613c3b57613c3a613365565b5b600083013567ffffffffffffffff811115613c5957613c5861336a565b5b613c6585828601613487565b925050602083013567ffffffffffffffff811115613c8657613c8561336a565b5b613c9285828601613487565b9150509250929050565b600060208284031215613cb257613cb1613365565b5b6000613cc084828501613862565b91505092915050565b600082825260208201905092915050565b6000613ce58261352a565b613cef8185613cc9565b9350613cff818560208601613546565b613d0881613379565b840191505092915050565b60006020820190508181036000830152613d2d8184613cda565b905092915050565b613d3e816135ea565b82525050565b6000602082019050613d596000830184613d35565b92915050565b600080600060608486031215613d7857613d77613365565b5b600084013567ffffffffffffffff811115613d9657613d9561336a565b5b613da286828701613487565b9350506020613db38682870161388e565b925050604084013567ffffffffffffffff811115613dd457613dd361336a565b5b613de086828701613487565b9150509250925092565b613df3816135c9565b82525050565b6000602082019050613e0e6000830184613dea565b92915050565b6000613e1f826135a9565b9050919050565b613e2f81613e14565b82525050565b6000602082019050613e4a6000830184613e26565b92915050565b613e598161380b565b82525050565b6000602082019050613e746000830184613e50565b92915050565b60008060408385031215613e9157613e90613365565b5b600083013567ffffffffffffffff811115613eaf57613eae61336a565b5b613ebb85828601613487565b9250506020613ecc8582860161388e565b9150509250929050565b600081519050919050565b600082825260208201905092915050565b6000819050602082019050919050565b600081519050919050565b600082825260208201905092915050565b6000819050602082019050919050565b60006040830160008301518482036000860152613f4b8282613570565b9150506020830151613f6060208601826135f4565b508091505092915050565b6000613f778383613f2e565b905092915050565b6000602082019050919050565b6000613f9782613f02565b613fa18185613f0d565b935083602082028501613fb385613f1e565b8060005b85811015613fef5784840389528151613fd08582613f6b565b9450613fdb83613f7f565b925060208a01995050600181019050613fb7565b50829750879550505050505092915050565b6000604083016000830151848203600086015261401e8282613570565b915050602083015184820360208601526140388282613f8c565b9150508091505092915050565b60006140518383614001565b905092915050565b6000602082019050919050565b600061407182613ed6565b61407b8185613ee1565b93508360208202850161408d85613ef2565b8060005b858110156140c957848403895281516140aa8582614045565b94506140b583614059565b925060208a01995050600181019050614091565b50829750879550505050505092915050565b600060208201905081810360008301526140f58184614066565b905092915050565b600081519050919050565b600082825260208201905092915050565b6000819050602082019050919050565b60006101408301600083015184820360008601526141478282613570565b915050602083015184820360208601526141618282613570565b9150506040830151848203604086015261417b8282613a79565b91505060608301516141906060860182613aee565b5060808301516141a360808601826135f4565b5060a08301516141b660a08601826135f4565b5060c083015184820360c08601526141ce8282613570565b91505060e08301516141e360e08601826135db565b506101008301516141f8610100860182613afd565b506101208301518482036101208601526142128282613570565b9150508091505092915050565b600061422b8383614129565b905092915050565b6000602082019050919050565b600061424b826140fd565b6142558185614108565b93508360208202850161426785614119565b8060005b858110156142a35784840389528151614284858261421f565b945061428f83614233565b925060208a0199505060018101905061426b565b50829750879550505050505092915050565b600060208201905081810360008301526142cf8184614240565b905092915050565b600081905092915050565b60006142ed8261352a565b6142f781856142d7565b9350614307818560208601613546565b80840191505092915050565b600061431f82846142e2565b915081905092915050565b7f4e487b7100000000000000000000000000000000000000000000000000000000600052602260045260246000fd5b6000600282049050600182168061437157607f821691505b6020821081036143845761438361432a565b5b50919050565b7f4e487b7100000000000000000000000000000000000000000000000000000000600052601160045260246000fd5b60006143c4826135ea565b91506143cf836135ea565b92508282019050808211156143e7576143e661438a565b5b92915050565b7f556e61626c6520746f2063726561746520746f7069632c20636865636b20617260008201527f67756d656e74732e000000000000000000000000000000000000000000000000602082015250565b6000614449602883613cc9565b9150614454826143ed565b604082019050919050565b600060208201905081810360008301526144788161443c565b9050919050565b60008190508160005260206000209050919050565b60006020601f8301049050919050565b600082821b905092915050565b6000600883026144e17fffffffffffffffffffffffffffffffffffffffffffffffffffffffffffffffff826144a4565b6144eb86836144a4565b95508019841693508086168417925050509392505050565b6000819050919050565b600061452861452361451e846135ea565b614503565b6135ea565b9050919050565b6000819050919050565b6145428361450d565b61455661454e8261452f565b8484546144b1565b825550505050565b600090565b61456b61455e565b614576818484614539565b505050565b5b8181101561459a5761458f600082614563565b60018101905061457c565b5050565b601f8211156145df576145b08161447f565b6145b984614494565b810160208510156145c8578190505b6145dc6145d485614494565b83018261457b565b50505b505050565b600082821c905092915050565b6000614602600019846008026145e4565b1980831691505092915050565b600061461b83836145f1565b9150826002028217905092915050565b6146348261352a565b67ffffffffffffffff81111561464d5761464c61338a565b5b6146578254614359565b61466282828561459e565b600060209050601f8311600181146146955760008415614683578287015190505b61468d858261460f565b8655506146f5565b601f1984166146a38661447f565b60005b828110156146cb578489015182556001820191506020850194506020810190506146a6565b868310156146e857848901516146e4601f8916826145f1565b8355505b6001600288020188555050505b505050505050565b60006147088261380b565b91506147138361380b565b9250828201905067ffffffffffffffff8111156147335761473261438a565b5b92915050565b7f4e487b7100000000000000000000000000000000000000000000000000000000600052601260045260246000fd5b6000614773826135ea565b915061477e836135ea565b92508261478e5761478d614739565b5b828204905092915050565b7f4e487b7100000000000000000000000000000000000000000000000000000000600052603260045260246000fd5b60006147d3826135ea565b91507fffffffffffffffffffffffffffffffffffffffffffffffffffffffffffffffff82036148055761480461438a565b5b600182019050919050565b6000604082019050818103600083015261482a8185613cda565b9050818103602083015261483e8184613cda565b90509392505050565b7f556e61626c6520746f20706c61636520626574732c20636865636b206172677560008201527f6d656e74732e0000000000000000000000000000000000000000000000000000602082015250565b60006148a3602683613cc9565b91506148ae82614847565b604082019050919050565b600060208201905081810360008301526148d281614896565b9050919050565b7f417474656d7074656420746f20706c61636520696e76616c6964206265742c2060008201527f636865636b20726573756c740000000000000000000000000000000000000000602082015250565b6000614935602c83613cc9565b9150614940826148d9565b604082019050919050565b6000602082019050818103600083015261496481614928565b9050919050565b7f417474656d7074656420746f20706c61636520696e76616c6964206265742c2060008201527f636865636b20616d6f756e740000000000000000000000000000000000000000602082015250565b60006149c7602c83613cc9565b91506149d28261496b565b604082019050919050565b600060208201905081810360008301526149f6816149ba565b9050919050565b6000614a08826135ea565b9150614a13836135ea565b9250828203905081811115614a2b57614a2a61438a565b5b92915050565b600081905092915050565b50565b6000614a4c600083614a31565b9150614a5782614a3c565b600082019050919050565b6000614a6d82614a3f565b9150819050919050565b7f4661696c656420746f207472616e7366657220666978656420636f6d6d69737360008201527f696f6e20746f20636f6e74726163742063726561746f722e0000000000000000602082015250565b6000614ad3603883613cc9565b9150614ade82614a77565b604082019050919050565b60006020820190508181036000830152614b0281614ac6565b9050919050565b7f496e76616c696420626574207374617465207768696c6520636c61696d696e6760008201527f207265776172642e000000000000000000000000000000000000000000000000602082015250565b6000614b65602883613cc9565b9150614b7082614b09565b604082019050919050565b60006020820190508181036000830152614b9481614b58565b9050919050565b6000614ba6826135ea565b9150614bb1836135ea565b9250828202614bbf816135ea565b91508282048414831517614bd657614bd561438a565b5b5092915050565b7f4661696c656420746f207472616e736665722072657761726420746f2075736560008201527f722e000000000000000000000000000000000000000000000000000000000000602082015250565b6000614c39602283613cc9565b9150614c4482614bdd565b604082019050919050565b60006020820190508181036000830152614c6881614c2c565b9050919050565b7f4661696c656420746f207472616e7366657220636f6d6d697373696f6e20746f60008201527f20626574206f776e65722e000000000000000000000000000000000000000000602082015250565b6000614ccb602b83613cc9565b9150614cd682614c6f565b604082019050919050565b60006020820190508181036000830152614cfa81614cbe565b9050919050565b7f6f6e6c79206f7261636c652063616e207265706f72742074686520726573756c60008201527f7400000000000000000000000000000000000000000000000000000000000000602082015250565b6000614d5d602183613cc9565b9150614d6882614d01565b604082019050919050565b60006020820190508181036000830152614d8c81614d50565b9050919050565b60008154614da081614359565b614daa81866142d7565b94506001821660008114614dc55760018114614dda57614e0d565b60ff1983168652811515820286019350614e0d565b614de38561447f565b60005b83811015614e0557815481890152600182019150602081019050614de6565b838801955050505b50505092915050565b6000614e228284614d93565b91508190509291505056fea2646970667358221220772788e98c3398fe37bca6310dd925b05a53adb87121ef495e7972b55319957264736f6c63430008110033",
  "immutableReferences": {},
  "source": "// SPDX-License-Identifier: MIT\npragma solidity 0.8.17;\npragma experimental ABIEncoderV2;\n\ncontract PredictionMarket{\n\n    address payable contractCreator;\n    address public oracle;\n\n    constructor(address _oracle) payable {\n        contractCreator = payable(msg.sender);\n        oracle = _oracle;\n    }\n\n    function getOracle() public view returns (address){\n        return oracle;\n    }\n\n    // Prediction Market Contract Creator reward\n    // There's a 10 wei fixed commission transferred to the contract's creator for every placed bet\n    uint256 constant fixedCommission = 100;\n    // Minimum entry for all bets, topic owners cannot set it lower than this \n    uint256 constant minimumBet = fixedCommission + 1;\n\n    // topic mappings: \n    string[] public allTopics;\n    // Keep track of all createdTopics to prevent duplicates\n    mapping(string => bool) public createdTopics;\n\n    // There are two different dates associated with each created topic:\n    // 1. deadline when a user can no longer place new bets\n    mapping(string => uint64) public topicDeadlines;\n    // 2. deadline for oracle to submit the bet's final result - fixed at 30 days after topicDeadline\n    uint64 constant scheduleThreshold = 30 * 24 * 60 * 60; \n    mapping(string => uint64) public topicSchedules;\n\n\n    // Keep track of all owners to handle commission fees\n    mapping(string => address payable) public topicOwners; \n    mapping(string => address) public topicArbitrator; \n\n    // commision related:\n    mapping(string => uint256) public topicCommissions;\n    // Custom minimum entry for each topic, set by their owner\n    mapping(string => uint256) public topicMinimum;\n\n    // Total pooled per topic\n    mapping(string => uint256) public topicPools;\n\n    // For each topic, how much is the total pooled per side; resultPools[topicID][side]\n    mapping(string => mapping(string => uint256)) public resultPools;\n    // For each topic, how much each has each user put into that topic's pool; userPools[topicID][msg.sender]\n    mapping(string => mapping(address => uint256)) public userPools;\n    \n    // query price for oracle to submit bet results\n    uint256 public oraclePrice;\n\n    // Not enough to pay for it, the user should be informed and their funds returned\n    event LackingFunds(address indexed sender, uint256 funds);\n\n    /* Contains all the information that does not need to be saved as a state variable, \n    but which can prove useful to people taking a look at the bet in the frontend. */\n    event CreatedBet(string indexed _id, string description, string query);\n\n    struct topics {\n        string id;\n        string name;\n        string[] outcomes;\n        uint64 endDate;\n        uint256 minBet;\n        uint256 comm;\n        string desc;\n        address judge;\n        bool finished;\n        string result;\n    }\n\n    // list of all topics\n    // topics[] public topicList;\n    mapping(string => topics) topicList;\n\n    mapping(string => string[]) topicSides;\n\n    struct oneBet{\n        string topicid;\n        address user;\n        string side;\n        uint256 amt;\n    }\n\n    // bets by user\n    mapping(address => oneBet[]) allBets;\n    // bets by topic\n    mapping(string => oneBet[]) allBetsByTopic;\n\n    function createTopic(string memory topicID, string memory topic, string[] memory sides, uint64 deadline, uint256 minimum, uint256 commission, string memory description, address _arbitrator) public {\n\n        require(\n            bytes(topicID).length > 0\n            && sides.length > 1\n            && deadline > block.timestamp // topic can't be set in the past\n            // && deadline <= schedule // Users should only be able to place bets before it is actually executed\n            // && schedule < block.timestamp + scheduleThreshold\n            && commission <= 20 // maximum comission is 20%\n            && minimum >= minimumBet\n            && !createdTopics[topicID], // Can't have duplicate topics\n            \"Unable to create topic, check arguments.\"\n        );\n\n        // // The remaining balance should be enough to cover the cost of the smart oracle query\n        // uint256 balance = msg.value;\n\n        // // oraclePrice = provable_getPrice(\"URL\");\n        // oraclePrice = 0;\n\n        // if (oraclePrice > balance) {\n        //     emit LackingFunds(msg.sender, oraclePrice);\n        //     (bool success, ) = msg.sender.call.value(msg.value)(\"\");\n        //     require(success, \"Error when returning funds to bet owner.\");\n        //     return;\n        // }\n\n        // Create topic\n        allTopics.push(topicID);\n        createdTopics[topicID] = true;\n        topicOwners[topicID] = payable(msg.sender);\n        topicDeadlines[topicID] = deadline;\n        topicSchedules[topicID] = deadline + scheduleThreshold;\n        topicMinimum[topicID] = minimum;\n        topicCommissions[topicID] = 100/commission;\n        topicArbitrator[topicID]= _arbitrator;\n        topicSides[topicID] = sides;\n\n        topicList[topicID] = (topics(topicID, topic, sides, deadline, minimum, commission, description, _arbitrator, false, \"\"));\n\n        // initialize the sides, set pool for each side to 0\n        for (uint i = 0; i < sides.length; i++) {\n            resultPools[topicID][sides[i]] = 0;\n        }\n\n        emit CreatedBet(topicID, description, topic);\n    }\n\n    // The table in the frontend representing each topic's pool is populated according to these events.\n    event PlacedBets(address indexed user, string indexed _id, string id, string side);\n\n    // For each bet, track how much each user has put into each side\n    mapping(string => mapping(address => mapping(string => uint256))) public userBets;\n    \n    // only allow user to bet on 1 topic and 1 side each time\n    function placeBet(string memory topicID, string memory side) public payable {\n        require(\n            createdTopics[topicID]\n            && !finishedTopics[topicID] \n            && topicDeadlines[topicID] >= block.timestamp,\n        \"Unable to place bets, check arguments.\");\n\n        uint256 bet = msg.value;\n\n        require(\n        bytes(side).length > 0,\n        \"Attempted to place invalid bet, check result\");\n\n        require(\n        msg.value >= topicMinimum[topicID],\n        \"Attempted to place invalid bet, check amount\");\n\n        bet -= fixedCommission;\n\n        // Update all required state\n        resultPools[topicID][side] += bet;\n        userPools[topicID][msg.sender] += bet;\n        topicPools[topicID] += bet;\n        userBets[topicID][msg.sender][side] += bet;\n\n        allBets[msg.sender].push(oneBet(topicID, msg.sender, side, bet));\n        allBetsByTopic[topicID].push(oneBet(topicID, msg.sender, side, bet));\n\n        // Fixed commission transfer\n        (bool success, ) = contractCreator.call{value: fixedCommission}(\"\");\n        require(success, \"Failed to transfer fixed commission to contract creator.\");\n\n        emit PlacedBets(msg.sender, topicID, topicID, side);\n    }\n\n    // Keep track of when a bet ends and what its result was\n    mapping(string => bool) public finishedTopics;\n    mapping(string => string) public topicResults;\n\n    // Emit result\n    event ReportedResult(string indexed _id, string result);\n\n    // Function executed by oracle when the topic is scheduled to close\n    function reportResult(string memory topicID, string memory result) public {\n        require(msg.sender == topicArbitrator[topicID] && !finishedTopics[topicID], 'only oracle can report the result');\n        \n        topicResults[topicID] = result;\n        finishedTopics[topicID] = true;\n        \n        topicList[topicID].finished = true;\n        topicList[topicID].result = result;\n\n        emit ReportedResult(topicID, result);\n    }\n\n    // For each bet, track which users have already claimed their potential reward\n    mapping(string => mapping(address => bool)) public claimedBets;\n    \n    /* If the oracle service's scheduled callback was not executed after 5 days, \n    a user can reclaim his funds after the bet's execution threshold has passed. \n    Note that even if the callback execution is delayed,\n    oracle should've extracted the result at the originally scheduled time. */\n    uint64 constant topicThreshold = 5 * 24 * 60 * 60;\n    \n    // If the user wins the bet, let them know along with the reward amount.\n    event WonBet(address indexed winner, uint256 won);\n    \n    // If the user lost no funds are claimable.\n    event LostBet(address indexed loser);\n    \n    /* If no one wins the bet the funds can be refunded to the user, \n    after the bet creator's takes their cut. */\n    event UnwonBet(address indexed refunded);\n    \n    function claimBet(string memory topicID) public {\n        bool topicExpired = topicSchedules[topicID] + topicThreshold < block.timestamp;\n        \n        // If the bet has not finished but its threshold has been reached, let the user get back their funds\n        require(\n            (finishedTopics[topicID] || topicExpired) \n            && !claimedBets[topicID][msg.sender] \n            && userPools[topicID][msg.sender] != 0,\n        \"Invalid bet state while claiming reward.\");\n        \n        claimedBets[topicID][msg.sender] = true;\n        \n        string memory result = topicResults[topicID];\n        uint256 userBet = userBets[topicID][msg.sender][result];\n        uint256 winnerPool = resultPools[topicID][result];\n        uint256 reward;\n        \n        if (winnerPool == 0) {\n            // If no one won then all bets are refunded\n            reward = userPools[topicID][msg.sender];\n            emit UnwonBet(msg.sender);\n        } else if (userBet != 0) {\n            // User gets their corresponding fraction of the loser's pool, along with their original bet\n            uint256 loserPool = topicPools[topicID] - winnerPool;\n            reward = userBet + loserPool * userBet / winnerPool;\n            emit WonBet(msg.sender, reward);\n        } else {\n            // User lost\n            emit LostBet(msg.sender);\n            return;\n        }\n        \n        // Bet owner gets their commission\n        uint256 ownerFee = reward / topicCommissions[topicID];\n        reward -= ownerFee;\n        (bool success, ) = msg.sender.call{value:reward}(\"\");\n        require(success, \"Failed to transfer reward to user.\");\n        (success, ) = topicOwners[topicID].call{value:ownerFee}(\"\");\n        require(success, \"Failed to transfer commission to bet owner.\");\n    }\n\n    // return all topics\n    function getTopics() public view returns (topics[] memory){\n        topics[] memory id = new topics[](allTopics.length);\n        for (uint i = 0; i < allTopics.length; i++) {\n          topics storage member = topicList[allTopics[i]];\n          id[i] = member;\n        }\n      return id;\n    }\n\n    // return one topic \n    function getTopic(string memory id) public view returns (topics memory){\n        return topicList[id];\n    }\n\n    // return all bets a user has made\n    // should address be param or message sender?\n    function getUserBets(address _user) public view returns (oneBet[] memory){\n        return allBets[_user];\n    }\n\n    // return bets by topic\n    function getBetsByTopic(string memory topicID) public view returns (oneBet[] memory){\n        return allBetsByTopic[topicID];\n    }\n\n    struct indivPool{\n        string side;\n        uint256 amount;\n    }\n    struct pool{\n        string id;\n        indivPool[] pools;\n    }\n\n    // get pool for a topic\n    function getTopicPool() public view returns (pool[] memory){\n        pool[] memory pools = new pool[](allTopics.length);\n        \n\n        for (uint i = 0; i < allTopics.length; i++) {\n            string memory topicid = allTopics[i];\n            indivPool[] memory ip = new indivPool[](topicSides[topicid].length);\n\n            for (uint j = 0; j < topicSides[topicid].length; j++) {\n                ip[j] = indivPool(topicSides[topicid][j], resultPools[topicid][topicSides[topicid][j]]);\n            }\n\n            pools[i] = pool(topicid, ip);\n        }\n\n        return pools;\n    }\n\n    /*\n    // function to check if user has claimed the bet for a topic already\n\n    // function to check if user is owner of a topic\n    function isOwner(address person) public view returns (bool result){\n        topicOwners\n    }\n    */\n}\n",
  "sourcePath": "C:\\Users\\graez\\CZ4153-lilibet\\contracts\\PredictionMarket.sol",
  "compiler": {
    "name": "solc",
    "version": "0.8.17+commit.8df45f5f.Emscripten.clang"
  },
  "schemaVersion": "3.4.10",
  "updatedAt": "2022-10-16T03:56:18.122Z",
  "devdoc": {
    "kind": "dev",
    "methods": {},
    "version": 1
  },
  "userdoc": {
    "kind": "user",
    "methods": {},
    "version": 1
  }
}