{
  "contractName": "PredictionMarket",
  "abi": [
    {
      "inputs": [
        {
          "internalType": "address",
          "name": "_oracle",
          "type": "address"
        }
      ],
      "stateMutability": "payable",
      "type": "constructor",
      "payable": true
    },
    {
      "anonymous": false,
      "inputs": [
        {
          "indexed": true,
          "internalType": "string",
          "name": "_id",
          "type": "string"
        },
        {
          "indexed": false,
          "internalType": "string",
          "name": "description",
          "type": "string"
        },
        {
          "indexed": false,
          "internalType": "string",
          "name": "query",
          "type": "string"
        }
      ],
      "name": "CreatedBet",
      "type": "event"
    },
    {
      "anonymous": false,
      "inputs": [
        {
          "indexed": true,
          "internalType": "address",
          "name": "sender",
          "type": "address"
        },
        {
          "indexed": false,
          "internalType": "uint256",
          "name": "funds",
          "type": "uint256"
        }
      ],
      "name": "LackingFunds",
      "type": "event"
    },
    {
      "anonymous": false,
      "inputs": [
        {
          "indexed": true,
          "internalType": "address",
          "name": "loser",
          "type": "address"
        }
      ],
      "name": "LostBet",
      "type": "event"
    },
    {
      "anonymous": false,
      "inputs": [
        {
          "indexed": true,
          "internalType": "address",
          "name": "user",
          "type": "address"
        },
        {
          "indexed": true,
          "internalType": "string",
          "name": "_id",
          "type": "string"
        },
        {
          "indexed": false,
          "internalType": "string",
          "name": "id",
          "type": "string"
        },
        {
          "indexed": false,
          "internalType": "string",
          "name": "side",
          "type": "string"
        }
      ],
      "name": "PlacedBets",
      "type": "event"
    },
    {
      "anonymous": false,
      "inputs": [
        {
          "indexed": true,
          "internalType": "string",
          "name": "_id",
          "type": "string"
        },
        {
          "indexed": false,
          "internalType": "string",
          "name": "result",
          "type": "string"
        }
      ],
      "name": "ReportedResult",
      "type": "event"
    },
    {
      "anonymous": false,
      "inputs": [
        {
          "indexed": true,
          "internalType": "address",
          "name": "refunded",
          "type": "address"
        }
      ],
      "name": "UnwonBet",
      "type": "event"
    },
    {
      "anonymous": false,
      "inputs": [
        {
          "indexed": true,
          "internalType": "address",
          "name": "winner",
          "type": "address"
        },
        {
          "indexed": false,
          "internalType": "uint256",
          "name": "won",
          "type": "uint256"
        }
      ],
      "name": "WonBet",
      "type": "event"
    },
    {
      "inputs": [
        {
          "internalType": "uint256",
          "name": "",
          "type": "uint256"
        }
      ],
      "name": "allTopics",
      "outputs": [
        {
          "internalType": "string",
          "name": "",
          "type": "string"
        }
      ],
      "stateMutability": "view",
      "type": "function",
      "constant": true
    },
    {
      "inputs": [
        {
          "internalType": "string",
          "name": "",
          "type": "string"
        },
        {
          "internalType": "address",
          "name": "",
          "type": "address"
        }
      ],
      "name": "claimedBets",
      "outputs": [
        {
          "internalType": "bool",
          "name": "",
          "type": "bool"
        }
      ],
      "stateMutability": "view",
      "type": "function",
      "constant": true
    },
    {
      "inputs": [
        {
          "internalType": "string",
          "name": "",
          "type": "string"
        }
      ],
      "name": "createdTopics",
      "outputs": [
        {
          "internalType": "bool",
          "name": "",
          "type": "bool"
        }
      ],
      "stateMutability": "view",
      "type": "function",
      "constant": true
    },
    {
      "inputs": [
        {
          "internalType": "string",
          "name": "",
          "type": "string"
        }
      ],
      "name": "finishedTopics",
      "outputs": [
        {
          "internalType": "bool",
          "name": "",
          "type": "bool"
        }
      ],
      "stateMutability": "view",
      "type": "function",
      "constant": true
    },
    {
      "inputs": [],
      "name": "oracle",
      "outputs": [
        {
          "internalType": "address",
          "name": "",
          "type": "address"
        }
      ],
      "stateMutability": "view",
      "type": "function",
      "constant": true
    },
    {
      "inputs": [],
      "name": "oraclePrice",
      "outputs": [
        {
          "internalType": "uint256",
          "name": "",
          "type": "uint256"
        }
      ],
      "stateMutability": "view",
      "type": "function",
      "constant": true
    },
    {
      "inputs": [
        {
          "internalType": "string",
          "name": "",
          "type": "string"
        },
        {
          "internalType": "string",
          "name": "",
          "type": "string"
        }
      ],
      "name": "resultPools",
      "outputs": [
        {
          "internalType": "uint256",
          "name": "",
          "type": "uint256"
        }
      ],
      "stateMutability": "view",
      "type": "function",
      "constant": true
    },
    {
      "inputs": [
        {
          "internalType": "string",
          "name": "",
          "type": "string"
        }
      ],
      "name": "topicArbitrator",
      "outputs": [
        {
          "internalType": "address",
          "name": "",
          "type": "address"
        }
      ],
      "stateMutability": "view",
      "type": "function",
      "constant": true
    },
    {
      "inputs": [
        {
          "internalType": "string",
          "name": "",
          "type": "string"
        }
      ],
      "name": "topicCommissions",
      "outputs": [
        {
          "internalType": "uint256",
          "name": "",
          "type": "uint256"
        }
      ],
      "stateMutability": "view",
      "type": "function",
      "constant": true
    },
    {
      "inputs": [
        {
          "internalType": "string",
          "name": "",
          "type": "string"
        }
      ],
      "name": "topicDeadlines",
      "outputs": [
        {
          "internalType": "uint64",
          "name": "",
          "type": "uint64"
        }
      ],
      "stateMutability": "view",
      "type": "function",
      "constant": true
    },
    {
      "inputs": [
        {
          "internalType": "string",
          "name": "",
          "type": "string"
        }
      ],
      "name": "topicMinimum",
      "outputs": [
        {
          "internalType": "uint256",
          "name": "",
          "type": "uint256"
        }
      ],
      "stateMutability": "view",
      "type": "function",
      "constant": true
    },
    {
      "inputs": [
        {
          "internalType": "string",
          "name": "",
          "type": "string"
        }
      ],
      "name": "topicOwners",
      "outputs": [
        {
          "internalType": "address payable",
          "name": "",
          "type": "address"
        }
      ],
      "stateMutability": "view",
      "type": "function",
      "constant": true
    },
    {
      "inputs": [
        {
          "internalType": "string",
          "name": "",
          "type": "string"
        }
      ],
      "name": "topicPools",
      "outputs": [
        {
          "internalType": "uint256",
          "name": "",
          "type": "uint256"
        }
      ],
      "stateMutability": "view",
      "type": "function",
      "constant": true
    },
    {
      "inputs": [
        {
          "internalType": "string",
          "name": "",
          "type": "string"
        }
      ],
      "name": "topicResults",
      "outputs": [
        {
          "internalType": "string",
          "name": "",
          "type": "string"
        }
      ],
      "stateMutability": "view",
      "type": "function",
      "constant": true
    },
    {
      "inputs": [
        {
          "internalType": "string",
          "name": "",
          "type": "string"
        }
      ],
      "name": "topicSchedules",
      "outputs": [
        {
          "internalType": "uint64",
          "name": "",
          "type": "uint64"
        }
      ],
      "stateMutability": "view",
      "type": "function",
      "constant": true
    },
    {
      "inputs": [
        {
          "internalType": "string",
          "name": "",
          "type": "string"
        },
        {
          "internalType": "address",
          "name": "",
          "type": "address"
        },
        {
          "internalType": "string",
          "name": "",
          "type": "string"
        }
      ],
      "name": "userBets",
      "outputs": [
        {
          "internalType": "uint256",
          "name": "",
          "type": "uint256"
        }
      ],
      "stateMutability": "view",
      "type": "function",
      "constant": true
    },
    {
      "inputs": [
        {
          "internalType": "string",
          "name": "",
          "type": "string"
        },
        {
          "internalType": "address",
          "name": "",
          "type": "address"
        }
      ],
      "name": "userPools",
      "outputs": [
        {
          "internalType": "uint256",
          "name": "",
          "type": "uint256"
        }
      ],
      "stateMutability": "view",
      "type": "function",
      "constant": true
    },
    {
      "inputs": [
        {
          "internalType": "string",
          "name": "topicID",
          "type": "string"
        },
        {
          "internalType": "string",
          "name": "topic",
          "type": "string"
        },
        {
          "internalType": "string[]",
          "name": "sides",
          "type": "string[]"
        },
        {
          "internalType": "uint64",
          "name": "deadline",
          "type": "uint64"
        },
        {
          "internalType": "uint256",
          "name": "minimum",
          "type": "uint256"
        },
        {
          "internalType": "uint256",
          "name": "commission",
          "type": "uint256"
        },
        {
          "internalType": "string",
          "name": "description",
          "type": "string"
        },
        {
          "internalType": "address",
          "name": "_arbitrator",
          "type": "address"
        }
      ],
      "name": "createTopic",
      "outputs": [],
      "stateMutability": "nonpayable",
      "type": "function"
    },
    {
      "inputs": [
        {
          "internalType": "string",
          "name": "topicID",
          "type": "string"
        },
        {
          "internalType": "string",
          "name": "side",
          "type": "string"
        }
      ],
      "name": "placeBet",
      "outputs": [],
      "stateMutability": "payable",
      "type": "function",
      "payable": true
    },
    {
      "inputs": [
        {
          "internalType": "string",
          "name": "topicID",
          "type": "string"
        },
        {
          "internalType": "string",
          "name": "result",
          "type": "string"
        }
      ],
      "name": "reportResult",
      "outputs": [],
      "stateMutability": "nonpayable",
      "type": "function"
    },
    {
      "inputs": [
        {
          "internalType": "string",
          "name": "topicID",
          "type": "string"
        }
      ],
      "name": "claimBet",
      "outputs": [],
      "stateMutability": "nonpayable",
      "type": "function"
    },
    {
      "inputs": [],
      "name": "getTopics",
      "outputs": [
        {
          "components": [
            {
              "internalType": "string",
              "name": "id",
              "type": "string"
            },
            {
              "internalType": "string",
              "name": "name",
              "type": "string"
            },
            {
              "internalType": "string[]",
              "name": "outcomes",
              "type": "string[]"
            },
            {
              "internalType": "uint64",
              "name": "endDate",
              "type": "uint64"
            },
            {
              "internalType": "uint256",
              "name": "minBet",
              "type": "uint256"
            },
            {
              "internalType": "uint256",
              "name": "comm",
              "type": "uint256"
            },
            {
              "internalType": "string",
              "name": "desc",
              "type": "string"
            },
            {
              "internalType": "address",
              "name": "judge",
              "type": "address"
            },
            {
              "internalType": "bool",
              "name": "finished",
              "type": "bool"
            },
            {
              "internalType": "string",
              "name": "result",
              "type": "string"
            }
          ],
          "internalType": "struct PredictionMarket.topics[]",
          "name": "",
          "type": "tuple[]"
        }
      ],
      "stateMutability": "view",
      "type": "function",
      "constant": true
    },
    {
      "inputs": [
        {
          "internalType": "string",
          "name": "id",
          "type": "string"
        }
      ],
      "name": "getTopic",
      "outputs": [
        {
          "components": [
            {
              "internalType": "string",
              "name": "id",
              "type": "string"
            },
            {
              "internalType": "string",
              "name": "name",
              "type": "string"
            },
            {
              "internalType": "string[]",
              "name": "outcomes",
              "type": "string[]"
            },
            {
              "internalType": "uint64",
              "name": "endDate",
              "type": "uint64"
            },
            {
              "internalType": "uint256",
              "name": "minBet",
              "type": "uint256"
            },
            {
              "internalType": "uint256",
              "name": "comm",
              "type": "uint256"
            },
            {
              "internalType": "string",
              "name": "desc",
              "type": "string"
            },
            {
              "internalType": "address",
              "name": "judge",
              "type": "address"
            },
            {
              "internalType": "bool",
              "name": "finished",
              "type": "bool"
            },
            {
              "internalType": "string",
              "name": "result",
              "type": "string"
            }
          ],
          "internalType": "struct PredictionMarket.topics",
          "name": "",
          "type": "tuple"
        }
      ],
      "stateMutability": "view",
      "type": "function",
      "constant": true
    },
    {
      "inputs": [
        {
          "internalType": "address",
          "name": "_user",
          "type": "address"
        }
      ],
      "name": "getUserBets",
      "outputs": [
        {
          "components": [
            {
              "internalType": "string",
              "name": "topicid",
              "type": "string"
            },
            {
              "internalType": "address",
              "name": "user",
              "type": "address"
            },
            {
              "internalType": "string",
              "name": "side",
              "type": "string"
            },
            {
              "internalType": "uint256",
              "name": "amt",
              "type": "uint256"
            }
          ],
          "internalType": "struct PredictionMarket.oneBet[]",
          "name": "",
          "type": "tuple[]"
        }
      ],
      "stateMutability": "view",
      "type": "function",
      "constant": true
    },
    {
      "inputs": [
        {
          "internalType": "string",
          "name": "topicID",
          "type": "string"
        }
      ],
      "name": "getBetsByTopic",
      "outputs": [
        {
          "components": [
            {
              "internalType": "string",
              "name": "topicid",
              "type": "string"
            },
            {
              "internalType": "address",
              "name": "user",
              "type": "address"
            },
            {
              "internalType": "string",
              "name": "side",
              "type": "string"
            },
            {
              "internalType": "uint256",
              "name": "amt",
              "type": "uint256"
            }
          ],
          "internalType": "struct PredictionMarket.oneBet[]",
          "name": "",
          "type": "tuple[]"
        }
      ],
      "stateMutability": "view",
      "type": "function",
      "constant": true
    },
    {
      "inputs": [
        {
          "internalType": "string",
          "name": "topicID",
          "type": "string"
        }
      ],
      "name": "getTopicPool",
      "outputs": [
        {
          "components": [
            {
              "internalType": "string",
              "name": "side",
              "type": "string"
            },
            {
              "internalType": "uint256",
              "name": "amount",
              "type": "uint256"
            }
          ],
          "internalType": "struct PredictionMarket.pool[]",
          "name": "",
          "type": "tuple[]"
        }
      ],
      "stateMutability": "view",
      "type": "function",
      "constant": true
    }
  ],
  "bytecode": "0x608060405260405162004c1a38038062004c1a83398181016040528101906200002991906200011b565b336000806101000a81548173ffffffffffffffffffffffffffffffffffffffff021916908373ffffffffffffffffffffffffffffffffffffffff16021790555080600160006101000a81548173ffffffffffffffffffffffffffffffffffffffff021916908373ffffffffffffffffffffffffffffffffffffffff160217905550506200014d565b600080fd5b600073ffffffffffffffffffffffffffffffffffffffff82169050919050565b6000620000e382620000b6565b9050919050565b620000f581620000d6565b81146200010157600080fd5b50565b6000815190506200011581620000ea565b92915050565b600060208284031215620001345762000133620000b1565b5b6000620001448482850162000104565b91505092915050565b614abd806200015d6000396000f3fe6080604052600436106101805760003560e01c806385bf206a116100d1578063cfc4659f1161008a578063e498bae111610064578063e498bae114610642578063f13dfc2b1461067f578063fd17ec1c146106bc578063fee01177146106f957610180565b8063cfc4659f1461058b578063dd5d16a4146105c8578063deb233f01461060557610180565b806385bf206a14610445578063992515b01461046e5780639a6e238f146104ab578063ac13fe33146104d4578063b57e26f014610511578063c0a980a51461054e57610180565b80635f4080e41161013e578063689f552b11610118578063689f552b146103635780637d385593146103a05780637dc0d1d0146103dd57806384a822691461040857610180565b80635f4080e4146102be578063607f2412146102fb578063668aa8241461033857610180565b8062bffdac1461018557806301347c14146101c25780632d56657d146101eb5780632de190e914610228578063474502d8146102655780634844f367146102a2575b600080fd5b34801561019157600080fd5b506101ac60048036038101906101a791906132a7565b610724565b6040516101b991906134f5565b60405180910390f35b3480156101ce57600080fd5b506101e960048036038101906101e49190613695565b610925565b005b3480156101f757600080fd5b50610212600480360381019061020d91906137bb565b610eb6565b60405161021f91906134f5565b60405180910390f35b34801561023457600080fd5b5061024f600480360381019061024a91906132a7565b6110d8565b60405161025c9190613803565b60405180910390f35b34801561027157600080fd5b5061028c600480360381019061028791906132a7565b61110e565b60405161029991906139f4565b60405180910390f35b6102bc60048036038101906102b79190613a16565b61151f565b005b3480156102ca57600080fd5b506102e560048036038101906102e091906132a7565b611b64565b6040516102f29190613b8d565b60405180910390f35b34801561030757600080fd5b50610322600480360381019061031d9190613baf565b611d90565b60405161032f9190613c26565b60405180910390f35b34801561034457600080fd5b5061034d611e3c565b60405161035a9190613c57565b60405180910390f35b34801561036f57600080fd5b5061038a600480360381019061038591906132a7565b611e42565b6040516103979190613c57565b60405180910390f35b3480156103ac57600080fd5b506103c760048036038101906103c29190613c72565b611e70565b6040516103d49190613c57565b60405180910390f35b3480156103e957600080fd5b506103f2611ece565b6040516103ff9190613d0c565b60405180910390f35b34801561041457600080fd5b5061042f600480360381019061042a91906132a7565b611ef4565b60405161043c9190613d48565b60405180910390f35b34801561045157600080fd5b5061046c600480360381019061046791906132a7565b611f3d565b005b34801561047a57600080fd5b50610495600480360381019061049091906132a7565b61263d565b6040516104a29190613d0c565b60405180910390f35b3480156104b757600080fd5b506104d260048036038101906104cd9190613a16565b612686565b005b3480156104e057600080fd5b506104fb60048036038101906104f691906132a7565b612884565b6040516105089190613d72565b60405180910390f35b34801561051d57600080fd5b5061053860048036038101906105339190613d8d565b6128c1565b6040516105459190613c57565b60405180910390f35b34801561055a57600080fd5b50610575600480360381019061057091906132a7565b6128fc565b6040516105829190613c26565b60405180910390f35b34801561059757600080fd5b506105b260048036038101906105ad91906132a7565b6129b2565b6040516105bf9190613803565b60405180910390f35b3480156105d457600080fd5b506105ef60048036038101906105ea9190613d8d565b6129e8565b6040516105fc9190613803565b60405180910390f35b34801561061157600080fd5b5061062c600480360381019061062791906132a7565b612a2d565b6040516106399190613c57565b60405180910390f35b34801561064e57600080fd5b5061066960048036038101906106649190613a16565b612a5b565b6040516106769190613c57565b60405180910390f35b34801561068b57600080fd5b506106a660048036038101906106a191906132a7565b612aac565b6040516106b39190613c57565b60405180910390f35b3480156106c857600080fd5b506106e360048036038101906106de91906132a7565b612ada565b6040516106f09190613d72565b60405180910390f35b34801561070557600080fd5b5061070e612b17565b60405161071b9190613fa1565b60405180910390f35b60606011826040516107369190613fff565b9081526020016040518091039020805480602002602001604051908101604052809291908181526020016000905b8282101561091a578382906000526020600020906004020160405180608001604052908160008201805461079790614045565b80601f01602080910402602001604051908101604052809291908181526020018280546107c390614045565b80156108105780601f106107e557610100808354040283529160200191610810565b820191906000526020600020905b8154815290600101906020018083116107f357829003601f168201915b505050505081526020016001820160009054906101000a900473ffffffffffffffffffffffffffffffffffffffff1673ffffffffffffffffffffffffffffffffffffffff1673ffffffffffffffffffffffffffffffffffffffff16815260200160028201805461087f90614045565b80601f01602080910402602001604051908101604052809291908181526020018280546108ab90614045565b80156108f85780601f106108cd576101008083540402835291602001916108f8565b820191906000526020600020905b8154815290600101906020018083116108db57829003601f168201915b5050505050815260200160038201548152505081526020019060010190610764565b505050509050919050565b60008851118015610937575060018651115b801561094c5750428567ffffffffffffffff16115b8015610959575060148311155b801561097257506001606461096e91906140a5565b8410155b80156109a757506003886040516109899190613fff565b908152602001604051809103902060009054906101000a900460ff16155b6109e6576040517f08c379a00000000000000000000000000000000000000000000000000000000081526004016109dd9061414b565b60405180910390fd5b600288908060018154018082558091505060019003906000526020600020016000909190919091509081610a1a9190614317565b506001600389604051610a2d9190613fff565b908152602001604051809103902060006101000a81548160ff02191690831515021790555033600689604051610a639190613fff565b908152602001604051809103902060006101000a81548173ffffffffffffffffffffffffffffffffffffffff021916908373ffffffffffffffffffffffffffffffffffffffff16021790555084600489604051610ac09190613fff565b908152602001604051809103902060006101000a81548167ffffffffffffffff021916908367ffffffffffffffff16021790555062278d0085610b0391906143e9565b600589604051610b139190613fff565b908152602001604051809103902060006101000a81548167ffffffffffffffff021916908367ffffffffffffffff16021790555083600989604051610b589190613fff565b908152602001604051809103902081905550826064610b779190614454565b600889604051610b879190613fff565b90815260200160405180910390208190555080600789604051610baa9190613fff565b908152602001604051809103902060006101000a81548173ffffffffffffffffffffffffffffffffffffffff021916908373ffffffffffffffffffffffffffffffffffffffff16021790555085600f89604051610c079190613fff565b90815260200160405180910390209080519060200190610c28929190612fe4565b506040518061014001604052808981526020018881526020018781526020018667ffffffffffffffff1681526020018581526020018481526020018381526020018273ffffffffffffffffffffffffffffffffffffffff16815260200160001515815260200160405180602001604052806000815250815250600e89604051610cb19190613fff565b90815260200160405180910390206000820151816000019081610cd49190614317565b506020820151816001019081610cea9190614317565b506040820151816002019080519060200190610d07929190612fe4565b5060608201518160030160006101000a81548167ffffffffffffffff021916908367ffffffffffffffff1602179055506080820151816004015560a0820151816005015560c0820151816006019081610d609190614317565b5060e08201518160070160006101000a81548173ffffffffffffffffffffffffffffffffffffffff021916908373ffffffffffffffffffffffffffffffffffffffff1602179055506101008201518160070160146101000a81548160ff021916908315150217905550610120820151816008019081610ddf9190614317565b5090505060005b8651811015610e5c576000600b8a604051610e019190613fff565b9081526020016040518091039020888381518110610e2257610e21614485565b5b6020026020010151604051610e379190613fff565b9081526020016040518091039020819055508080610e54906144b4565b915050610de6565b5087604051610e6b9190613fff565b60405180910390207fb1bcc673ab0845d61da71f0162df55efb4045dc9ced8906cfe5aa3a651c3be798389604051610ea49291906144fc565b60405180910390a25050505050505050565b6060601060008373ffffffffffffffffffffffffffffffffffffffff1673ffffffffffffffffffffffffffffffffffffffff168152602001908152602001600020805480602002602001604051908101604052809291908181526020016000905b828210156110cd5783829060005260206000209060040201604051806080016040529081600082018054610f4a90614045565b80601f0160208091040260200160405190810160405280929190818152602001828054610f7690614045565b8015610fc35780601f10610f9857610100808354040283529160200191610fc3565b820191906000526020600020905b815481529060010190602001808311610fa657829003601f168201915b505050505081526020016001820160009054906101000a900473ffffffffffffffffffffffffffffffffffffffff1673ffffffffffffffffffffffffffffffffffffffff1673ffffffffffffffffffffffffffffffffffffffff16815260200160028201805461103290614045565b80601f016020809104026020016040519081016040528092919081815260200182805461105e90614045565b80156110ab5780601f10611080576101008083540402835291602001916110ab565b820191906000526020600020905b81548152906001019060200180831161108e57829003601f168201915b5050505050815260200160038201548152505081526020019060010190610f17565b505050509050919050565b6003818051602081018201805184825260208301602085012081835280955050505050506000915054906101000a900460ff1681565b61111661303d565b600e826040516111269190613fff565b90815260200160405180910390206040518061014001604052908160008201805461115090614045565b80601f016020809104026020016040519081016040528092919081815260200182805461117c90614045565b80156111c95780601f1061119e576101008083540402835291602001916111c9565b820191906000526020600020905b8154815290600101906020018083116111ac57829003601f168201915b505050505081526020016001820180546111e290614045565b80601f016020809104026020016040519081016040528092919081815260200182805461120e90614045565b801561125b5780601f106112305761010080835404028352916020019161125b565b820191906000526020600020905b81548152906001019060200180831161123e57829003601f168201915b5050505050815260200160028201805480602002602001604051908101604052809291908181526020016000905b828210156113355783829060005260206000200180546112a890614045565b80601f01602080910402602001604051908101604052809291908181526020018280546112d490614045565b80156113215780601f106112f657610100808354040283529160200191611321565b820191906000526020600020905b81548152906001019060200180831161130457829003601f168201915b505050505081526020019060010190611289565b5050505081526020016003820160009054906101000a900467ffffffffffffffff1667ffffffffffffffff1667ffffffffffffffff168152602001600482015481526020016005820154815260200160068201805461139390614045565b80601f01602080910402602001604051908101604052809291908181526020018280546113bf90614045565b801561140c5780601f106113e15761010080835404028352916020019161140c565b820191906000526020600020905b8154815290600101906020018083116113ef57829003601f168201915b505050505081526020016007820160009054906101000a900473ffffffffffffffffffffffffffffffffffffffff1673ffffffffffffffffffffffffffffffffffffffff1673ffffffffffffffffffffffffffffffffffffffff1681526020016007820160149054906101000a900460ff1615151515815260200160088201805461149690614045565b80601f01602080910402602001604051908101604052809291908181526020018280546114c290614045565b801561150f5780601f106114e45761010080835404028352916020019161150f565b820191906000526020600020905b8154815290600101906020018083116114f257829003601f168201915b5050505050815250509050919050565b60038260405161152f9190613fff565b908152602001604051809103902060009054906101000a900460ff16801561158057506013826040516115629190613fff565b908152602001604051809103902060009054906101000a900460ff16155b80156115c85750426004836040516115989190613fff565b908152602001604051809103902060009054906101000a900467ffffffffffffffff1667ffffffffffffffff1610155b611607576040517f08c379a00000000000000000000000000000000000000000000000000000000081526004016115fe906145a5565b60405180910390fd5b60003490506000825111801561163b57506009836040516116289190613fff565b9081526020016040518091039020543410155b61167a576040517f08c379a000000000000000000000000000000000000000000000000000000000815260040161167190614637565b60405180910390fd5b6064816116879190614657565b905080600b8460405161169a9190613fff565b9081526020016040518091039020836040516116b69190613fff565b908152602001604051809103902060008282546116d391906140a5565b9250508190555080600c846040516116eb9190613fff565b908152602001604051809103902060003373ffffffffffffffffffffffffffffffffffffffff1673ffffffffffffffffffffffffffffffffffffffff168152602001908152602001600020600082825461174591906140a5565b9250508190555080600a8460405161175d9190613fff565b9081526020016040518091039020600082825461177a91906140a5565b92505081905550806012846040516117929190613fff565b908152602001604051809103902060003373ffffffffffffffffffffffffffffffffffffffff1673ffffffffffffffffffffffffffffffffffffffff168152602001908152602001600020836040516117eb9190613fff565b9081526020016040518091039020600082825461180891906140a5565b92505081905550601060003373ffffffffffffffffffffffffffffffffffffffff1673ffffffffffffffffffffffffffffffffffffffff16815260200190815260200160002060405180608001604052808581526020013373ffffffffffffffffffffffffffffffffffffffff16815260200184815260200183815250908060018154018082558091505060019003906000526020600020906004020160009091909190915060008201518160000190816118c39190614317565b5060208201518160010160006101000a81548173ffffffffffffffffffffffffffffffffffffffff021916908373ffffffffffffffffffffffffffffffffffffffff16021790555060408201518160020190816119209190614317565b5060608201518160030155505060118360405161193d9190613fff565b908152602001604051809103902060405180608001604052808581526020013373ffffffffffffffffffffffffffffffffffffffff16815260200184815260200183815250908060018154018082558091505060019003906000526020600020906004020160009091909190915060008201518160000190816119c09190614317565b5060208201518160010160006101000a81548173ffffffffffffffffffffffffffffffffffffffff021916908373ffffffffffffffffffffffffffffffffffffffff1602179055506040820151816002019081611a1d9190614317565b5060608201518160030155505060008060009054906101000a900473ffffffffffffffffffffffffffffffffffffffff1673ffffffffffffffffffffffffffffffffffffffff166064604051611a72906146bc565b60006040518083038185875af1925050503d8060008114611aaf576040519150601f19603f3d011682016040523d82523d6000602084013e611ab4565b606091505b5050905080611af8576040517f08c379a0000000000000000000000000000000000000000000000000000000008152600401611aef90614743565b60405180910390fd5b83604051611b069190613fff565b60405180910390203373ffffffffffffffffffffffffffffffffffffffff167fcd230f7e44a2186de0bb3cf7714b1b492610b841c89ca3dcbd5b1333a3ec18e18686604051611b569291906144fc565b60405180910390a350505050565b60606000600f83604051611b789190613fff565b90815260200160405180910390208054905067ffffffffffffffff811115611ba357611ba261317c565b5b604051908082528060200260200182016040528015611bdc57816020015b611bc96130b2565b815260200190600190039081611bc15790505b50905060005b600f84604051611bf29190613fff565b908152602001604051809103902080549050811015611d86576040518060400160405280600f86604051611c269190613fff565b90815260200160405180910390208381548110611c4657611c45614485565b5b906000526020600020018054611c5b90614045565b80601f0160208091040260200160405190810160405280929190818152602001828054611c8790614045565b8015611cd45780601f10611ca957610100808354040283529160200191611cd4565b820191906000526020600020905b815481529060010190602001808311611cb757829003601f168201915b50505050508152602001600b86604051611cee9190613fff565b9081526020016040518091039020600f87604051611d0c9190613fff565b90815260200160405180910390208481548110611d2c57611d2b614485565b5b90600052602060002001604051611d4391906147e6565b908152602001604051809103902054815250828281518110611d6857611d67614485565b5b60200260200101819052508080611d7e906144b4565b915050611be2565b5080915050919050565b60028181548110611da057600080fd5b906000526020600020016000915090508054611dbb90614045565b80601f0160208091040260200160405190810160405280929190818152602001828054611de790614045565b8015611e345780601f10611e0957610100808354040283529160200191611e34565b820191906000526020600020905b815481529060010190602001808311611e1757829003601f168201915b505050505081565b600d5481565b6008818051602081018201805184825260208301602085012081835280955050505050506000915090505481565b6012838051602081018201805184825260208301602085012081835280955050505050506020528160005260406000208180516020810182018051848252602083016020850120818352809550505050505060009250925050505481565b600160009054906101000a900473ffffffffffffffffffffffffffffffffffffffff1681565b6006818051602081018201805184825260208301602085012081835280955050505050506000915054906101000a900473ffffffffffffffffffffffffffffffffffffffff1681565b60004262069780600584604051611f549190613fff565b908152602001604051809103902060009054906101000a900467ffffffffffffffff16611f8191906143e9565b67ffffffffffffffff16109050601382604051611f9e9190613fff565b908152602001604051809103902060009054906101000a900460ff1680611fc25750805b80156120345750601582604051611fd99190613fff565b908152602001604051809103902060003373ffffffffffffffffffffffffffffffffffffffff1673ffffffffffffffffffffffffffffffffffffffff16815260200190815260200160002060009054906101000a900460ff16155b801561209c57506000600c8360405161204d9190613fff565b908152602001604051809103902060003373ffffffffffffffffffffffffffffffffffffffff1673ffffffffffffffffffffffffffffffffffffffff1681526020019081526020016000205414155b6120db576040517f08c379a00000000000000000000000000000000000000000000000000000000081526004016120d29061486f565b60405180910390fd5b60016015836040516120ed9190613fff565b908152602001604051809103902060003373ffffffffffffffffffffffffffffffffffffffff1673ffffffffffffffffffffffffffffffffffffffff16815260200190815260200160002060006101000a81548160ff02191690831515021790555060006014836040516121619190613fff565b9081526020016040518091039020805461217a90614045565b80601f01602080910402602001604051908101604052809291908181526020018280546121a690614045565b80156121f35780601f106121c8576101008083540402835291602001916121f3565b820191906000526020600020905b8154815290600101906020018083116121d657829003601f168201915b50505050509050600060128460405161220c9190613fff565b908152602001604051809103902060003373ffffffffffffffffffffffffffffffffffffffff1673ffffffffffffffffffffffffffffffffffffffff168152602001908152602001600020826040516122659190613fff565b90815260200160405180910390205490506000600b856040516122889190613fff565b9081526020016040518091039020836040516122a49190613fff565b9081526020016040518091039020549050600080820361236457600c866040516122ce9190613fff565b908152602001604051809103902060003373ffffffffffffffffffffffffffffffffffffffff1673ffffffffffffffffffffffffffffffffffffffff1681526020019081526020016000205490503373ffffffffffffffffffffffffffffffffffffffff167fd062202474cb0be44012226d41105de1db85c69c417fbc111907fcbb25a44aa560405160405180910390a2612460565b6000831461241257600082600a8860405161237f9190613fff565b9081526020016040518091039020546123989190614657565b90508284826123a7919061488f565b6123b19190614454565b846123bc91906140a5565b91503373ffffffffffffffffffffffffffffffffffffffff167fe60bab41c59bb7b8da014b17716e6924f66553ddd1751db88bfa8d831fb3b7b5836040516124049190613c57565b60405180910390a25061245f565b3373ffffffffffffffffffffffffffffffffffffffff167f111af70af2304203f6ba46b1d8b86b412f7a22d454c779f8c526df94a3c56e2e60405160405180910390a2505050505061263a565b5b60006008876040516124729190613fff565b9081526020016040518091039020548261248c9190614454565b9050808261249a9190614657565b915060003373ffffffffffffffffffffffffffffffffffffffff16836040516124c2906146bc565b60006040518083038185875af1925050503d80600081146124ff576040519150601f19603f3d011682016040523d82523d6000602084013e612504565b606091505b5050905080612548576040517f08c379a000000000000000000000000000000000000000000000000000000000815260040161253f90614943565b60405180910390fd5b6006886040516125589190613fff565b908152602001604051809103902060009054906101000a900473ffffffffffffffffffffffffffffffffffffffff1673ffffffffffffffffffffffffffffffffffffffff16826040516125aa906146bc565b60006040518083038185875af1925050503d80600081146125e7576040519150601f19603f3d011682016040523d82523d6000602084013e6125ec565b606091505b50508091505080612632576040517f08c379a0000000000000000000000000000000000000000000000000000000008152600401612629906149d5565b60405180910390fd5b505050505050505b50565b6007818051602081018201805184825260208301602085012081835280955050505050506000915054906101000a900473ffffffffffffffffffffffffffffffffffffffff1681565b6007826040516126969190613fff565b908152602001604051809103902060009054906101000a900473ffffffffffffffffffffffffffffffffffffffff1673ffffffffffffffffffffffffffffffffffffffff163373ffffffffffffffffffffffffffffffffffffffff16148015612728575060138260405161270a9190613fff565b908152602001604051809103902060009054906101000a900460ff16155b612767576040517f08c379a000000000000000000000000000000000000000000000000000000000815260040161275e90614a67565b60405180910390fd5b806014836040516127789190613fff565b908152602001604051809103902090816127929190614317565b5060016013836040516127a59190613fff565b908152602001604051809103902060006101000a81548160ff0219169083151502179055506001600e836040516127dc9190613fff565b908152602001604051809103902060070160146101000a81548160ff02191690831515021790555080600e836040516128159190613fff565b908152602001604051809103902060080190816128329190614317565b50816040516128419190613fff565b60405180910390207f9ebd80a0396fbf9d3cfaaba17ab4290390777c1f29bef764b78b7845acaa1461826040516128789190613c26565b60405180910390a25050565b6005818051602081018201805184825260208301602085012081835280955050505050506000915054906101000a900467ffffffffffffffff1681565b600c82805160208101820180518482526020830160208501208183528095505050505050602052806000526040600020600091509150505481565b601481805160208101820180518482526020830160208501208183528095505050505050600091509050805461293190614045565b80601f016020809104026020016040519081016040528092919081815260200182805461295d90614045565b80156129aa5780601f1061297f576101008083540402835291602001916129aa565b820191906000526020600020905b81548152906001019060200180831161298d57829003601f168201915b505050505081565b6013818051602081018201805184825260208301602085012081835280955050505050506000915054906101000a900460ff1681565b6015828051602081018201805184825260208301602085012081835280955050505050506020528060005260406000206000915091509054906101000a900460ff1681565b600a818051602081018201805184825260208301602085012081835280955050505050506000915090505481565b600b8280516020810182018051848252602083016020850120818352809550505050505081805160208101820180518482526020830160208501208183528095505050505050600091509150505481565b6009818051602081018201805184825260208301602085012081835280955050505050506000915090505481565b6004818051602081018201805184825260208301602085012081835280955050505050506000915054906101000a900467ffffffffffffffff1681565b6060600060028054905067ffffffffffffffff811115612b3a57612b3961317c565b5b604051908082528060200260200182016040528015612b7357816020015b612b6061303d565b815260200190600190039081612b585790505b50905060005b600280549050811015612fdc576000600e60028381548110612b9e57612b9d614485565b5b90600052602060002001604051612bb591906147e6565b908152602001604051809103902090508060405180610140016040529081600082018054612be290614045565b80601f0160208091040260200160405190810160405280929190818152602001828054612c0e90614045565b8015612c5b5780601f10612c3057610100808354040283529160200191612c5b565b820191906000526020600020905b815481529060010190602001808311612c3e57829003601f168201915b50505050508152602001600182018054612c7490614045565b80601f0160208091040260200160405190810160405280929190818152602001828054612ca090614045565b8015612ced5780601f10612cc257610100808354040283529160200191612ced565b820191906000526020600020905b815481529060010190602001808311612cd057829003601f168201915b5050505050815260200160028201805480602002602001604051908101604052809291908181526020016000905b82821015612dc7578382906000526020600020018054612d3a90614045565b80601f0160208091040260200160405190810160405280929190818152602001828054612d6690614045565b8015612db35780601f10612d8857610100808354040283529160200191612db3565b820191906000526020600020905b815481529060010190602001808311612d9657829003601f168201915b505050505081526020019060010190612d1b565b5050505081526020016003820160009054906101000a900467ffffffffffffffff1667ffffffffffffffff1667ffffffffffffffff1681526020016004820154815260200160058201548152602001600682018054612e2590614045565b80601f0160208091040260200160405190810160405280929190818152602001828054612e5190614045565b8015612e9e5780601f10612e7357610100808354040283529160200191612e9e565b820191906000526020600020905b815481529060010190602001808311612e8157829003601f168201915b505050505081526020016007820160009054906101000a900473ffffffffffffffffffffffffffffffffffffffff1673ffffffffffffffffffffffffffffffffffffffff1673ffffffffffffffffffffffffffffffffffffffff1681526020016007820160149054906101000a900460ff16151515158152602001600882018054612f2890614045565b80601f0160208091040260200160405190810160405280929190818152602001828054612f5490614045565b8015612fa15780601f10612f7657610100808354040283529160200191612fa1565b820191906000526020600020905b815481529060010190602001808311612f8457829003601f168201915b505050505081525050838381518110612fbd57612fbc614485565b5b6020026020010181905250508080612fd4906144b4565b915050612b79565b508091505090565b82805482825590600052602060002090810192821561302c579160200282015b8281111561302b57825182908161301b9190614317565b5091602001919060010190613004565b5b50905061303991906130cc565b5090565b604051806101400160405280606081526020016060815260200160608152602001600067ffffffffffffffff168152602001600081526020016000815260200160608152602001600073ffffffffffffffffffffffffffffffffffffffff168152602001600015158152602001606081525090565b604051806040016040528060608152602001600081525090565b5b808211156130ec57600081816130e391906130f0565b506001016130cd565b5090565b5080546130fc90614045565b6000825580601f1061310e575061312d565b601f01602090049060005260206000209081019061312c9190613130565b5b50565b5b80821115613149576000816000905550600101613131565b5090565b6000604051905090565b600080fd5b600080fd5b600080fd5b600080fd5b6000601f19601f8301169050919050565b7f4e487b7100000000000000000000000000000000000000000000000000000000600052604160045260246000fd5b6131b48261316b565b810181811067ffffffffffffffff821117156131d3576131d261317c565b5b80604052505050565b60006131e661314d565b90506131f282826131ab565b919050565b600067ffffffffffffffff8211156132125761321161317c565b5b61321b8261316b565b9050602081019050919050565b82818337600083830152505050565b600061324a613245846131f7565b6131dc565b90508281526020810184848401111561326657613265613166565b5b613271848285613228565b509392505050565b600082601f83011261328e5761328d613161565b5b813561329e848260208601613237565b91505092915050565b6000602082840312156132bd576132bc613157565b5b600082013567ffffffffffffffff8111156132db576132da61315c565b5b6132e784828501613279565b91505092915050565b600081519050919050565b600082825260208201905092915050565b6000819050602082019050919050565b600081519050919050565b600082825260208201905092915050565b60005b8381101561335657808201518184015260208101905061333b565b60008484015250505050565b600061336d8261331c565b6133778185613327565b9350613387818560208601613338565b6133908161316b565b840191505092915050565b600073ffffffffffffffffffffffffffffffffffffffff82169050919050565b60006133c68261339b565b9050919050565b6133d6816133bb565b82525050565b6000819050919050565b6133ef816133dc565b82525050565b600060808301600083015184820360008601526134128282613362565b915050602083015161342760208601826133cd565b506040830151848203604086015261343f8282613362565b915050606083015161345460608601826133e6565b508091505092915050565b600061346b83836133f5565b905092915050565b6000602082019050919050565b600061348b826132f0565b61349581856132fb565b9350836020820285016134a78561330c565b8060005b858110156134e357848403895281516134c4858261345f565b94506134cf83613473565b925060208a019950506001810190506134ab565b50829750879550505050505092915050565b6000602082019050818103600083015261350f8184613480565b905092915050565b600067ffffffffffffffff8211156135325761353161317c565b5b602082029050602081019050919050565b600080fd5b600061355b61355684613517565b6131dc565b9050808382526020820190506020840283018581111561357e5761357d613543565b5b835b818110156135c557803567ffffffffffffffff8111156135a3576135a2613161565b5b8086016135b08982613279565b85526020850194505050602081019050613580565b5050509392505050565b600082601f8301126135e4576135e3613161565b5b81356135f4848260208601613548565b91505092915050565b600067ffffffffffffffff82169050919050565b61361a816135fd565b811461362557600080fd5b50565b60008135905061363781613611565b92915050565b613646816133dc565b811461365157600080fd5b50565b6000813590506136638161363d565b92915050565b613672816133bb565b811461367d57600080fd5b50565b60008135905061368f81613669565b92915050565b600080600080600080600080610100898b0312156136b6576136b5613157565b5b600089013567ffffffffffffffff8111156136d4576136d361315c565b5b6136e08b828c01613279565b985050602089013567ffffffffffffffff8111156137015761370061315c565b5b61370d8b828c01613279565b975050604089013567ffffffffffffffff81111561372e5761372d61315c565b5b61373a8b828c016135cf565b965050606061374b8b828c01613628565b955050608061375c8b828c01613654565b94505060a061376d8b828c01613654565b93505060c089013567ffffffffffffffff81111561378e5761378d61315c565b5b61379a8b828c01613279565b92505060e06137ab8b828c01613680565b9150509295985092959890939650565b6000602082840312156137d1576137d0613157565b5b60006137df84828501613680565b91505092915050565b60008115159050919050565b6137fd816137e8565b82525050565b600060208201905061381860008301846137f4565b92915050565b600081519050919050565b600082825260208201905092915050565b6000819050602082019050919050565b60006138568383613362565b905092915050565b6000602082019050919050565b60006138768261381e565b6138808185613829565b9350836020820285016138928561383a565b8060005b858110156138ce57848403895281516138af858261384a565b94506138ba8361385e565b925060208a01995050600181019050613896565b50829750879550505050505092915050565b6138e9816135fd565b82525050565b6138f8816137e8565b82525050565b600061014083016000830151848203600086015261391c8282613362565b915050602083015184820360208601526139368282613362565b91505060408301518482036040860152613950828261386b565b915050606083015161396560608601826138e0565b50608083015161397860808601826133e6565b5060a083015161398b60a08601826133e6565b5060c083015184820360c08601526139a38282613362565b91505060e08301516139b860e08601826133cd565b506101008301516139cd6101008601826138ef565b506101208301518482036101208601526139e78282613362565b9150508091505092915050565b60006020820190508181036000830152613a0e81846138fe565b905092915050565b60008060408385031215613a2d57613a2c613157565b5b600083013567ffffffffffffffff811115613a4b57613a4a61315c565b5b613a5785828601613279565b925050602083013567ffffffffffffffff811115613a7857613a7761315c565b5b613a8485828601613279565b9150509250929050565b600081519050919050565b600082825260208201905092915050565b6000819050602082019050919050565b60006040830160008301518482036000860152613ad78282613362565b9150506020830151613aec60208601826133e6565b508091505092915050565b6000613b038383613aba565b905092915050565b6000602082019050919050565b6000613b2382613a8e565b613b2d8185613a99565b935083602082028501613b3f85613aaa565b8060005b85811015613b7b5784840389528151613b5c8582613af7565b9450613b6783613b0b565b925060208a01995050600181019050613b43565b50829750879550505050505092915050565b60006020820190508181036000830152613ba78184613b18565b905092915050565b600060208284031215613bc557613bc4613157565b5b6000613bd384828501613654565b91505092915050565b600082825260208201905092915050565b6000613bf88261331c565b613c028185613bdc565b9350613c12818560208601613338565b613c1b8161316b565b840191505092915050565b60006020820190508181036000830152613c408184613bed565b905092915050565b613c51816133dc565b82525050565b6000602082019050613c6c6000830184613c48565b92915050565b600080600060608486031215613c8b57613c8a613157565b5b600084013567ffffffffffffffff811115613ca957613ca861315c565b5b613cb586828701613279565b9350506020613cc686828701613680565b925050604084013567ffffffffffffffff811115613ce757613ce661315c565b5b613cf386828701613279565b9150509250925092565b613d06816133bb565b82525050565b6000602082019050613d216000830184613cfd565b92915050565b6000613d328261339b565b9050919050565b613d4281613d27565b82525050565b6000602082019050613d5d6000830184613d39565b92915050565b613d6c816135fd565b82525050565b6000602082019050613d876000830184613d63565b92915050565b60008060408385031215613da457613da3613157565b5b600083013567ffffffffffffffff811115613dc257613dc161315c565b5b613dce85828601613279565b9250506020613ddf85828601613680565b9150509250929050565b600081519050919050565b600082825260208201905092915050565b6000819050602082019050919050565b6000610140830160008301518482036000860152613e338282613362565b91505060208301518482036020860152613e4d8282613362565b91505060408301518482036040860152613e67828261386b565b9150506060830151613e7c60608601826138e0565b506080830151613e8f60808601826133e6565b5060a0830151613ea260a08601826133e6565b5060c083015184820360c0860152613eba8282613362565b91505060e0830151613ecf60e08601826133cd565b50610100830151613ee46101008601826138ef565b50610120830151848203610120860152613efe8282613362565b9150508091505092915050565b6000613f178383613e15565b905092915050565b6000602082019050919050565b6000613f3782613de9565b613f418185613df4565b935083602082028501613f5385613e05565b8060005b85811015613f8f5784840389528151613f708582613f0b565b9450613f7b83613f1f565b925060208a01995050600181019050613f57565b50829750879550505050505092915050565b60006020820190508181036000830152613fbb8184613f2c565b905092915050565b600081905092915050565b6000613fd98261331c565b613fe38185613fc3565b9350613ff3818560208601613338565b80840191505092915050565b600061400b8284613fce565b915081905092915050565b7f4e487b7100000000000000000000000000000000000000000000000000000000600052602260045260246000fd5b6000600282049050600182168061405d57607f821691505b6020821081036140705761406f614016565b5b50919050565b7f4e487b7100000000000000000000000000000000000000000000000000000000600052601160045260246000fd5b60006140b0826133dc565b91506140bb836133dc565b92508282019050808211156140d3576140d2614076565b5b92915050565b7f556e61626c6520746f2063726561746520746f7069632c20636865636b20617260008201527f67756d656e74732e000000000000000000000000000000000000000000000000602082015250565b6000614135602883613bdc565b9150614140826140d9565b604082019050919050565b6000602082019050818103600083015261416481614128565b9050919050565b60008190508160005260206000209050919050565b60006020601f8301049050919050565b600082821b905092915050565b6000600883026141cd7fffffffffffffffffffffffffffffffffffffffffffffffffffffffffffffffff82614190565b6141d78683614190565b95508019841693508086168417925050509392505050565b6000819050919050565b600061421461420f61420a846133dc565b6141ef565b6133dc565b9050919050565b6000819050919050565b61422e836141f9565b61424261423a8261421b565b84845461419d565b825550505050565b600090565b61425761424a565b614262818484614225565b505050565b5b818110156142865761427b60008261424f565b600181019050614268565b5050565b601f8211156142cb5761429c8161416b565b6142a584614180565b810160208510156142b4578190505b6142c86142c085614180565b830182614267565b50505b505050565b600082821c905092915050565b60006142ee600019846008026142d0565b1980831691505092915050565b600061430783836142dd565b9150826002028217905092915050565b6143208261331c565b67ffffffffffffffff8111156143395761433861317c565b5b6143438254614045565b61434e82828561428a565b600060209050601f831160018114614381576000841561436f578287015190505b61437985826142fb565b8655506143e1565b601f19841661438f8661416b565b60005b828110156143b757848901518255600182019150602085019450602081019050614392565b868310156143d457848901516143d0601f8916826142dd565b8355505b6001600288020188555050505b505050505050565b60006143f4826135fd565b91506143ff836135fd565b9250828201905067ffffffffffffffff81111561441f5761441e614076565b5b92915050565b7f4e487b7100000000000000000000000000000000000000000000000000000000600052601260045260246000fd5b600061445f826133dc565b915061446a836133dc565b92508261447a57614479614425565b5b828204905092915050565b7f4e487b7100000000000000000000000000000000000000000000000000000000600052603260045260246000fd5b60006144bf826133dc565b91507fffffffffffffffffffffffffffffffffffffffffffffffffffffffffffffffff82036144f1576144f0614076565b5b600182019050919050565b600060408201905081810360008301526145168185613bed565b9050818103602083015261452a8184613bed565b90509392505050565b7f556e61626c6520746f20706c61636520626574732c20636865636b206172677560008201527f6d656e74732e0000000000000000000000000000000000000000000000000000602082015250565b600061458f602683613bdc565b915061459a82614533565b604082019050919050565b600060208201905081810360008301526145be81614582565b9050919050565b7f417474656d7074656420746f20706c61636520696e76616c6964206265742c2060008201527f636865636b20616d6f756e747320616e6420726573756c747300000000000000602082015250565b6000614621603983613bdc565b915061462c826145c5565b604082019050919050565b6000602082019050818103600083015261465081614614565b9050919050565b6000614662826133dc565b915061466d836133dc565b925082820390508181111561468557614684614076565b5b92915050565b600081905092915050565b50565b60006146a660008361468b565b91506146b182614696565b600082019050919050565b60006146c782614699565b9150819050919050565b7f4661696c656420746f207472616e7366657220666978656420636f6d6d69737360008201527f696f6e20746f20636f6e74726163742063726561746f722e0000000000000000602082015250565b600061472d603883613bdc565b9150614738826146d1565b604082019050919050565b6000602082019050818103600083015261475c81614720565b9050919050565b6000815461477081614045565b61477a8186613fc3565b9450600182166000811461479557600181146147aa576147dd565b60ff19831686528115158202860193506147dd565b6147b38561416b565b60005b838110156147d5578154818901526001820191506020810190506147b6565b838801955050505b50505092915050565b60006147f28284614763565b915081905092915050565b7f496e76616c696420626574207374617465207768696c6520636c61696d696e6760008201527f207265776172642e000000000000000000000000000000000000000000000000602082015250565b6000614859602883613bdc565b9150614864826147fd565b604082019050919050565b600060208201905081810360008301526148888161484c565b9050919050565b600061489a826133dc565b91506148a5836133dc565b92508282026148b3816133dc565b915082820484148315176148ca576148c9614076565b5b5092915050565b7f4661696c656420746f207472616e736665722072657761726420746f2075736560008201527f722e000000000000000000000000000000000000000000000000000000000000602082015250565b600061492d602283613bdc565b9150614938826148d1565b604082019050919050565b6000602082019050818103600083015261495c81614920565b9050919050565b7f4661696c656420746f207472616e7366657220636f6d6d697373696f6e20746f60008201527f20626574206f776e65722e000000000000000000000000000000000000000000602082015250565b60006149bf602b83613bdc565b91506149ca82614963565b604082019050919050565b600060208201905081810360008301526149ee816149b2565b9050919050565b7f6f6e6c79206f7261636c652063616e207265706f72742074686520726573756c60008201527f7400000000000000000000000000000000000000000000000000000000000000602082015250565b6000614a51602183613bdc565b9150614a5c826149f5565b604082019050919050565b60006020820190508181036000830152614a8081614a44565b905091905056fea2646970667358221220c49228d7b5e26b4094da0428120880960df99127e0e5f44d2c680a4b3f71810364736f6c63430008110033",
  "immutableReferences": {},
  "source": "// SPDX-License-Identifier: MIT\npragma solidity 0.8.17;\npragma experimental ABIEncoderV2;\n\ncontract PredictionMarket{\n\n    address payable contractCreator;\n    address public oracle;\n\n    constructor(address _oracle) payable {\n        contractCreator = payable(msg.sender);\n        oracle = _oracle;\n    }\n\n    // Prediction Market Contract Creator reward\n    // There's a 10 wei fixed commission transferred to the contract's creator for every placed bet\n    uint256 constant fixedCommission = 100;\n    // Minimum entry for all bets, topic owners cannot set it lower than this \n    uint256 constant minimumBet = fixedCommission + 1;\n\n    // topic mappings: \n    string[] public allTopics;\n    // Keep track of all createdTopics to prevent duplicates\n    mapping(string => bool) public createdTopics;\n\n    // There are two different dates associated with each created topic:\n    // 1. deadline when a user can no longer place new bets\n    mapping(string => uint64) public topicDeadlines;\n    // 2. deadline for oracle to submit the bet's final result - fixed at 30 days after topicDeadline\n    uint64 constant scheduleThreshold = 30 * 24 * 60 * 60; \n    mapping(string => uint64) public topicSchedules;\n\n\n    // Keep track of all owners to handle commission fees\n    mapping(string => address payable) public topicOwners; \n    mapping(string => address) public topicArbitrator; \n\n    // commision related:\n    mapping(string => uint256) public topicCommissions;\n    // Custom minimum entry for each topic, set by their owner\n    mapping(string => uint256) public topicMinimum;\n\n    // Total pooled per topic\n    mapping(string => uint256) public topicPools;\n\n    // For each topic, how much is the total pooled per side; resultPools[topicID][side]\n    mapping(string => mapping(string => uint256)) public resultPools;\n    // For each topic, how much each has each user put into that topic's pool; userPools[topicID][msg.sender]\n    mapping(string => mapping(address => uint256)) public userPools;\n    \n    // query price for oracle to submit bet results\n    uint256 public oraclePrice;\n\n    // Not enough to pay for it, the user should be informed and their funds returned\n    event LackingFunds(address indexed sender, uint256 funds);\n\n    /* Contains all the information that does not need to be saved as a state variable, \n    but which can prove useful to people taking a look at the bet in the frontend. */\n    event CreatedBet(string indexed _id, string description, string query);\n\n    struct topics {\n        string id;\n        string name;\n        string[] outcomes;\n        uint64 endDate;\n        uint256 minBet;\n        uint256 comm;\n        string desc;\n        address judge;\n        bool finished;\n        string result;\n    }\n\n    // list of all topics\n    // topics[] public topicList;\n    mapping(string => topics) topicList;\n\n    mapping(string => string[]) topicSides;\n\n    struct oneBet{\n        string topicid;\n        address user;\n        string side;\n        uint256 amt;\n    }\n\n    // bets by user\n    mapping(address => oneBet[]) allBets;\n    // bets by topic\n    mapping(string => oneBet[]) allBetsByTopic;\n\n    function createTopic(string memory topicID, string memory topic, string[] memory sides, uint64 deadline, uint256 minimum, uint256 commission, string memory description, address _arbitrator) public {\n\n        require(\n            bytes(topicID).length > 0\n            && sides.length > 1\n            && deadline > block.timestamp // topic can't be set in the past\n            // && deadline <= schedule // Users should only be able to place bets before it is actually executed\n            // && schedule < block.timestamp + scheduleThreshold\n            && commission <= 20 // maximum comission is 20%\n            && minimum >= minimumBet\n            && !createdTopics[topicID], // Can't have duplicate topics\n            \"Unable to create topic, check arguments.\"\n        );\n\n        // // The remaining balance should be enough to cover the cost of the smart oracle query\n        // uint256 balance = msg.value;\n\n        // // oraclePrice = provable_getPrice(\"URL\");\n        // oraclePrice = 0;\n\n        // if (oraclePrice > balance) {\n        //     emit LackingFunds(msg.sender, oraclePrice);\n        //     (bool success, ) = msg.sender.call.value(msg.value)(\"\");\n        //     require(success, \"Error when returning funds to bet owner.\");\n        //     return;\n        // }\n\n        // Create topic\n        allTopics.push(topicID);\n        createdTopics[topicID] = true;\n        topicOwners[topicID] = payable(msg.sender);\n        topicDeadlines[topicID] = deadline;\n        topicSchedules[topicID] = deadline + scheduleThreshold;\n        topicMinimum[topicID] = minimum;\n        topicCommissions[topicID] = 100/commission;\n        topicArbitrator[topicID]= _arbitrator;\n        topicSides[topicID] = sides;\n\n        topicList[topicID] = (topics(topicID, topic, sides, deadline, minimum, commission, description, _arbitrator, false, \"\"));\n\n        // initialize the sides, set pool for each side to 0\n        for (uint i = 0; i < sides.length; i++) {\n            resultPools[topicID][sides[i]] = 0;\n        }\n\n        emit CreatedBet(topicID, description, topic);\n    }\n\n    // The table in the frontend representing each topic's pool is populated according to these events.\n    event PlacedBets(address indexed user, string indexed _id, string id, string side);\n\n    // For each bet, track how much each user has put into each side\n    mapping(string => mapping(address => mapping(string => uint256))) public userBets;\n    \n    // only allow user to bet on 1 topic and 1 side each time\n    function placeBet(string memory topicID, string memory side) public payable {\n        require(\n            createdTopics[topicID]\n            && !finishedTopics[topicID] \n            && topicDeadlines[topicID] >= block.timestamp,\n        \"Unable to place bets, check arguments.\");\n\n        uint256 bet = msg.value;\n\n        require(\n        bytes(side).length > 0 \n        && msg.value >= topicMinimum[topicID],\n        \"Attempted to place invalid bet, check amounts and results\");\n\n        bet -= fixedCommission;\n\n        // Update all required state\n        resultPools[topicID][side] += bet;\n        userPools[topicID][msg.sender] += bet;\n        topicPools[topicID] += bet;\n        userBets[topicID][msg.sender][side] += bet;\n\n        allBets[msg.sender].push(oneBet(topicID, msg.sender, side, bet));\n        allBetsByTopic[topicID].push(oneBet(topicID, msg.sender, side, bet));\n\n        // Fixed commission transfer\n        (bool success, ) = contractCreator.call{value: fixedCommission}(\"\");\n        require(success, \"Failed to transfer fixed commission to contract creator.\");\n\n        emit PlacedBets(msg.sender, topicID, topicID, side);\n    }\n\n    // Keep track of when a bet ends and what its result was\n    mapping(string => bool) public finishedTopics;\n    mapping(string => string) public topicResults;\n\n    // Emit result\n    event ReportedResult(string indexed _id, string result);\n\n    // Function executed by oracle when the topic is scheduled to close\n    function reportResult(string memory topicID, string memory result) public {\n        require(msg.sender == topicArbitrator[topicID] && !finishedTopics[topicID], 'only oracle can report the result');\n        \n        topicResults[topicID] = result;\n        finishedTopics[topicID] = true;\n        \n        topicList[topicID].finished = true;\n        topicList[topicID].result = result;\n\n        emit ReportedResult(topicID, result);\n    }\n\n    // For each bet, track which users have already claimed their potential reward\n    mapping(string => mapping(address => bool)) public claimedBets;\n    \n    /* If the oracle service's scheduled callback was not executed after 5 days, \n    a user can reclaim his funds after the bet's execution threshold has passed. \n    Note that even if the callback execution is delayed,\n    oracle should've extracted the result at the originally scheduled time. */\n    uint64 constant topicThreshold = 5 * 24 * 60 * 60;\n    \n    // If the user wins the bet, let them know along with the reward amount.\n    event WonBet(address indexed winner, uint256 won);\n    \n    // If the user lost no funds are claimable.\n    event LostBet(address indexed loser);\n    \n    /* If no one wins the bet the funds can be refunded to the user, \n    after the bet creator's takes their cut. */\n    event UnwonBet(address indexed refunded);\n    \n    function claimBet(string memory topicID) public {\n        bool topicExpired = topicSchedules[topicID] + topicThreshold < block.timestamp;\n        \n        // If the bet has not finished but its threshold has been reached, let the user get back their funds\n        require(\n            (finishedTopics[topicID] || topicExpired) \n            && !claimedBets[topicID][msg.sender] \n            && userPools[topicID][msg.sender] != 0,\n        \"Invalid bet state while claiming reward.\");\n        \n        claimedBets[topicID][msg.sender] = true;\n        \n        string memory result = topicResults[topicID];\n        uint256 userBet = userBets[topicID][msg.sender][result];\n        uint256 winnerPool = resultPools[topicID][result];\n        uint256 reward;\n        \n        if (winnerPool == 0) {\n            // If no one won then all bets are refunded\n            reward = userPools[topicID][msg.sender];\n            emit UnwonBet(msg.sender);\n        } else if (userBet != 0) {\n            // User gets their corresponding fraction of the loser's pool, along with their original bet\n            uint256 loserPool = topicPools[topicID] - winnerPool;\n            reward = userBet + loserPool * userBet / winnerPool;\n            emit WonBet(msg.sender, reward);\n        } else {\n            // User lost\n            emit LostBet(msg.sender);\n            return;\n        }\n        \n        // Bet owner gets their commission\n        uint256 ownerFee = reward / topicCommissions[topicID];\n        reward -= ownerFee;\n        (bool success, ) = msg.sender.call{value:reward}(\"\");\n        require(success, \"Failed to transfer reward to user.\");\n        (success, ) = topicOwners[topicID].call{value:ownerFee}(\"\");\n        require(success, \"Failed to transfer commission to bet owner.\");\n    }\n\n    // return all topics\n    function getTopics() public view returns (topics[] memory){\n        topics[] memory id = new topics[](allTopics.length);\n        for (uint i = 0; i < allTopics.length; i++) {\n          topics storage member = topicList[allTopics[i]];\n          id[i] = member;\n        }\n      return id;\n    }\n\n    // return one topic \n    function getTopic(string memory id) public view returns (topics memory){\n        return topicList[id];\n    }\n\n    // return all bets a user has made\n    // should address be param or message sender?\n    function getUserBets(address _user) public view returns (oneBet[] memory){\n        return allBets[_user];\n    }\n\n    // return bets by topic\n    function getBetsByTopic(string memory topicID) public view returns (oneBet[] memory){\n        return allBetsByTopic[topicID];\n    }\n\n    struct pool{\n        string side;\n        uint256 amount;\n    }\n    // get pool for a topic\n    function getTopicPool(string memory topicID) public view returns (pool[] memory){\n        pool[] memory pools = new pool[](topicSides[topicID].length);\n        \n        for (uint i = 0; i < topicSides[topicID].length; i++) {\n            pools[i] = pool(topicSides[topicID][i], resultPools[topicID][topicSides[topicID][i]]);\n        }\n\n        return pools;\n\n        /*\n        uint256[] memory amounts = new uint256[](topicSides[topicID].length);\n        for (uint i = 0; i < topicSides[topicID].length; i++) {\n          amounts[i] = resultPools[topicID][topicSides[topicID][i]];\n        }\n        return (topicSides[topicID], amounts);\n        */\n    }\n    \n\n    /*\n    // function to check if user has claimed the bet for a topic already\n\n    // function to check if user is owner of a topic\n    function isOwner(address person) public view returns (bool result){\n        topicOwners\n    }\n    */\n}\n",
  "sourcePath": "C:\\Users\\graez\\CZ4153-lilibet\\contracts\\PredictionMarket.sol",
  "compiler": {
    "name": "solc",
    "version": "0.8.17+commit.8df45f5f.Emscripten.clang"
  },
  "schemaVersion": "3.4.10",
  "updatedAt": "2022-10-14T03:02:21.250Z",
  "networkType": "ethereum",
  "devdoc": {
    "kind": "dev",
    "methods": {},
    "version": 1
  },
  "userdoc": {
    "kind": "user",
    "methods": {},
    "version": 1
  }
}