{
  "contractName": "PredictionMarket",
  "abi": [
    {
      "inputs": [
        {
          "internalType": "address",
          "name": "_oracle",
          "type": "address"
        }
      ],
      "stateMutability": "payable",
      "type": "constructor",
      "payable": true
    },
    {
      "anonymous": false,
      "inputs": [
        {
          "indexed": true,
          "internalType": "string",
          "name": "_id",
          "type": "string"
        },
        {
          "indexed": false,
          "internalType": "string",
          "name": "description",
          "type": "string"
        },
        {
          "indexed": false,
          "internalType": "string",
          "name": "query",
          "type": "string"
        }
      ],
      "name": "CreatedBet",
      "type": "event"
    },
    {
      "anonymous": false,
      "inputs": [
        {
          "indexed": true,
          "internalType": "address",
          "name": "sender",
          "type": "address"
        },
        {
          "indexed": false,
          "internalType": "uint256",
          "name": "funds",
          "type": "uint256"
        }
      ],
      "name": "LackingFunds",
      "type": "event"
    },
    {
      "anonymous": false,
      "inputs": [
        {
          "indexed": true,
          "internalType": "address",
          "name": "loser",
          "type": "address"
        }
      ],
      "name": "LostBet",
      "type": "event"
    },
    {
      "anonymous": false,
      "inputs": [
        {
          "indexed": true,
          "internalType": "address",
          "name": "user",
          "type": "address"
        },
        {
          "indexed": true,
          "internalType": "string",
          "name": "_id",
          "type": "string"
        },
        {
          "indexed": false,
          "internalType": "string",
          "name": "id",
          "type": "string"
        },
        {
          "indexed": false,
          "internalType": "string",
          "name": "side",
          "type": "string"
        }
      ],
      "name": "PlacedBets",
      "type": "event"
    },
    {
      "anonymous": false,
      "inputs": [
        {
          "indexed": true,
          "internalType": "string",
          "name": "_id",
          "type": "string"
        },
        {
          "indexed": false,
          "internalType": "string",
          "name": "result",
          "type": "string"
        }
      ],
      "name": "ReportedResult",
      "type": "event"
    },
    {
      "anonymous": false,
      "inputs": [
        {
          "indexed": true,
          "internalType": "address",
          "name": "refunded",
          "type": "address"
        }
      ],
      "name": "UnwonBet",
      "type": "event"
    },
    {
      "anonymous": false,
      "inputs": [
        {
          "indexed": true,
          "internalType": "address",
          "name": "winner",
          "type": "address"
        },
        {
          "indexed": false,
          "internalType": "uint256",
          "name": "won",
          "type": "uint256"
        }
      ],
      "name": "WonBet",
      "type": "event"
    },
    {
      "inputs": [
        {
          "internalType": "uint256",
          "name": "",
          "type": "uint256"
        }
      ],
      "name": "allTopics",
      "outputs": [
        {
          "internalType": "string",
          "name": "",
          "type": "string"
        }
      ],
      "stateMutability": "view",
      "type": "function",
      "constant": true
    },
    {
      "inputs": [
        {
          "internalType": "string",
          "name": "",
          "type": "string"
        },
        {
          "internalType": "address",
          "name": "",
          "type": "address"
        }
      ],
      "name": "claimedBets",
      "outputs": [
        {
          "internalType": "bool",
          "name": "",
          "type": "bool"
        }
      ],
      "stateMutability": "view",
      "type": "function",
      "constant": true
    },
    {
      "inputs": [
        {
          "internalType": "string",
          "name": "",
          "type": "string"
        }
      ],
      "name": "createdTopics",
      "outputs": [
        {
          "internalType": "bool",
          "name": "",
          "type": "bool"
        }
      ],
      "stateMutability": "view",
      "type": "function",
      "constant": true
    },
    {
      "inputs": [
        {
          "internalType": "string",
          "name": "",
          "type": "string"
        }
      ],
      "name": "finishedTopics",
      "outputs": [
        {
          "internalType": "bool",
          "name": "",
          "type": "bool"
        }
      ],
      "stateMutability": "view",
      "type": "function",
      "constant": true
    },
    {
      "inputs": [],
      "name": "oracle",
      "outputs": [
        {
          "internalType": "address",
          "name": "",
          "type": "address"
        }
      ],
      "stateMutability": "view",
      "type": "function",
      "constant": true
    },
    {
      "inputs": [],
      "name": "oraclePrice",
      "outputs": [
        {
          "internalType": "uint256",
          "name": "",
          "type": "uint256"
        }
      ],
      "stateMutability": "view",
      "type": "function",
      "constant": true
    },
    {
      "inputs": [
        {
          "internalType": "string",
          "name": "",
          "type": "string"
        },
        {
          "internalType": "string",
          "name": "",
          "type": "string"
        }
      ],
      "name": "resultPools",
      "outputs": [
        {
          "internalType": "uint256",
          "name": "",
          "type": "uint256"
        }
      ],
      "stateMutability": "view",
      "type": "function",
      "constant": true
    },
    {
      "inputs": [
        {
          "internalType": "string",
          "name": "",
          "type": "string"
        }
      ],
      "name": "topicArbitrator",
      "outputs": [
        {
          "internalType": "address",
          "name": "",
          "type": "address"
        }
      ],
      "stateMutability": "view",
      "type": "function",
      "constant": true
    },
    {
      "inputs": [
        {
          "internalType": "string",
          "name": "",
          "type": "string"
        }
      ],
      "name": "topicCommissions",
      "outputs": [
        {
          "internalType": "uint256",
          "name": "",
          "type": "uint256"
        }
      ],
      "stateMutability": "view",
      "type": "function",
      "constant": true
    },
    {
      "inputs": [
        {
          "internalType": "string",
          "name": "",
          "type": "string"
        }
      ],
      "name": "topicDeadlines",
      "outputs": [
        {
          "internalType": "uint64",
          "name": "",
          "type": "uint64"
        }
      ],
      "stateMutability": "view",
      "type": "function",
      "constant": true
    },
    {
      "inputs": [
        {
          "internalType": "string",
          "name": "",
          "type": "string"
        }
      ],
      "name": "topicMinimum",
      "outputs": [
        {
          "internalType": "uint256",
          "name": "",
          "type": "uint256"
        }
      ],
      "stateMutability": "view",
      "type": "function",
      "constant": true
    },
    {
      "inputs": [
        {
          "internalType": "string",
          "name": "",
          "type": "string"
        }
      ],
      "name": "topicOwners",
      "outputs": [
        {
          "internalType": "address payable",
          "name": "",
          "type": "address"
        }
      ],
      "stateMutability": "view",
      "type": "function",
      "constant": true
    },
    {
      "inputs": [
        {
          "internalType": "string",
          "name": "",
          "type": "string"
        }
      ],
      "name": "topicPools",
      "outputs": [
        {
          "internalType": "uint256",
          "name": "",
          "type": "uint256"
        }
      ],
      "stateMutability": "view",
      "type": "function",
      "constant": true
    },
    {
      "inputs": [
        {
          "internalType": "string",
          "name": "",
          "type": "string"
        }
      ],
      "name": "topicResults",
      "outputs": [
        {
          "internalType": "string",
          "name": "",
          "type": "string"
        }
      ],
      "stateMutability": "view",
      "type": "function",
      "constant": true
    },
    {
      "inputs": [
        {
          "internalType": "string",
          "name": "",
          "type": "string"
        }
      ],
      "name": "topicSchedules",
      "outputs": [
        {
          "internalType": "uint64",
          "name": "",
          "type": "uint64"
        }
      ],
      "stateMutability": "view",
      "type": "function",
      "constant": true
    },
    {
      "inputs": [
        {
          "internalType": "string",
          "name": "",
          "type": "string"
        },
        {
          "internalType": "address",
          "name": "",
          "type": "address"
        },
        {
          "internalType": "string",
          "name": "",
          "type": "string"
        }
      ],
      "name": "userBets",
      "outputs": [
        {
          "internalType": "uint256",
          "name": "",
          "type": "uint256"
        }
      ],
      "stateMutability": "view",
      "type": "function",
      "constant": true
    },
    {
      "inputs": [
        {
          "internalType": "string",
          "name": "",
          "type": "string"
        },
        {
          "internalType": "address",
          "name": "",
          "type": "address"
        }
      ],
      "name": "userPools",
      "outputs": [
        {
          "internalType": "uint256",
          "name": "",
          "type": "uint256"
        }
      ],
      "stateMutability": "view",
      "type": "function",
      "constant": true
    },
    {
      "inputs": [
        {
          "internalType": "string",
          "name": "topicID",
          "type": "string"
        },
        {
          "internalType": "string",
          "name": "topic",
          "type": "string"
        },
        {
          "internalType": "string[]",
          "name": "sides",
          "type": "string[]"
        },
        {
          "internalType": "uint64",
          "name": "deadline",
          "type": "uint64"
        },
        {
          "internalType": "uint256",
          "name": "minimum",
          "type": "uint256"
        },
        {
          "internalType": "uint256",
          "name": "commission",
          "type": "uint256"
        },
        {
          "internalType": "string",
          "name": "description",
          "type": "string"
        },
        {
          "internalType": "address",
          "name": "_arbitrator",
          "type": "address"
        }
      ],
      "name": "createTopic",
      "outputs": [],
      "stateMutability": "nonpayable",
      "type": "function"
    },
    {
      "inputs": [
        {
          "internalType": "string",
          "name": "topicID",
          "type": "string"
        },
        {
          "internalType": "string",
          "name": "side",
          "type": "string"
        }
      ],
      "name": "placeBet",
      "outputs": [],
      "stateMutability": "payable",
      "type": "function",
      "payable": true
    },
    {
      "inputs": [
        {
          "internalType": "string",
          "name": "topicID",
          "type": "string"
        },
        {
          "internalType": "string",
          "name": "result",
          "type": "string"
        }
      ],
      "name": "reportResult",
      "outputs": [],
      "stateMutability": "nonpayable",
      "type": "function"
    },
    {
      "inputs": [
        {
          "internalType": "string",
          "name": "topicID",
          "type": "string"
        }
      ],
      "name": "claimBet",
      "outputs": [],
      "stateMutability": "nonpayable",
      "type": "function"
    },
    {
      "inputs": [],
      "name": "getTopics",
      "outputs": [
        {
          "components": [
            {
              "internalType": "string",
              "name": "id",
              "type": "string"
            },
            {
              "internalType": "string",
              "name": "name",
              "type": "string"
            },
            {
              "internalType": "string[]",
              "name": "outcomes",
              "type": "string[]"
            },
            {
              "internalType": "uint64",
              "name": "endDate",
              "type": "uint64"
            },
            {
              "internalType": "uint256",
              "name": "minBet",
              "type": "uint256"
            },
            {
              "internalType": "uint256",
              "name": "comm",
              "type": "uint256"
            },
            {
              "internalType": "string",
              "name": "desc",
              "type": "string"
            },
            {
              "internalType": "address",
              "name": "judge",
              "type": "address"
            },
            {
              "internalType": "bool",
              "name": "finished",
              "type": "bool"
            },
            {
              "internalType": "string",
              "name": "result",
              "type": "string"
            }
          ],
          "internalType": "struct PredictionMarket.topics[]",
          "name": "",
          "type": "tuple[]"
        }
      ],
      "stateMutability": "view",
      "type": "function",
      "constant": true
    },
    {
      "inputs": [
        {
          "internalType": "string",
          "name": "id",
          "type": "string"
        }
      ],
      "name": "getTopic",
      "outputs": [
        {
          "components": [
            {
              "internalType": "string",
              "name": "id",
              "type": "string"
            },
            {
              "internalType": "string",
              "name": "name",
              "type": "string"
            },
            {
              "internalType": "string[]",
              "name": "outcomes",
              "type": "string[]"
            },
            {
              "internalType": "uint64",
              "name": "endDate",
              "type": "uint64"
            },
            {
              "internalType": "uint256",
              "name": "minBet",
              "type": "uint256"
            },
            {
              "internalType": "uint256",
              "name": "comm",
              "type": "uint256"
            },
            {
              "internalType": "string",
              "name": "desc",
              "type": "string"
            },
            {
              "internalType": "address",
              "name": "judge",
              "type": "address"
            },
            {
              "internalType": "bool",
              "name": "finished",
              "type": "bool"
            },
            {
              "internalType": "string",
              "name": "result",
              "type": "string"
            }
          ],
          "internalType": "struct PredictionMarket.topics",
          "name": "",
          "type": "tuple"
        }
      ],
      "stateMutability": "view",
      "type": "function",
      "constant": true
    },
    {
      "inputs": [
        {
          "internalType": "address",
          "name": "_user",
          "type": "address"
        }
      ],
      "name": "getUserBets",
      "outputs": [
        {
          "components": [
            {
              "internalType": "string",
              "name": "topicid",
              "type": "string"
            },
            {
              "internalType": "address",
              "name": "user",
              "type": "address"
            },
            {
              "internalType": "string",
              "name": "side",
              "type": "string"
            },
            {
              "internalType": "uint256",
              "name": "amt",
              "type": "uint256"
            }
          ],
          "internalType": "struct PredictionMarket.oneBet[]",
          "name": "",
          "type": "tuple[]"
        }
      ],
      "stateMutability": "view",
      "type": "function",
      "constant": true
    },
    {
      "inputs": [
        {
          "internalType": "string",
          "name": "topicID",
          "type": "string"
        }
      ],
      "name": "getBetsByTopic",
      "outputs": [
        {
          "components": [
            {
              "internalType": "string",
              "name": "topicid",
              "type": "string"
            },
            {
              "internalType": "address",
              "name": "user",
              "type": "address"
            },
            {
              "internalType": "string",
              "name": "side",
              "type": "string"
            },
            {
              "internalType": "uint256",
              "name": "amt",
              "type": "uint256"
            }
          ],
          "internalType": "struct PredictionMarket.oneBet[]",
          "name": "",
          "type": "tuple[]"
        }
      ],
      "stateMutability": "view",
      "type": "function",
      "constant": true
    },
    {
      "inputs": [
        {
          "internalType": "string",
          "name": "topicID",
          "type": "string"
        }
      ],
      "name": "getTopicPool",
      "outputs": [
        {
          "internalType": "string[]",
          "name": "sides",
          "type": "string[]"
        },
        {
          "internalType": "uint256[]",
          "name": "amounts",
          "type": "uint256[]"
        }
      ],
      "stateMutability": "view",
      "type": "function",
      "constant": true
    }
  ],
  "bytecode": "0x608060405260405162004c6038038062004c6083398181016040528101906200002991906200011b565b336000806101000a81548173ffffffffffffffffffffffffffffffffffffffff021916908373ffffffffffffffffffffffffffffffffffffffff16021790555080600160006101000a81548173ffffffffffffffffffffffffffffffffffffffff021916908373ffffffffffffffffffffffffffffffffffffffff160217905550506200014d565b600080fd5b600073ffffffffffffffffffffffffffffffffffffffff82169050919050565b6000620000e382620000b6565b9050919050565b620000f581620000d6565b81146200010157600080fd5b50565b6000815190506200011581620000ea565b92915050565b600060208284031215620001345762000133620000b1565b5b6000620001448482850162000104565b91505092915050565b614b03806200015d6000396000f3fe6080604052600436106101805760003560e01c806385bf206a116100d1578063cfc4659f1161008a578063e498bae111610064578063e498bae114610643578063f13dfc2b14610680578063fd17ec1c146106bd578063fee01177146106fa57610180565b8063cfc4659f1461058c578063dd5d16a4146105c9578063deb233f01461060657610180565b806385bf206a14610446578063992515b01461046f5780639a6e238f146104ac578063ac13fe33146104d5578063b57e26f014610512578063c0a980a51461054f57610180565b80635f4080e41161013e578063689f552b11610118578063689f552b146103645780637d385593146103a15780637dc0d1d0146103de57806384a822691461040957610180565b80635f4080e4146102be578063607f2412146102fc578063668aa8241461033957610180565b8062bffdac1461018557806301347c14146101c25780632d56657d146101eb5780632de190e914610228578063474502d8146102655780634844f367146102a2575b600080fd5b34801561019157600080fd5b506101ac60048036038101906101a791906132a2565b610725565b6040516101b991906134f0565b60405180910390f35b3480156101ce57600080fd5b506101e960048036038101906101e49190613690565b610926565b005b3480156101f757600080fd5b50610212600480360381019061020d91906137b6565b610eb7565b60405161021f91906134f0565b60405180910390f35b34801561023457600080fd5b5061024f600480360381019061024a91906132a2565b6110d9565b60405161025c91906137fe565b60405180910390f35b34801561027157600080fd5b5061028c600480360381019061028791906132a2565b61110f565b60405161029991906139ef565b60405180910390f35b6102bc60048036038101906102b79190613a11565b611520565b005b3480156102ca57600080fd5b506102e560048036038101906102e091906132a2565b611b65565b6040516102f3929190613bbe565b60405180910390f35b34801561030857600080fd5b50610323600480360381019061031e9190613bf5565b611da5565b6040516103309190613c6c565b60405180910390f35b34801561034557600080fd5b5061034e611e51565b60405161035b9190613c9d565b60405180910390f35b34801561037057600080fd5b5061038b600480360381019061038691906132a2565b611e57565b6040516103989190613c9d565b60405180910390f35b3480156103ad57600080fd5b506103c860048036038101906103c39190613cb8565b611e85565b6040516103d59190613c9d565b60405180910390f35b3480156103ea57600080fd5b506103f3611ee3565b6040516104009190613d52565b60405180910390f35b34801561041557600080fd5b50610430600480360381019061042b91906132a2565b611f09565b60405161043d9190613d8e565b60405180910390f35b34801561045257600080fd5b5061046d600480360381019061046891906132a2565b611f52565b005b34801561047b57600080fd5b50610496600480360381019061049191906132a2565b612652565b6040516104a39190613d52565b60405180910390f35b3480156104b857600080fd5b506104d360048036038101906104ce9190613a11565b61269b565b005b3480156104e157600080fd5b506104fc60048036038101906104f791906132a2565b612899565b6040516105099190613db8565b60405180910390f35b34801561051e57600080fd5b5061053960048036038101906105349190613dd3565b6128d6565b6040516105469190613c9d565b60405180910390f35b34801561055b57600080fd5b50610576600480360381019061057191906132a2565b612911565b6040516105839190613c6c565b60405180910390f35b34801561059857600080fd5b506105b360048036038101906105ae91906132a2565b6129c7565b6040516105c091906137fe565b60405180910390f35b3480156105d557600080fd5b506105f060048036038101906105eb9190613dd3565b6129fd565b6040516105fd91906137fe565b60405180910390f35b34801561061257600080fd5b5061062d600480360381019061062891906132a2565b612a42565b60405161063a9190613c9d565b60405180910390f35b34801561064f57600080fd5b5061066a60048036038101906106659190613a11565b612a70565b6040516106779190613c9d565b60405180910390f35b34801561068c57600080fd5b506106a760048036038101906106a291906132a2565b612ac1565b6040516106b49190613c9d565b60405180910390f35b3480156106c957600080fd5b506106e460048036038101906106df91906132a2565b612aef565b6040516106f19190613db8565b60405180910390f35b34801561070657600080fd5b5061070f612b2c565b60405161071c9190613fe7565b60405180910390f35b60606011826040516107379190614045565b9081526020016040518091039020805480602002602001604051908101604052809291908181526020016000905b8282101561091b57838290600052602060002090600402016040518060800160405290816000820180546107989061408b565b80601f01602080910402602001604051908101604052809291908181526020018280546107c49061408b565b80156108115780601f106107e657610100808354040283529160200191610811565b820191906000526020600020905b8154815290600101906020018083116107f457829003601f168201915b505050505081526020016001820160009054906101000a900473ffffffffffffffffffffffffffffffffffffffff1673ffffffffffffffffffffffffffffffffffffffff1673ffffffffffffffffffffffffffffffffffffffff1681526020016002820180546108809061408b565b80601f01602080910402602001604051908101604052809291908181526020018280546108ac9061408b565b80156108f95780601f106108ce576101008083540402835291602001916108f9565b820191906000526020600020905b8154815290600101906020018083116108dc57829003601f168201915b5050505050815260200160038201548152505081526020019060010190610765565b505050509050919050565b60008851118015610938575060018651115b801561094d5750428567ffffffffffffffff16115b801561095a575060148311155b801561097357506001606461096f91906140eb565b8410155b80156109a8575060038860405161098a9190614045565b908152602001604051809103902060009054906101000a900460ff16155b6109e7576040517f08c379a00000000000000000000000000000000000000000000000000000000081526004016109de90614191565b60405180910390fd5b600288908060018154018082558091505060019003906000526020600020016000909190919091509081610a1b919061435d565b506001600389604051610a2e9190614045565b908152602001604051809103902060006101000a81548160ff02191690831515021790555033600689604051610a649190614045565b908152602001604051809103902060006101000a81548173ffffffffffffffffffffffffffffffffffffffff021916908373ffffffffffffffffffffffffffffffffffffffff16021790555084600489604051610ac19190614045565b908152602001604051809103902060006101000a81548167ffffffffffffffff021916908367ffffffffffffffff16021790555062278d0085610b04919061442f565b600589604051610b149190614045565b908152602001604051809103902060006101000a81548167ffffffffffffffff021916908367ffffffffffffffff16021790555083600989604051610b599190614045565b908152602001604051809103902081905550826064610b78919061449a565b600889604051610b889190614045565b90815260200160405180910390208190555080600789604051610bab9190614045565b908152602001604051809103902060006101000a81548173ffffffffffffffffffffffffffffffffffffffff021916908373ffffffffffffffffffffffffffffffffffffffff16021790555085600f89604051610c089190614045565b90815260200160405180910390209080519060200190610c29929190612ff9565b506040518061014001604052808981526020018881526020018781526020018667ffffffffffffffff1681526020018581526020018481526020018381526020018273ffffffffffffffffffffffffffffffffffffffff16815260200160001515815260200160405180602001604052806000815250815250600e89604051610cb29190614045565b90815260200160405180910390206000820151816000019081610cd5919061435d565b506020820151816001019081610ceb919061435d565b506040820151816002019080519060200190610d08929190612ff9565b5060608201518160030160006101000a81548167ffffffffffffffff021916908367ffffffffffffffff1602179055506080820151816004015560a0820151816005015560c0820151816006019081610d61919061435d565b5060e08201518160070160006101000a81548173ffffffffffffffffffffffffffffffffffffffff021916908373ffffffffffffffffffffffffffffffffffffffff1602179055506101008201518160070160146101000a81548160ff021916908315150217905550610120820151816008019081610de0919061435d565b5090505060005b8651811015610e5d576000600b8a604051610e029190614045565b9081526020016040518091039020888381518110610e2357610e226144cb565b5b6020026020010151604051610e389190614045565b9081526020016040518091039020819055508080610e55906144fa565b915050610de7565b5087604051610e6c9190614045565b60405180910390207fb1bcc673ab0845d61da71f0162df55efb4045dc9ced8906cfe5aa3a651c3be798389604051610ea5929190614542565b60405180910390a25050505050505050565b6060601060008373ffffffffffffffffffffffffffffffffffffffff1673ffffffffffffffffffffffffffffffffffffffff168152602001908152602001600020805480602002602001604051908101604052809291908181526020016000905b828210156110ce5783829060005260206000209060040201604051806080016040529081600082018054610f4b9061408b565b80601f0160208091040260200160405190810160405280929190818152602001828054610f779061408b565b8015610fc45780601f10610f9957610100808354040283529160200191610fc4565b820191906000526020600020905b815481529060010190602001808311610fa757829003601f168201915b505050505081526020016001820160009054906101000a900473ffffffffffffffffffffffffffffffffffffffff1673ffffffffffffffffffffffffffffffffffffffff1673ffffffffffffffffffffffffffffffffffffffff1681526020016002820180546110339061408b565b80601f016020809104026020016040519081016040528092919081815260200182805461105f9061408b565b80156110ac5780601f10611081576101008083540402835291602001916110ac565b820191906000526020600020905b81548152906001019060200180831161108f57829003601f168201915b5050505050815260200160038201548152505081526020019060010190610f18565b505050509050919050565b6003818051602081018201805184825260208301602085012081835280955050505050506000915054906101000a900460ff1681565b611117613052565b600e826040516111279190614045565b9081526020016040518091039020604051806101400160405290816000820180546111519061408b565b80601f016020809104026020016040519081016040528092919081815260200182805461117d9061408b565b80156111ca5780601f1061119f576101008083540402835291602001916111ca565b820191906000526020600020905b8154815290600101906020018083116111ad57829003601f168201915b505050505081526020016001820180546111e39061408b565b80601f016020809104026020016040519081016040528092919081815260200182805461120f9061408b565b801561125c5780601f106112315761010080835404028352916020019161125c565b820191906000526020600020905b81548152906001019060200180831161123f57829003601f168201915b5050505050815260200160028201805480602002602001604051908101604052809291908181526020016000905b828210156113365783829060005260206000200180546112a99061408b565b80601f01602080910402602001604051908101604052809291908181526020018280546112d59061408b565b80156113225780601f106112f757610100808354040283529160200191611322565b820191906000526020600020905b81548152906001019060200180831161130557829003601f168201915b50505050508152602001906001019061128a565b5050505081526020016003820160009054906101000a900467ffffffffffffffff1667ffffffffffffffff1667ffffffffffffffff16815260200160048201548152602001600582015481526020016006820180546113949061408b565b80601f01602080910402602001604051908101604052809291908181526020018280546113c09061408b565b801561140d5780601f106113e25761010080835404028352916020019161140d565b820191906000526020600020905b8154815290600101906020018083116113f057829003601f168201915b505050505081526020016007820160009054906101000a900473ffffffffffffffffffffffffffffffffffffffff1673ffffffffffffffffffffffffffffffffffffffff1673ffffffffffffffffffffffffffffffffffffffff1681526020016007820160149054906101000a900460ff161515151581526020016008820180546114979061408b565b80601f01602080910402602001604051908101604052809291908181526020018280546114c39061408b565b80156115105780601f106114e557610100808354040283529160200191611510565b820191906000526020600020905b8154815290600101906020018083116114f357829003601f168201915b5050505050815250509050919050565b6003826040516115309190614045565b908152602001604051809103902060009054906101000a900460ff16801561158157506013826040516115639190614045565b908152602001604051809103902060009054906101000a900460ff16155b80156115c95750426004836040516115999190614045565b908152602001604051809103902060009054906101000a900467ffffffffffffffff1667ffffffffffffffff1610155b611608576040517f08c379a00000000000000000000000000000000000000000000000000000000081526004016115ff906145eb565b60405180910390fd5b60003490506000825111801561163c57506009836040516116299190614045565b9081526020016040518091039020543410155b61167b576040517f08c379a00000000000000000000000000000000000000000000000000000000081526004016116729061467d565b60405180910390fd5b606481611688919061469d565b905080600b8460405161169b9190614045565b9081526020016040518091039020836040516116b79190614045565b908152602001604051809103902060008282546116d491906140eb565b9250508190555080600c846040516116ec9190614045565b908152602001604051809103902060003373ffffffffffffffffffffffffffffffffffffffff1673ffffffffffffffffffffffffffffffffffffffff168152602001908152602001600020600082825461174691906140eb565b9250508190555080600a8460405161175e9190614045565b9081526020016040518091039020600082825461177b91906140eb565b92505081905550806012846040516117939190614045565b908152602001604051809103902060003373ffffffffffffffffffffffffffffffffffffffff1673ffffffffffffffffffffffffffffffffffffffff168152602001908152602001600020836040516117ec9190614045565b9081526020016040518091039020600082825461180991906140eb565b92505081905550601060003373ffffffffffffffffffffffffffffffffffffffff1673ffffffffffffffffffffffffffffffffffffffff16815260200190815260200160002060405180608001604052808581526020013373ffffffffffffffffffffffffffffffffffffffff16815260200184815260200183815250908060018154018082558091505060019003906000526020600020906004020160009091909190915060008201518160000190816118c4919061435d565b5060208201518160010160006101000a81548173ffffffffffffffffffffffffffffffffffffffff021916908373ffffffffffffffffffffffffffffffffffffffff1602179055506040820151816002019081611921919061435d565b5060608201518160030155505060118360405161193e9190614045565b908152602001604051809103902060405180608001604052808581526020013373ffffffffffffffffffffffffffffffffffffffff16815260200184815260200183815250908060018154018082558091505060019003906000526020600020906004020160009091909190915060008201518160000190816119c1919061435d565b5060208201518160010160006101000a81548173ffffffffffffffffffffffffffffffffffffffff021916908373ffffffffffffffffffffffffffffffffffffffff1602179055506040820151816002019081611a1e919061435d565b5060608201518160030155505060008060009054906101000a900473ffffffffffffffffffffffffffffffffffffffff1673ffffffffffffffffffffffffffffffffffffffff166064604051611a7390614702565b60006040518083038185875af1925050503d8060008114611ab0576040519150601f19603f3d011682016040523d82523d6000602084013e611ab5565b606091505b5050905080611af9576040517f08c379a0000000000000000000000000000000000000000000000000000000008152600401611af090614789565b60405180910390fd5b83604051611b079190614045565b60405180910390203373ffffffffffffffffffffffffffffffffffffffff167fcd230f7e44a2186de0bb3cf7714b1b492610b841c89ca3dcbd5b1333a3ec18e18686604051611b57929190614542565b60405180910390a350505050565b6060806000600f84604051611b7a9190614045565b90815260200160405180910390208054905067ffffffffffffffff811115611ba557611ba4613177565b5b604051908082528060200260200182016040528015611bd35781602001602082028036833780820191505090505b50905060005b600f85604051611be99190614045565b908152602001604051809103902080549050811015611ca857600b85604051611c129190614045565b9081526020016040518091039020600f86604051611c309190614045565b90815260200160405180910390208281548110611c5057611c4f6144cb565b5b90600052602060002001604051611c67919061482c565b908152602001604051809103902054828281518110611c8957611c886144cb565b5b6020026020010181815250508080611ca0906144fa565b915050611bd9565b50600f84604051611cb99190614045565b90815260200160405180910390208181805480602002602001604051908101604052809291908181526020016000905b82821015611d95578382906000526020600020018054611d089061408b565b80601f0160208091040260200160405190810160405280929190818152602001828054611d349061408b565b8015611d815780601f10611d5657610100808354040283529160200191611d81565b820191906000526020600020905b815481529060010190602001808311611d6457829003601f168201915b505050505081526020019060010190611ce9565b5050505091509250925050915091565b60028181548110611db557600080fd5b906000526020600020016000915090508054611dd09061408b565b80601f0160208091040260200160405190810160405280929190818152602001828054611dfc9061408b565b8015611e495780601f10611e1e57610100808354040283529160200191611e49565b820191906000526020600020905b815481529060010190602001808311611e2c57829003601f168201915b505050505081565b600d5481565b6008818051602081018201805184825260208301602085012081835280955050505050506000915090505481565b6012838051602081018201805184825260208301602085012081835280955050505050506020528160005260406000208180516020810182018051848252602083016020850120818352809550505050505060009250925050505481565b600160009054906101000a900473ffffffffffffffffffffffffffffffffffffffff1681565b6006818051602081018201805184825260208301602085012081835280955050505050506000915054906101000a900473ffffffffffffffffffffffffffffffffffffffff1681565b60004262069780600584604051611f699190614045565b908152602001604051809103902060009054906101000a900467ffffffffffffffff16611f96919061442f565b67ffffffffffffffff16109050601382604051611fb39190614045565b908152602001604051809103902060009054906101000a900460ff1680611fd75750805b80156120495750601582604051611fee9190614045565b908152602001604051809103902060003373ffffffffffffffffffffffffffffffffffffffff1673ffffffffffffffffffffffffffffffffffffffff16815260200190815260200160002060009054906101000a900460ff16155b80156120b157506000600c836040516120629190614045565b908152602001604051809103902060003373ffffffffffffffffffffffffffffffffffffffff1673ffffffffffffffffffffffffffffffffffffffff1681526020019081526020016000205414155b6120f0576040517f08c379a00000000000000000000000000000000000000000000000000000000081526004016120e7906148b5565b60405180910390fd5b60016015836040516121029190614045565b908152602001604051809103902060003373ffffffffffffffffffffffffffffffffffffffff1673ffffffffffffffffffffffffffffffffffffffff16815260200190815260200160002060006101000a81548160ff02191690831515021790555060006014836040516121769190614045565b9081526020016040518091039020805461218f9061408b565b80601f01602080910402602001604051908101604052809291908181526020018280546121bb9061408b565b80156122085780601f106121dd57610100808354040283529160200191612208565b820191906000526020600020905b8154815290600101906020018083116121eb57829003601f168201915b5050505050905060006012846040516122219190614045565b908152602001604051809103902060003373ffffffffffffffffffffffffffffffffffffffff1673ffffffffffffffffffffffffffffffffffffffff1681526020019081526020016000208260405161227a9190614045565b90815260200160405180910390205490506000600b8560405161229d9190614045565b9081526020016040518091039020836040516122b99190614045565b9081526020016040518091039020549050600080820361237957600c866040516122e39190614045565b908152602001604051809103902060003373ffffffffffffffffffffffffffffffffffffffff1673ffffffffffffffffffffffffffffffffffffffff1681526020019081526020016000205490503373ffffffffffffffffffffffffffffffffffffffff167fd062202474cb0be44012226d41105de1db85c69c417fbc111907fcbb25a44aa560405160405180910390a2612475565b6000831461242757600082600a886040516123949190614045565b9081526020016040518091039020546123ad919061469d565b90508284826123bc91906148d5565b6123c6919061449a565b846123d191906140eb565b91503373ffffffffffffffffffffffffffffffffffffffff167fe60bab41c59bb7b8da014b17716e6924f66553ddd1751db88bfa8d831fb3b7b5836040516124199190613c9d565b60405180910390a250612474565b3373ffffffffffffffffffffffffffffffffffffffff167f111af70af2304203f6ba46b1d8b86b412f7a22d454c779f8c526df94a3c56e2e60405160405180910390a2505050505061264f565b5b60006008876040516124879190614045565b908152602001604051809103902054826124a1919061449a565b905080826124af919061469d565b915060003373ffffffffffffffffffffffffffffffffffffffff16836040516124d790614702565b60006040518083038185875af1925050503d8060008114612514576040519150601f19603f3d011682016040523d82523d6000602084013e612519565b606091505b505090508061255d576040517f08c379a000000000000000000000000000000000000000000000000000000000815260040161255490614989565b60405180910390fd5b60068860405161256d9190614045565b908152602001604051809103902060009054906101000a900473ffffffffffffffffffffffffffffffffffffffff1673ffffffffffffffffffffffffffffffffffffffff16826040516125bf90614702565b60006040518083038185875af1925050503d80600081146125fc576040519150601f19603f3d011682016040523d82523d6000602084013e612601565b606091505b50508091505080612647576040517f08c379a000000000000000000000000000000000000000000000000000000000815260040161263e90614a1b565b60405180910390fd5b505050505050505b50565b6007818051602081018201805184825260208301602085012081835280955050505050506000915054906101000a900473ffffffffffffffffffffffffffffffffffffffff1681565b6007826040516126ab9190614045565b908152602001604051809103902060009054906101000a900473ffffffffffffffffffffffffffffffffffffffff1673ffffffffffffffffffffffffffffffffffffffff163373ffffffffffffffffffffffffffffffffffffffff1614801561273d575060138260405161271f9190614045565b908152602001604051809103902060009054906101000a900460ff16155b61277c576040517f08c379a000000000000000000000000000000000000000000000000000000000815260040161277390614aad565b60405180910390fd5b8060148360405161278d9190614045565b908152602001604051809103902090816127a7919061435d565b5060016013836040516127ba9190614045565b908152602001604051809103902060006101000a81548160ff0219169083151502179055506001600e836040516127f19190614045565b908152602001604051809103902060070160146101000a81548160ff02191690831515021790555080600e8360405161282a9190614045565b90815260200160405180910390206008019081612847919061435d565b50816040516128569190614045565b60405180910390207f9ebd80a0396fbf9d3cfaaba17ab4290390777c1f29bef764b78b7845acaa14618260405161288d9190613c6c565b60405180910390a25050565b6005818051602081018201805184825260208301602085012081835280955050505050506000915054906101000a900467ffffffffffffffff1681565b600c82805160208101820180518482526020830160208501208183528095505050505050602052806000526040600020600091509150505481565b60148180516020810182018051848252602083016020850120818352809550505050505060009150905080546129469061408b565b80601f01602080910402602001604051908101604052809291908181526020018280546129729061408b565b80156129bf5780601f10612994576101008083540402835291602001916129bf565b820191906000526020600020905b8154815290600101906020018083116129a257829003601f168201915b505050505081565b6013818051602081018201805184825260208301602085012081835280955050505050506000915054906101000a900460ff1681565b6015828051602081018201805184825260208301602085012081835280955050505050506020528060005260406000206000915091509054906101000a900460ff1681565b600a818051602081018201805184825260208301602085012081835280955050505050506000915090505481565b600b8280516020810182018051848252602083016020850120818352809550505050505081805160208101820180518482526020830160208501208183528095505050505050600091509150505481565b6009818051602081018201805184825260208301602085012081835280955050505050506000915090505481565b6004818051602081018201805184825260208301602085012081835280955050505050506000915054906101000a900467ffffffffffffffff1681565b6060600060028054905067ffffffffffffffff811115612b4f57612b4e613177565b5b604051908082528060200260200182016040528015612b8857816020015b612b75613052565b815260200190600190039081612b6d5790505b50905060005b600280549050811015612ff1576000600e60028381548110612bb357612bb26144cb565b5b90600052602060002001604051612bca919061482c565b908152602001604051809103902090508060405180610140016040529081600082018054612bf79061408b565b80601f0160208091040260200160405190810160405280929190818152602001828054612c239061408b565b8015612c705780601f10612c4557610100808354040283529160200191612c70565b820191906000526020600020905b815481529060010190602001808311612c5357829003601f168201915b50505050508152602001600182018054612c899061408b565b80601f0160208091040260200160405190810160405280929190818152602001828054612cb59061408b565b8015612d025780601f10612cd757610100808354040283529160200191612d02565b820191906000526020600020905b815481529060010190602001808311612ce557829003601f168201915b5050505050815260200160028201805480602002602001604051908101604052809291908181526020016000905b82821015612ddc578382906000526020600020018054612d4f9061408b565b80601f0160208091040260200160405190810160405280929190818152602001828054612d7b9061408b565b8015612dc85780601f10612d9d57610100808354040283529160200191612dc8565b820191906000526020600020905b815481529060010190602001808311612dab57829003601f168201915b505050505081526020019060010190612d30565b5050505081526020016003820160009054906101000a900467ffffffffffffffff1667ffffffffffffffff1667ffffffffffffffff1681526020016004820154815260200160058201548152602001600682018054612e3a9061408b565b80601f0160208091040260200160405190810160405280929190818152602001828054612e669061408b565b8015612eb35780601f10612e8857610100808354040283529160200191612eb3565b820191906000526020600020905b815481529060010190602001808311612e9657829003601f168201915b505050505081526020016007820160009054906101000a900473ffffffffffffffffffffffffffffffffffffffff1673ffffffffffffffffffffffffffffffffffffffff1673ffffffffffffffffffffffffffffffffffffffff1681526020016007820160149054906101000a900460ff16151515158152602001600882018054612f3d9061408b565b80601f0160208091040260200160405190810160405280929190818152602001828054612f699061408b565b8015612fb65780601f10612f8b57610100808354040283529160200191612fb6565b820191906000526020600020905b815481529060010190602001808311612f9957829003601f168201915b505050505081525050838381518110612fd257612fd16144cb565b5b6020026020010181905250508080612fe9906144fa565b915050612b8e565b508091505090565b828054828255906000526020600020908101928215613041579160200282015b82811115613040578251829081613030919061435d565b5091602001919060010190613019565b5b50905061304e91906130c7565b5090565b604051806101400160405280606081526020016060815260200160608152602001600067ffffffffffffffff168152602001600081526020016000815260200160608152602001600073ffffffffffffffffffffffffffffffffffffffff168152602001600015158152602001606081525090565b5b808211156130e757600081816130de91906130eb565b506001016130c8565b5090565b5080546130f79061408b565b6000825580601f106131095750613128565b601f016020900490600052602060002090810190613127919061312b565b5b50565b5b8082111561314457600081600090555060010161312c565b5090565b6000604051905090565b600080fd5b600080fd5b600080fd5b600080fd5b6000601f19601f8301169050919050565b7f4e487b7100000000000000000000000000000000000000000000000000000000600052604160045260246000fd5b6131af82613166565b810181811067ffffffffffffffff821117156131ce576131cd613177565b5b80604052505050565b60006131e1613148565b90506131ed82826131a6565b919050565b600067ffffffffffffffff82111561320d5761320c613177565b5b61321682613166565b9050602081019050919050565b82818337600083830152505050565b6000613245613240846131f2565b6131d7565b90508281526020810184848401111561326157613260613161565b5b61326c848285613223565b509392505050565b600082601f8301126132895761328861315c565b5b8135613299848260208601613232565b91505092915050565b6000602082840312156132b8576132b7613152565b5b600082013567ffffffffffffffff8111156132d6576132d5613157565b5b6132e284828501613274565b91505092915050565b600081519050919050565b600082825260208201905092915050565b6000819050602082019050919050565b600081519050919050565b600082825260208201905092915050565b60005b83811015613351578082015181840152602081019050613336565b60008484015250505050565b600061336882613317565b6133728185613322565b9350613382818560208601613333565b61338b81613166565b840191505092915050565b600073ffffffffffffffffffffffffffffffffffffffff82169050919050565b60006133c182613396565b9050919050565b6133d1816133b6565b82525050565b6000819050919050565b6133ea816133d7565b82525050565b6000608083016000830151848203600086015261340d828261335d565b915050602083015161342260208601826133c8565b506040830151848203604086015261343a828261335d565b915050606083015161344f60608601826133e1565b508091505092915050565b600061346683836133f0565b905092915050565b6000602082019050919050565b6000613486826132eb565b61349081856132f6565b9350836020820285016134a285613307565b8060005b858110156134de57848403895281516134bf858261345a565b94506134ca8361346e565b925060208a019950506001810190506134a6565b50829750879550505050505092915050565b6000602082019050818103600083015261350a818461347b565b905092915050565b600067ffffffffffffffff82111561352d5761352c613177565b5b602082029050602081019050919050565b600080fd5b600061355661355184613512565b6131d7565b905080838252602082019050602084028301858111156135795761357861353e565b5b835b818110156135c057803567ffffffffffffffff81111561359e5761359d61315c565b5b8086016135ab8982613274565b8552602085019450505060208101905061357b565b5050509392505050565b600082601f8301126135df576135de61315c565b5b81356135ef848260208601613543565b91505092915050565b600067ffffffffffffffff82169050919050565b613615816135f8565b811461362057600080fd5b50565b6000813590506136328161360c565b92915050565b613641816133d7565b811461364c57600080fd5b50565b60008135905061365e81613638565b92915050565b61366d816133b6565b811461367857600080fd5b50565b60008135905061368a81613664565b92915050565b600080600080600080600080610100898b0312156136b1576136b0613152565b5b600089013567ffffffffffffffff8111156136cf576136ce613157565b5b6136db8b828c01613274565b985050602089013567ffffffffffffffff8111156136fc576136fb613157565b5b6137088b828c01613274565b975050604089013567ffffffffffffffff81111561372957613728613157565b5b6137358b828c016135ca565b96505060606137468b828c01613623565b95505060806137578b828c0161364f565b94505060a06137688b828c0161364f565b93505060c089013567ffffffffffffffff81111561378957613788613157565b5b6137958b828c01613274565b92505060e06137a68b828c0161367b565b9150509295985092959890939650565b6000602082840312156137cc576137cb613152565b5b60006137da8482850161367b565b91505092915050565b60008115159050919050565b6137f8816137e3565b82525050565b600060208201905061381360008301846137ef565b92915050565b600081519050919050565b600082825260208201905092915050565b6000819050602082019050919050565b6000613851838361335d565b905092915050565b6000602082019050919050565b600061387182613819565b61387b8185613824565b93508360208202850161388d85613835565b8060005b858110156138c957848403895281516138aa8582613845565b94506138b583613859565b925060208a01995050600181019050613891565b50829750879550505050505092915050565b6138e4816135f8565b82525050565b6138f3816137e3565b82525050565b6000610140830160008301518482036000860152613917828261335d565b91505060208301518482036020860152613931828261335d565b9150506040830151848203604086015261394b8282613866565b915050606083015161396060608601826138db565b50608083015161397360808601826133e1565b5060a083015161398660a08601826133e1565b5060c083015184820360c086015261399e828261335d565b91505060e08301516139b360e08601826133c8565b506101008301516139c86101008601826138ea565b506101208301518482036101208601526139e2828261335d565b9150508091505092915050565b60006020820190508181036000830152613a0981846138f9565b905092915050565b60008060408385031215613a2857613a27613152565b5b600083013567ffffffffffffffff811115613a4657613a45613157565b5b613a5285828601613274565b925050602083013567ffffffffffffffff811115613a7357613a72613157565b5b613a7f85828601613274565b9150509250929050565b600082825260208201905092915050565b6000613aa582613819565b613aaf8185613a89565b935083602082028501613ac185613835565b8060005b85811015613afd5784840389528151613ade8582613845565b9450613ae983613859565b925060208a01995050600181019050613ac5565b50829750879550505050505092915050565b600081519050919050565b600082825260208201905092915050565b6000819050602082019050919050565b6000613b4783836133e1565b60208301905092915050565b6000602082019050919050565b6000613b6b82613b0f565b613b758185613b1a565b9350613b8083613b2b565b8060005b83811015613bb1578151613b988882613b3b565b9750613ba383613b53565b925050600181019050613b84565b5085935050505092915050565b60006040820190508181036000830152613bd88185613a9a565b90508181036020830152613bec8184613b60565b90509392505050565b600060208284031215613c0b57613c0a613152565b5b6000613c198482850161364f565b91505092915050565b600082825260208201905092915050565b6000613c3e82613317565b613c488185613c22565b9350613c58818560208601613333565b613c6181613166565b840191505092915050565b60006020820190508181036000830152613c868184613c33565b905092915050565b613c97816133d7565b82525050565b6000602082019050613cb26000830184613c8e565b92915050565b600080600060608486031215613cd157613cd0613152565b5b600084013567ffffffffffffffff811115613cef57613cee613157565b5b613cfb86828701613274565b9350506020613d0c8682870161367b565b925050604084013567ffffffffffffffff811115613d2d57613d2c613157565b5b613d3986828701613274565b9150509250925092565b613d4c816133b6565b82525050565b6000602082019050613d676000830184613d43565b92915050565b6000613d7882613396565b9050919050565b613d8881613d6d565b82525050565b6000602082019050613da36000830184613d7f565b92915050565b613db2816135f8565b82525050565b6000602082019050613dcd6000830184613da9565b92915050565b60008060408385031215613dea57613de9613152565b5b600083013567ffffffffffffffff811115613e0857613e07613157565b5b613e1485828601613274565b9250506020613e258582860161367b565b9150509250929050565b600081519050919050565b600082825260208201905092915050565b6000819050602082019050919050565b6000610140830160008301518482036000860152613e79828261335d565b91505060208301518482036020860152613e93828261335d565b91505060408301518482036040860152613ead8282613866565b9150506060830151613ec260608601826138db565b506080830151613ed560808601826133e1565b5060a0830151613ee860a08601826133e1565b5060c083015184820360c0860152613f00828261335d565b91505060e0830151613f1560e08601826133c8565b50610100830151613f2a6101008601826138ea565b50610120830151848203610120860152613f44828261335d565b9150508091505092915050565b6000613f5d8383613e5b565b905092915050565b6000602082019050919050565b6000613f7d82613e2f565b613f878185613e3a565b935083602082028501613f9985613e4b565b8060005b85811015613fd55784840389528151613fb68582613f51565b9450613fc183613f65565b925060208a01995050600181019050613f9d565b50829750879550505050505092915050565b600060208201905081810360008301526140018184613f72565b905092915050565b600081905092915050565b600061401f82613317565b6140298185614009565b9350614039818560208601613333565b80840191505092915050565b60006140518284614014565b915081905092915050565b7f4e487b7100000000000000000000000000000000000000000000000000000000600052602260045260246000fd5b600060028204905060018216806140a357607f821691505b6020821081036140b6576140b561405c565b5b50919050565b7f4e487b7100000000000000000000000000000000000000000000000000000000600052601160045260246000fd5b60006140f6826133d7565b9150614101836133d7565b9250828201905080821115614119576141186140bc565b5b92915050565b7f556e61626c6520746f2063726561746520746f7069632c20636865636b20617260008201527f67756d656e74732e000000000000000000000000000000000000000000000000602082015250565b600061417b602883613c22565b91506141868261411f565b604082019050919050565b600060208201905081810360008301526141aa8161416e565b9050919050565b60008190508160005260206000209050919050565b60006020601f8301049050919050565b600082821b905092915050565b6000600883026142137fffffffffffffffffffffffffffffffffffffffffffffffffffffffffffffffff826141d6565b61421d86836141d6565b95508019841693508086168417925050509392505050565b6000819050919050565b600061425a614255614250846133d7565b614235565b6133d7565b9050919050565b6000819050919050565b6142748361423f565b61428861428082614261565b8484546141e3565b825550505050565b600090565b61429d614290565b6142a881848461426b565b505050565b5b818110156142cc576142c1600082614295565b6001810190506142ae565b5050565b601f821115614311576142e2816141b1565b6142eb846141c6565b810160208510156142fa578190505b61430e614306856141c6565b8301826142ad565b50505b505050565b600082821c905092915050565b600061433460001984600802614316565b1980831691505092915050565b600061434d8383614323565b9150826002028217905092915050565b61436682613317565b67ffffffffffffffff81111561437f5761437e613177565b5b614389825461408b565b6143948282856142d0565b600060209050601f8311600181146143c757600084156143b5578287015190505b6143bf8582614341565b865550614427565b601f1984166143d5866141b1565b60005b828110156143fd578489015182556001820191506020850194506020810190506143d8565b8683101561441a5784890151614416601f891682614323565b8355505b6001600288020188555050505b505050505050565b600061443a826135f8565b9150614445836135f8565b9250828201905067ffffffffffffffff811115614465576144646140bc565b5b92915050565b7f4e487b7100000000000000000000000000000000000000000000000000000000600052601260045260246000fd5b60006144a5826133d7565b91506144b0836133d7565b9250826144c0576144bf61446b565b5b828204905092915050565b7f4e487b7100000000000000000000000000000000000000000000000000000000600052603260045260246000fd5b6000614505826133d7565b91507fffffffffffffffffffffffffffffffffffffffffffffffffffffffffffffffff8203614537576145366140bc565b5b600182019050919050565b6000604082019050818103600083015261455c8185613c33565b905081810360208301526145708184613c33565b90509392505050565b7f556e61626c6520746f20706c61636520626574732c20636865636b206172677560008201527f6d656e74732e0000000000000000000000000000000000000000000000000000602082015250565b60006145d5602683613c22565b91506145e082614579565b604082019050919050565b60006020820190508181036000830152614604816145c8565b9050919050565b7f417474656d7074656420746f20706c61636520696e76616c6964206265742c2060008201527f636865636b20616d6f756e747320616e6420726573756c747300000000000000602082015250565b6000614667603983613c22565b91506146728261460b565b604082019050919050565b600060208201905081810360008301526146968161465a565b9050919050565b60006146a8826133d7565b91506146b3836133d7565b92508282039050818111156146cb576146ca6140bc565b5b92915050565b600081905092915050565b50565b60006146ec6000836146d1565b91506146f7826146dc565b600082019050919050565b600061470d826146df565b9150819050919050565b7f4661696c656420746f207472616e7366657220666978656420636f6d6d69737360008201527f696f6e20746f20636f6e74726163742063726561746f722e0000000000000000602082015250565b6000614773603883613c22565b915061477e82614717565b604082019050919050565b600060208201905081810360008301526147a281614766565b9050919050565b600081546147b68161408b565b6147c08186614009565b945060018216600081146147db57600181146147f057614823565b60ff1983168652811515820286019350614823565b6147f9856141b1565b60005b8381101561481b578154818901526001820191506020810190506147fc565b838801955050505b50505092915050565b600061483882846147a9565b915081905092915050565b7f496e76616c696420626574207374617465207768696c6520636c61696d696e6760008201527f207265776172642e000000000000000000000000000000000000000000000000602082015250565b600061489f602883613c22565b91506148aa82614843565b604082019050919050565b600060208201905081810360008301526148ce81614892565b9050919050565b60006148e0826133d7565b91506148eb836133d7565b92508282026148f9816133d7565b915082820484148315176149105761490f6140bc565b5b5092915050565b7f4661696c656420746f207472616e736665722072657761726420746f2075736560008201527f722e000000000000000000000000000000000000000000000000000000000000602082015250565b6000614973602283613c22565b915061497e82614917565b604082019050919050565b600060208201905081810360008301526149a281614966565b9050919050565b7f4661696c656420746f207472616e7366657220636f6d6d697373696f6e20746f60008201527f20626574206f776e65722e000000000000000000000000000000000000000000602082015250565b6000614a05602b83613c22565b9150614a10826149a9565b604082019050919050565b60006020820190508181036000830152614a34816149f8565b9050919050565b7f6f6e6c79206f7261636c652063616e207265706f72742074686520726573756c60008201527f7400000000000000000000000000000000000000000000000000000000000000602082015250565b6000614a97602183613c22565b9150614aa282614a3b565b604082019050919050565b60006020820190508181036000830152614ac681614a8a565b905091905056fea2646970667358221220ff67d055d010676a669e83c3fb5ffa9d9a3362523e6d85495801b4ce8c99bd6f64736f6c63430008110033",
  "immutableReferences": {},
  "source": "// SPDX-License-Identifier: MIT\r\npragma solidity 0.8.17;\r\npragma experimental ABIEncoderV2;\r\n\r\ncontract PredictionMarket{\r\n\r\n    address payable contractCreator;\r\n    address public oracle;\r\n\r\n    constructor(address _oracle) payable {\r\n        contractCreator = payable(msg.sender);\r\n        oracle = _oracle;\r\n    }\r\n\r\n    // Prediction Market Contract Creator reward\r\n    // There's a 10 wei fixed commission transferred to the contract's creator for every placed bet\r\n    uint256 constant fixedCommission = 100;\r\n    // Minimum entry for all bets, topic owners cannot set it lower than this \r\n    uint256 constant minimumBet = fixedCommission + 1;\r\n\r\n    // topic mappings: \r\n    string[] public allTopics;\r\n    // Keep track of all createdTopics to prevent duplicates\r\n    mapping(string => bool) public createdTopics;\r\n\r\n    // There are two different dates associated with each created topic:\r\n    // 1. deadline when a user can no longer place new bets\r\n    mapping(string => uint64) public topicDeadlines;\r\n    // 2. deadline for oracle to submit the bet's final result - fixed at 30 days after topicDeadline\r\n    uint64 constant scheduleThreshold = 30 * 24 * 60 * 60; \r\n    mapping(string => uint64) public topicSchedules;\r\n\r\n\r\n    // Keep track of all owners to handle commission fees\r\n    mapping(string => address payable) public topicOwners; \r\n    mapping(string => address) public topicArbitrator; \r\n\r\n    // commision related:\r\n    mapping(string => uint256) public topicCommissions;\r\n    // Custom minimum entry for each topic, set by their owner\r\n    mapping(string => uint256) public topicMinimum;\r\n\r\n    // Total pooled per topic\r\n    mapping(string => uint256) public topicPools;\r\n\r\n    // For each topic, how much is the total pooled per side; resultPools[topicID][side]\r\n    mapping(string => mapping(string => uint256)) public resultPools;\r\n    // For each topic, how much each has each user put into that topic's pool; userPools[topicID][msg.sender]\r\n    mapping(string => mapping(address => uint256)) public userPools;\r\n    \r\n    // query price for oracle to submit bet results\r\n    uint256 public oraclePrice;\r\n\r\n    // Not enough to pay for it, the user should be informed and their funds returned\r\n    event LackingFunds(address indexed sender, uint256 funds);\r\n\r\n    /* Contains all the information that does not need to be saved as a state variable, \r\n    but which can prove useful to people taking a look at the bet in the frontend. */\r\n    event CreatedBet(string indexed _id, string description, string query);\r\n\r\n    struct topics {\r\n        string id;\r\n        string name;\r\n        string[] outcomes;\r\n        uint64 endDate;\r\n        uint256 minBet;\r\n        uint256 comm;\r\n        string desc;\r\n        address judge;\r\n        bool finished;\r\n        string result;\r\n    }\r\n\r\n    // list of all topics\r\n    // topics[] public topicList;\r\n    mapping(string => topics) topicList;\r\n\r\n    mapping(string => string[]) topicSides;\r\n\r\n    struct oneBet{\r\n        string topicid;\r\n        address user;\r\n        string side;\r\n        uint256 amt;\r\n    }\r\n\r\n    // bets by user\r\n    mapping(address => oneBet[]) allBets;\r\n    // bets by topic\r\n    mapping(string => oneBet[]) allBetsByTopic;\r\n\r\n    function createTopic(string memory topicID, string memory topic, string[] memory sides, uint64 deadline, uint256 minimum, uint256 commission, string memory description, address _arbitrator) public {\r\n\r\n        require(\r\n            bytes(topicID).length > 0\r\n            && sides.length > 1\r\n            && deadline > block.timestamp // topic can't be set in the past\r\n            // && deadline <= schedule // Users should only be able to place bets before it is actually executed\r\n            // && schedule < block.timestamp + scheduleThreshold\r\n            && commission <= 20 // maximum comission is 20%\r\n            && minimum >= minimumBet\r\n            && !createdTopics[topicID], // Can't have duplicate topics\r\n            \"Unable to create topic, check arguments.\"\r\n        );\r\n\r\n        // // The remaining balance should be enough to cover the cost of the smart oracle query\r\n        // uint256 balance = msg.value;\r\n\r\n        // // oraclePrice = provable_getPrice(\"URL\");\r\n        // oraclePrice = 0;\r\n\r\n        // if (oraclePrice > balance) {\r\n        //     emit LackingFunds(msg.sender, oraclePrice);\r\n        //     (bool success, ) = msg.sender.call.value(msg.value)(\"\");\r\n        //     require(success, \"Error when returning funds to bet owner.\");\r\n        //     return;\r\n        // }\r\n\r\n        // Create topic\r\n        allTopics.push(topicID);\r\n        createdTopics[topicID] = true;\r\n        topicOwners[topicID] = payable(msg.sender);\r\n        topicDeadlines[topicID] = deadline;\r\n        topicSchedules[topicID] = deadline + scheduleThreshold;\r\n        topicMinimum[topicID] = minimum;\r\n        topicCommissions[topicID] = 100/commission;\r\n        topicArbitrator[topicID]= _arbitrator;\r\n        topicSides[topicID] = sides;\r\n\r\n        topicList[topicID] = (topics(topicID, topic, sides, deadline, minimum, commission, description, _arbitrator, false, \"\"));\r\n\r\n        // initialize the sides, set pool for each side to 0\r\n        for (uint i = 0; i < sides.length; i++) {\r\n            resultPools[topicID][sides[i]] = 0;\r\n        }\r\n\r\n        emit CreatedBet(topicID, description, topic);\r\n    }\r\n\r\n    // The table in the frontend representing each topic's pool is populated according to these events.\r\n    event PlacedBets(address indexed user, string indexed _id, string id, string side);\r\n\r\n    // For each bet, track how much each user has put into each side\r\n    mapping(string => mapping(address => mapping(string => uint256))) public userBets;\r\n    \r\n    // only allow user to bet on 1 topic and 1 side each time\r\n    function placeBet(string memory topicID, string memory side) public payable {\r\n        require(\r\n            createdTopics[topicID]\r\n            && !finishedTopics[topicID] \r\n            && topicDeadlines[topicID] >= block.timestamp,\r\n        \"Unable to place bets, check arguments.\");\r\n\r\n        uint256 bet = msg.value;\r\n\r\n        require(\r\n        bytes(side).length > 0 \r\n        && msg.value >= topicMinimum[topicID],\r\n        \"Attempted to place invalid bet, check amounts and results\");\r\n\r\n        bet -= fixedCommission;\r\n\r\n        // Update all required state\r\n        resultPools[topicID][side] += bet;\r\n        userPools[topicID][msg.sender] += bet;\r\n        topicPools[topicID] += bet;\r\n        userBets[topicID][msg.sender][side] += bet;\r\n\r\n        allBets[msg.sender].push(oneBet(topicID, msg.sender, side, bet));\r\n        allBetsByTopic[topicID].push(oneBet(topicID, msg.sender, side, bet));\r\n\r\n        // Fixed commission transfer\r\n        (bool success, ) = contractCreator.call{value: fixedCommission}(\"\");\r\n        require(success, \"Failed to transfer fixed commission to contract creator.\");\r\n\r\n        emit PlacedBets(msg.sender, topicID, topicID, side);\r\n    }\r\n\r\n    // Keep track of when a bet ends and what its result was\r\n    mapping(string => bool) public finishedTopics;\r\n    mapping(string => string) public topicResults;\r\n\r\n    // Emit result\r\n    event ReportedResult(string indexed _id, string result);\r\n\r\n    // Function executed by oracle when the topic is scheduled to close\r\n    function reportResult(string memory topicID, string memory result) public {\r\n        require(msg.sender == topicArbitrator[topicID] && !finishedTopics[topicID], 'only oracle can report the result');\r\n        \r\n        topicResults[topicID] = result;\r\n        finishedTopics[topicID] = true;\r\n        \r\n        topicList[topicID].finished = true;\r\n        topicList[topicID].result = result;\r\n\r\n        emit ReportedResult(topicID, result);\r\n    }\r\n\r\n    // For each bet, track which users have already claimed their potential reward\r\n    mapping(string => mapping(address => bool)) public claimedBets;\r\n    \r\n    /* If the oracle service's scheduled callback was not executed after 5 days, \r\n    a user can reclaim his funds after the bet's execution threshold has passed. \r\n    Note that even if the callback execution is delayed,\r\n    oracle should've extracted the result at the originally scheduled time. */\r\n    uint64 constant topicThreshold = 5 * 24 * 60 * 60;\r\n    \r\n    // If the user wins the bet, let them know along with the reward amount.\r\n    event WonBet(address indexed winner, uint256 won);\r\n    \r\n    // If the user lost no funds are claimable.\r\n    event LostBet(address indexed loser);\r\n    \r\n    /* If no one wins the bet the funds can be refunded to the user, \r\n    after the bet creator's takes their cut. */\r\n    event UnwonBet(address indexed refunded);\r\n    \r\n    function claimBet(string memory topicID) public {\r\n        bool topicExpired = topicSchedules[topicID] + topicThreshold < block.timestamp;\r\n        \r\n        // If the bet has not finished but its threshold has been reached, let the user get back their funds\r\n        require(\r\n            (finishedTopics[topicID] || topicExpired) \r\n            && !claimedBets[topicID][msg.sender] \r\n            && userPools[topicID][msg.sender] != 0,\r\n        \"Invalid bet state while claiming reward.\");\r\n        \r\n        claimedBets[topicID][msg.sender] = true;\r\n        \r\n        string memory result = topicResults[topicID];\r\n        uint256 userBet = userBets[topicID][msg.sender][result];\r\n        uint256 winnerPool = resultPools[topicID][result];\r\n        uint256 reward;\r\n        \r\n        if (winnerPool == 0) {\r\n            // If no one won then all bets are refunded\r\n            reward = userPools[topicID][msg.sender];\r\n            emit UnwonBet(msg.sender);\r\n        } else if (userBet != 0) {\r\n            // User gets their corresponding fraction of the loser's pool, along with their original bet\r\n            uint256 loserPool = topicPools[topicID] - winnerPool;\r\n            reward = userBet + loserPool * userBet / winnerPool;\r\n            emit WonBet(msg.sender, reward);\r\n        } else {\r\n            // User lost\r\n            emit LostBet(msg.sender);\r\n            return;\r\n        }\r\n        \r\n        // Bet owner gets their commission\r\n        uint256 ownerFee = reward / topicCommissions[topicID];\r\n        reward -= ownerFee;\r\n        (bool success, ) = msg.sender.call{value:reward}(\"\");\r\n        require(success, \"Failed to transfer reward to user.\");\r\n        (success, ) = topicOwners[topicID].call{value:ownerFee}(\"\");\r\n        require(success, \"Failed to transfer commission to bet owner.\");\r\n    }\r\n\r\n    // return all topics\r\n    function getTopics() public view returns (topics[] memory){\r\n        topics[] memory id = new topics[](allTopics.length);\r\n        for (uint i = 0; i < allTopics.length; i++) {\r\n          topics storage member = topicList[allTopics[i]];\r\n          id[i] = member;\r\n        }\r\n      return id;\r\n    }\r\n\r\n    // return one topic \r\n    function getTopic(string memory id) public view returns (topics memory){\r\n        return topicList[id];\r\n    }\r\n\r\n    // return all bets a user has made\r\n    // should address be param or message sender?\r\n    function getUserBets(address _user) public view returns (oneBet[] memory){\r\n        return allBets[_user];\r\n    }\r\n\r\n    // return bets by topic\r\n    function getBetsByTopic(string memory topicID) public view returns (oneBet[] memory){\r\n        return allBetsByTopic[topicID];\r\n    }\r\n\r\n    // get pool for a topic\r\n    function getTopicPool(string memory topicID) public view returns (string[] memory sides, uint256[] memory amounts){\r\n        // mapping(string => mapping(string => uint256)) public resultPools;\r\n        uint256[] memory amounts = new uint256[](topicSides[topicID].length);\r\n        for (uint i = 0; i < topicSides[topicID].length; i++) {\r\n          amounts[i] = resultPools[topicID][topicSides[topicID][i]];\r\n        }\r\n        return (topicSides[topicID], amounts);\r\n    }\r\n\r\n\r\n    /*\r\n    // function to check if user has claimed the bet for a topic already\r\n\r\n    // function to check if user is owner of a topic\r\n    function isOwner(address person) public view returns (bool result){\r\n        topicOwners\r\n    }\r\n    */\r\n}\r\n",
  "sourcePath": "C:\\Users\\duankai\\Documents\\code\\CZ4153-lilibet\\contracts\\PredictionMarket.sol",
  "compiler": {
    "name": "solc",
    "version": "0.8.17+commit.8df45f5f.Emscripten.clang"
  },
  "schemaVersion": "3.4.10",
  "updatedAt": "2022-10-12T16:00:31.641Z",
  "networkType": "ethereum",
  "devdoc": {
    "kind": "dev",
    "methods": {},
    "version": 1
  },
  "userdoc": {
    "kind": "user",
    "methods": {},
    "version": 1
  }
}