{
  "contractName": "PredictionMarket",
  "abi": [
    {
      "inputs": [
        {
          "internalType": "address",
          "name": "_oracle",
          "type": "address"
        }
      ],
      "stateMutability": "payable",
      "type": "constructor"
    },
    {
      "anonymous": false,
      "inputs": [
        {
          "indexed": true,
          "internalType": "string",
          "name": "_id",
          "type": "string"
        },
        {
          "indexed": false,
          "internalType": "string",
          "name": "description",
          "type": "string"
        },
        {
          "indexed": false,
          "internalType": "string",
          "name": "query",
          "type": "string"
        }
      ],
      "name": "CreatedBet",
      "type": "event"
    },
    {
      "anonymous": false,
      "inputs": [
        {
          "indexed": true,
          "internalType": "address",
          "name": "sender",
          "type": "address"
        },
        {
          "indexed": false,
          "internalType": "uint256",
          "name": "funds",
          "type": "uint256"
        }
      ],
      "name": "LackingFunds",
      "type": "event"
    },
    {
      "anonymous": false,
      "inputs": [
        {
          "indexed": true,
          "internalType": "address",
          "name": "loser",
          "type": "address"
        }
      ],
      "name": "LostBet",
      "type": "event"
    },
    {
      "anonymous": false,
      "inputs": [
        {
          "indexed": true,
          "internalType": "address",
          "name": "user",
          "type": "address"
        },
        {
          "indexed": true,
          "internalType": "string",
          "name": "_id",
          "type": "string"
        },
        {
          "indexed": false,
          "internalType": "string",
          "name": "id",
          "type": "string"
        },
        {
          "indexed": false,
          "internalType": "string",
          "name": "side",
          "type": "string"
        }
      ],
      "name": "PlacedBets",
      "type": "event"
    },
    {
      "anonymous": false,
      "inputs": [
        {
          "indexed": true,
          "internalType": "string",
          "name": "_id",
          "type": "string"
        },
        {
          "indexed": false,
          "internalType": "string",
          "name": "result",
          "type": "string"
        }
      ],
      "name": "ReportedResult",
      "type": "event"
    },
    {
      "anonymous": false,
      "inputs": [
        {
          "indexed": true,
          "internalType": "address",
          "name": "refunded",
          "type": "address"
        }
      ],
      "name": "UnwonBet",
      "type": "event"
    },
    {
      "anonymous": false,
      "inputs": [
        {
          "indexed": true,
          "internalType": "address",
          "name": "winner",
          "type": "address"
        },
        {
          "indexed": false,
          "internalType": "uint256",
          "name": "won",
          "type": "uint256"
        }
      ],
      "name": "WonBet",
      "type": "event"
    },
    {
      "inputs": [
        {
          "internalType": "uint256",
          "name": "",
          "type": "uint256"
        }
      ],
      "name": "allTopics",
      "outputs": [
        {
          "internalType": "string",
          "name": "",
          "type": "string"
        }
      ],
      "stateMutability": "view",
      "type": "function"
    },
    {
      "inputs": [
        {
          "internalType": "string",
          "name": "",
          "type": "string"
        },
        {
          "internalType": "address",
          "name": "",
          "type": "address"
        }
      ],
      "name": "claimedBets",
      "outputs": [
        {
          "internalType": "bool",
          "name": "",
          "type": "bool"
        }
      ],
      "stateMutability": "view",
      "type": "function"
    },
    {
      "inputs": [
        {
          "internalType": "string",
          "name": "",
          "type": "string"
        }
      ],
      "name": "createdTopics",
      "outputs": [
        {
          "internalType": "bool",
          "name": "",
          "type": "bool"
        }
      ],
      "stateMutability": "view",
      "type": "function"
    },
    {
      "inputs": [
        {
          "internalType": "string",
          "name": "",
          "type": "string"
        }
      ],
      "name": "finishedTopics",
      "outputs": [
        {
          "internalType": "bool",
          "name": "",
          "type": "bool"
        }
      ],
      "stateMutability": "view",
      "type": "function"
    },
    {
      "inputs": [],
      "name": "oracle",
      "outputs": [
        {
          "internalType": "address",
          "name": "",
          "type": "address"
        }
      ],
      "stateMutability": "view",
      "type": "function"
    },
    {
      "inputs": [],
      "name": "oraclePrice",
      "outputs": [
        {
          "internalType": "uint256",
          "name": "",
          "type": "uint256"
        }
      ],
      "stateMutability": "view",
      "type": "function"
    },
    {
      "inputs": [
        {
          "internalType": "string",
          "name": "",
          "type": "string"
        },
        {
          "internalType": "string",
          "name": "",
          "type": "string"
        }
      ],
      "name": "resultPools",
      "outputs": [
        {
          "internalType": "uint256",
          "name": "",
          "type": "uint256"
        }
      ],
      "stateMutability": "view",
      "type": "function"
    },
    {
      "inputs": [
        {
          "internalType": "string",
          "name": "",
          "type": "string"
        }
      ],
      "name": "topicArbitrator",
      "outputs": [
        {
          "internalType": "address",
          "name": "",
          "type": "address"
        }
      ],
      "stateMutability": "view",
      "type": "function"
    },
    {
      "inputs": [
        {
          "internalType": "string",
          "name": "",
          "type": "string"
        }
      ],
      "name": "topicCommissions",
      "outputs": [
        {
          "internalType": "uint256",
          "name": "",
          "type": "uint256"
        }
      ],
      "stateMutability": "view",
      "type": "function"
    },
    {
      "inputs": [
        {
          "internalType": "string",
          "name": "",
          "type": "string"
        }
      ],
      "name": "topicDeadlines",
      "outputs": [
        {
          "internalType": "uint64",
          "name": "",
          "type": "uint64"
        }
      ],
      "stateMutability": "view",
      "type": "function"
    },
    {
      "inputs": [
        {
          "internalType": "string",
          "name": "",
          "type": "string"
        }
      ],
      "name": "topicMinimum",
      "outputs": [
        {
          "internalType": "uint256",
          "name": "",
          "type": "uint256"
        }
      ],
      "stateMutability": "view",
      "type": "function"
    },
    {
      "inputs": [
        {
          "internalType": "string",
          "name": "",
          "type": "string"
        }
      ],
      "name": "topicOwners",
      "outputs": [
        {
          "internalType": "address payable",
          "name": "",
          "type": "address"
        }
      ],
      "stateMutability": "view",
      "type": "function"
    },
    {
      "inputs": [
        {
          "internalType": "string",
          "name": "",
          "type": "string"
        }
      ],
      "name": "topicPools",
      "outputs": [
        {
          "internalType": "uint256",
          "name": "",
          "type": "uint256"
        }
      ],
      "stateMutability": "view",
      "type": "function"
    },
    {
      "inputs": [
        {
          "internalType": "string",
          "name": "",
          "type": "string"
        }
      ],
      "name": "topicResults",
      "outputs": [
        {
          "internalType": "string",
          "name": "",
          "type": "string"
        }
      ],
      "stateMutability": "view",
      "type": "function"
    },
    {
      "inputs": [
        {
          "internalType": "string",
          "name": "",
          "type": "string"
        }
      ],
      "name": "topicSchedules",
      "outputs": [
        {
          "internalType": "uint64",
          "name": "",
          "type": "uint64"
        }
      ],
      "stateMutability": "view",
      "type": "function"
    },
    {
      "inputs": [
        {
          "internalType": "string",
          "name": "",
          "type": "string"
        },
        {
          "internalType": "address",
          "name": "",
          "type": "address"
        },
        {
          "internalType": "string",
          "name": "",
          "type": "string"
        }
      ],
      "name": "userBets",
      "outputs": [
        {
          "internalType": "uint256",
          "name": "",
          "type": "uint256"
        }
      ],
      "stateMutability": "view",
      "type": "function"
    },
    {
      "inputs": [
        {
          "internalType": "string",
          "name": "",
          "type": "string"
        },
        {
          "internalType": "address",
          "name": "",
          "type": "address"
        }
      ],
      "name": "userPools",
      "outputs": [
        {
          "internalType": "uint256",
          "name": "",
          "type": "uint256"
        }
      ],
      "stateMutability": "view",
      "type": "function"
    },
    {
      "inputs": [
        {
          "internalType": "string",
          "name": "topicID",
          "type": "string"
        },
        {
          "internalType": "string",
          "name": "topic",
          "type": "string"
        },
        {
          "internalType": "string[]",
          "name": "sides",
          "type": "string[]"
        },
        {
          "internalType": "uint64",
          "name": "deadline",
          "type": "uint64"
        },
        {
          "internalType": "uint256",
          "name": "minimum",
          "type": "uint256"
        },
        {
          "internalType": "uint256",
          "name": "commission",
          "type": "uint256"
        },
        {
          "internalType": "string",
          "name": "description",
          "type": "string"
        },
        {
          "internalType": "address",
          "name": "_arbitrator",
          "type": "address"
        }
      ],
      "name": "createTopic",
      "outputs": [],
      "stateMutability": "nonpayable",
      "type": "function"
    },
    {
      "inputs": [
        {
          "internalType": "string",
          "name": "topicID",
          "type": "string"
        },
        {
          "internalType": "string",
          "name": "side",
          "type": "string"
        }
      ],
      "name": "placeBet",
      "outputs": [],
      "stateMutability": "payable",
      "type": "function"
    },
    {
      "inputs": [
        {
          "internalType": "string",
          "name": "topicID",
          "type": "string"
        },
        {
          "internalType": "string",
          "name": "result",
          "type": "string"
        }
      ],
      "name": "reportResult",
      "outputs": [],
      "stateMutability": "nonpayable",
      "type": "function"
    },
    {
      "inputs": [
        {
          "internalType": "string",
          "name": "topicID",
          "type": "string"
        }
      ],
      "name": "claimBet",
      "outputs": [],
      "stateMutability": "nonpayable",
      "type": "function"
    },
    {
      "inputs": [],
      "name": "getTopics",
      "outputs": [
        {
          "components": [
            {
              "internalType": "string",
              "name": "id",
              "type": "string"
            },
            {
              "internalType": "string",
              "name": "name",
              "type": "string"
            },
            {
              "internalType": "string[]",
              "name": "outcomes",
              "type": "string[]"
            },
            {
              "internalType": "uint64",
              "name": "endDate",
              "type": "uint64"
            },
            {
              "internalType": "uint256",
              "name": "minBet",
              "type": "uint256"
            },
            {
              "internalType": "uint256",
              "name": "comm",
              "type": "uint256"
            },
            {
              "internalType": "string",
              "name": "desc",
              "type": "string"
            },
            {
              "internalType": "address",
              "name": "judge",
              "type": "address"
            },
            {
              "internalType": "bool",
              "name": "finished",
              "type": "bool"
            },
            {
              "internalType": "string",
              "name": "result",
              "type": "string"
            }
          ],
          "internalType": "struct PredictionMarket.topics[]",
          "name": "",
          "type": "tuple[]"
        }
      ],
      "stateMutability": "view",
      "type": "function"
    },
    {
      "inputs": [
        {
          "internalType": "string",
          "name": "id",
          "type": "string"
        }
      ],
      "name": "getTopic",
      "outputs": [
        {
          "components": [
            {
              "internalType": "string",
              "name": "id",
              "type": "string"
            },
            {
              "internalType": "string",
              "name": "name",
              "type": "string"
            },
            {
              "internalType": "string[]",
              "name": "outcomes",
              "type": "string[]"
            },
            {
              "internalType": "uint64",
              "name": "endDate",
              "type": "uint64"
            },
            {
              "internalType": "uint256",
              "name": "minBet",
              "type": "uint256"
            },
            {
              "internalType": "uint256",
              "name": "comm",
              "type": "uint256"
            },
            {
              "internalType": "string",
              "name": "desc",
              "type": "string"
            },
            {
              "internalType": "address",
              "name": "judge",
              "type": "address"
            },
            {
              "internalType": "bool",
              "name": "finished",
              "type": "bool"
            },
            {
              "internalType": "string",
              "name": "result",
              "type": "string"
            }
          ],
          "internalType": "struct PredictionMarket.topics",
          "name": "",
          "type": "tuple"
        }
      ],
      "stateMutability": "view",
      "type": "function"
    },
    {
      "inputs": [
        {
          "internalType": "address",
          "name": "_user",
          "type": "address"
        }
      ],
      "name": "getUserBets",
      "outputs": [
        {
          "components": [
            {
              "internalType": "string",
              "name": "topicid",
              "type": "string"
            },
            {
              "internalType": "address",
              "name": "user",
              "type": "address"
            },
            {
              "internalType": "string",
              "name": "side",
              "type": "string"
            },
            {
              "internalType": "uint256",
              "name": "amt",
              "type": "uint256"
            }
          ],
          "internalType": "struct PredictionMarket.oneBet[]",
          "name": "",
          "type": "tuple[]"
        }
      ],
      "stateMutability": "view",
      "type": "function"
    },
    {
      "inputs": [
        {
          "internalType": "string",
          "name": "topicID",
          "type": "string"
        }
      ],
      "name": "getBetsByTopic",
      "outputs": [
        {
          "components": [
            {
              "internalType": "string",
              "name": "topicid",
              "type": "string"
            },
            {
              "internalType": "address",
              "name": "user",
              "type": "address"
            },
            {
              "internalType": "string",
              "name": "side",
              "type": "string"
            },
            {
              "internalType": "uint256",
              "name": "amt",
              "type": "uint256"
            }
          ],
          "internalType": "struct PredictionMarket.oneBet[]",
          "name": "",
          "type": "tuple[]"
        }
      ],
      "stateMutability": "view",
      "type": "function"
    },
    {
      "inputs": [],
      "name": "getTopicPool",
      "outputs": [
        {
          "components": [
            {
              "internalType": "string",
              "name": "id",
              "type": "string"
            },
            {
              "components": [
                {
                  "internalType": "string",
                  "name": "side",
                  "type": "string"
                },
                {
                  "internalType": "uint256",
                  "name": "amount",
                  "type": "uint256"
                }
              ],
              "internalType": "struct PredictionMarket.indivPool[]",
              "name": "pools",
              "type": "tuple[]"
            }
          ],
          "internalType": "struct PredictionMarket.pool[]",
          "name": "",
          "type": "tuple[]"
        }
      ],
      "stateMutability": "view",
      "type": "function"
    }
  ],
  "bytecode": "0x608060405260405162004e8738038062004e8783398181016040528101906200002991906200011b565b336000806101000a81548173ffffffffffffffffffffffffffffffffffffffff021916908373ffffffffffffffffffffffffffffffffffffffff16021790555080600160006101000a81548173ffffffffffffffffffffffffffffffffffffffff021916908373ffffffffffffffffffffffffffffffffffffffff160217905550506200014d565b600080fd5b600073ffffffffffffffffffffffffffffffffffffffff82169050919050565b6000620000e382620000b6565b9050919050565b620000f581620000d6565b81146200010157600080fd5b50565b6000815190506200011581620000ea565b92915050565b600060208284031215620001345762000133620000b1565b5b6000620001448482850162000104565b91505092915050565b614d2a806200015d6000396000f3fe6080604052600436106101805760003560e01c8063992515b0116100d1578063d6e46d831161008a578063e498bae111610064578063e498bae114610630578063f13dfc2b1461066d578063fd17ec1c146106aa578063fee01177146106e757610180565b8063d6e46d831461058b578063dd5d16a4146105b6578063deb233f0146105f357610180565b8063992515b0146104315780639a6e238f1461046e578063ac13fe3314610497578063b57e26f0146104d4578063c0a980a514610511578063cfc4659f1461054e57610180565b8063607f24121161013e5780637d385593116101185780637d385593146103635780637dc0d1d0146103a057806384a82269146103cb57806385bf206a1461040857610180565b8063607f2412146102be578063668aa824146102fb578063689f552b1461032657610180565b8062bffdac1461018557806301347c14146101c25780632d56657d146101eb5780632de190e914610228578063474502d8146102655780634844f367146102a2575b600080fd5b34801561019157600080fd5b506101ac60048036038101906101a7919061340e565b610712565b6040516101b9919061365c565b60405180910390f35b3480156101ce57600080fd5b506101e960048036038101906101e491906137fc565b610913565b005b3480156101f757600080fd5b50610212600480360381019061020d9190613922565b610ea4565b60405161021f919061365c565b60405180910390f35b34801561023457600080fd5b5061024f600480360381019061024a919061340e565b6110c6565b60405161025c919061396a565b60405180910390f35b34801561027157600080fd5b5061028c6004803603810190610287919061340e565b6110fc565b6040516102999190613b5b565b60405180910390f35b6102bc60048036038101906102b79190613b7d565b61150d565b005b3480156102ca57600080fd5b506102e560048036038101906102e09190613bf5565b611b52565b6040516102f29190613c6c565b60405180910390f35b34801561030757600080fd5b50610310611bfe565b60405161031d9190613c9d565b60405180910390f35b34801561033257600080fd5b5061034d6004803603810190610348919061340e565b611c04565b60405161035a9190613c9d565b60405180910390f35b34801561036f57600080fd5b5061038a60048036038101906103859190613cb8565b611c32565b6040516103979190613c9d565b60405180910390f35b3480156103ac57600080fd5b506103b5611c90565b6040516103c29190613d52565b60405180910390f35b3480156103d757600080fd5b506103f260048036038101906103ed919061340e565b611cb6565b6040516103ff9190613d8e565b60405180910390f35b34801561041457600080fd5b5061042f600480360381019061042a919061340e565b611cff565b005b34801561043d57600080fd5b506104586004803603810190610453919061340e565b6123ff565b6040516104659190613d52565b60405180910390f35b34801561047a57600080fd5b5061049560048036038101906104909190613b7d565b612448565b005b3480156104a357600080fd5b506104be60048036038101906104b9919061340e565b612646565b6040516104cb9190613db8565b60405180910390f35b3480156104e057600080fd5b506104fb60048036038101906104f69190613dd3565b612683565b6040516105089190613c9d565b60405180910390f35b34801561051d57600080fd5b506105386004803603810190610533919061340e565b6126be565b6040516105459190613c6c565b60405180910390f35b34801561055a57600080fd5b506105756004803603810190610570919061340e565b612774565b604051610582919061396a565b60405180910390f35b34801561059757600080fd5b506105a06127aa565b6040516105ad9190614034565b60405180910390f35b3480156105c257600080fd5b506105dd60048036038101906105d89190613dd3565b612b35565b6040516105ea919061396a565b60405180910390f35b3480156105ff57600080fd5b5061061a6004803603810190610615919061340e565b612b7a565b6040516106279190613c9d565b60405180910390f35b34801561063c57600080fd5b5061065760048036038101906106529190613b7d565b612ba8565b6040516106649190613c9d565b60405180910390f35b34801561067957600080fd5b50610694600480360381019061068f919061340e565b612bf9565b6040516106a19190613c9d565b60405180910390f35b3480156106b657600080fd5b506106d160048036038101906106cc919061340e565b612c27565b6040516106de9190613db8565b60405180910390f35b3480156106f357600080fd5b506106fc612c64565b604051610709919061420e565b60405180910390f35b6060601182604051610724919061426c565b9081526020016040518091039020805480602002602001604051908101604052809291908181526020016000905b828210156109085783829060005260206000209060040201604051806080016040529081600082018054610785906142b2565b80601f01602080910402602001604051908101604052809291908181526020018280546107b1906142b2565b80156107fe5780601f106107d3576101008083540402835291602001916107fe565b820191906000526020600020905b8154815290600101906020018083116107e157829003601f168201915b505050505081526020016001820160009054906101000a900473ffffffffffffffffffffffffffffffffffffffff1673ffffffffffffffffffffffffffffffffffffffff1673ffffffffffffffffffffffffffffffffffffffff16815260200160028201805461086d906142b2565b80601f0160208091040260200160405190810160405280929190818152602001828054610899906142b2565b80156108e65780601f106108bb576101008083540402835291602001916108e6565b820191906000526020600020905b8154815290600101906020018083116108c957829003601f168201915b5050505050815260200160038201548152505081526020019060010190610752565b505050509050919050565b60008851118015610925575060018651115b801561093a5750428567ffffffffffffffff16115b8015610947575060148311155b801561096057506001606461095c9190614312565b8410155b80156109955750600388604051610977919061426c565b908152602001604051809103902060009054906101000a900460ff16155b6109d4576040517f08c379a00000000000000000000000000000000000000000000000000000000081526004016109cb906143b8565b60405180910390fd5b600288908060018154018082558091505060019003906000526020600020016000909190919091509081610a089190614584565b506001600389604051610a1b919061426c565b908152602001604051809103902060006101000a81548160ff02191690831515021790555033600689604051610a51919061426c565b908152602001604051809103902060006101000a81548173ffffffffffffffffffffffffffffffffffffffff021916908373ffffffffffffffffffffffffffffffffffffffff16021790555084600489604051610aae919061426c565b908152602001604051809103902060006101000a81548167ffffffffffffffff021916908367ffffffffffffffff16021790555062278d0085610af19190614656565b600589604051610b01919061426c565b908152602001604051809103902060006101000a81548167ffffffffffffffff021916908367ffffffffffffffff16021790555083600989604051610b46919061426c565b908152602001604051809103902081905550826064610b6591906146c1565b600889604051610b75919061426c565b90815260200160405180910390208190555080600789604051610b98919061426c565b908152602001604051809103902060006101000a81548173ffffffffffffffffffffffffffffffffffffffff021916908373ffffffffffffffffffffffffffffffffffffffff16021790555085600f89604051610bf5919061426c565b90815260200160405180910390209080519060200190610c16929190613131565b506040518061014001604052808981526020018881526020018781526020018667ffffffffffffffff1681526020018581526020018481526020018381526020018273ffffffffffffffffffffffffffffffffffffffff16815260200160001515815260200160405180602001604052806000815250815250600e89604051610c9f919061426c565b90815260200160405180910390206000820151816000019081610cc29190614584565b506020820151816001019081610cd89190614584565b506040820151816002019080519060200190610cf5929190613131565b5060608201518160030160006101000a81548167ffffffffffffffff021916908367ffffffffffffffff1602179055506080820151816004015560a0820151816005015560c0820151816006019081610d4e9190614584565b5060e08201518160070160006101000a81548173ffffffffffffffffffffffffffffffffffffffff021916908373ffffffffffffffffffffffffffffffffffffffff1602179055506101008201518160070160146101000a81548160ff021916908315150217905550610120820151816008019081610dcd9190614584565b5090505060005b8651811015610e4a576000600b8a604051610def919061426c565b9081526020016040518091039020888381518110610e1057610e0f6146f2565b5b6020026020010151604051610e25919061426c565b9081526020016040518091039020819055508080610e4290614721565b915050610dd4565b5087604051610e59919061426c565b60405180910390207fb1bcc673ab0845d61da71f0162df55efb4045dc9ced8906cfe5aa3a651c3be798389604051610e92929190614769565b60405180910390a25050505050505050565b6060601060008373ffffffffffffffffffffffffffffffffffffffff1673ffffffffffffffffffffffffffffffffffffffff168152602001908152602001600020805480602002602001604051908101604052809291908181526020016000905b828210156110bb5783829060005260206000209060040201604051806080016040529081600082018054610f38906142b2565b80601f0160208091040260200160405190810160405280929190818152602001828054610f64906142b2565b8015610fb15780601f10610f8657610100808354040283529160200191610fb1565b820191906000526020600020905b815481529060010190602001808311610f9457829003601f168201915b505050505081526020016001820160009054906101000a900473ffffffffffffffffffffffffffffffffffffffff1673ffffffffffffffffffffffffffffffffffffffff1673ffffffffffffffffffffffffffffffffffffffff168152602001600282018054611020906142b2565b80601f016020809104026020016040519081016040528092919081815260200182805461104c906142b2565b80156110995780601f1061106e57610100808354040283529160200191611099565b820191906000526020600020905b81548152906001019060200180831161107c57829003601f168201915b5050505050815260200160038201548152505081526020019060010190610f05565b505050509050919050565b6003818051602081018201805184825260208301602085012081835280955050505050506000915054906101000a900460ff1681565b61110461318a565b600e82604051611114919061426c565b90815260200160405180910390206040518061014001604052908160008201805461113e906142b2565b80601f016020809104026020016040519081016040528092919081815260200182805461116a906142b2565b80156111b75780601f1061118c576101008083540402835291602001916111b7565b820191906000526020600020905b81548152906001019060200180831161119a57829003601f168201915b505050505081526020016001820180546111d0906142b2565b80601f01602080910402602001604051908101604052809291908181526020018280546111fc906142b2565b80156112495780601f1061121e57610100808354040283529160200191611249565b820191906000526020600020905b81548152906001019060200180831161122c57829003601f168201915b5050505050815260200160028201805480602002602001604051908101604052809291908181526020016000905b82821015611323578382906000526020600020018054611296906142b2565b80601f01602080910402602001604051908101604052809291908181526020018280546112c2906142b2565b801561130f5780601f106112e45761010080835404028352916020019161130f565b820191906000526020600020905b8154815290600101906020018083116112f257829003601f168201915b505050505081526020019060010190611277565b5050505081526020016003820160009054906101000a900467ffffffffffffffff1667ffffffffffffffff1667ffffffffffffffff1681526020016004820154815260200160058201548152602001600682018054611381906142b2565b80601f01602080910402602001604051908101604052809291908181526020018280546113ad906142b2565b80156113fa5780601f106113cf576101008083540402835291602001916113fa565b820191906000526020600020905b8154815290600101906020018083116113dd57829003601f168201915b505050505081526020016007820160009054906101000a900473ffffffffffffffffffffffffffffffffffffffff1673ffffffffffffffffffffffffffffffffffffffff1673ffffffffffffffffffffffffffffffffffffffff1681526020016007820160149054906101000a900460ff16151515158152602001600882018054611484906142b2565b80601f01602080910402602001604051908101604052809291908181526020018280546114b0906142b2565b80156114fd5780601f106114d2576101008083540402835291602001916114fd565b820191906000526020600020905b8154815290600101906020018083116114e057829003601f168201915b5050505050815250509050919050565b60038260405161151d919061426c565b908152602001604051809103902060009054906101000a900460ff16801561156e5750601382604051611550919061426c565b908152602001604051809103902060009054906101000a900460ff16155b80156115b6575042600483604051611586919061426c565b908152602001604051809103902060009054906101000a900467ffffffffffffffff1667ffffffffffffffff1610155b6115f5576040517f08c379a00000000000000000000000000000000000000000000000000000000081526004016115ec90614812565b60405180910390fd5b6000349050600082511180156116295750600983604051611616919061426c565b9081526020016040518091039020543410155b611668576040517f08c379a000000000000000000000000000000000000000000000000000000000815260040161165f906148a4565b60405180910390fd5b60648161167591906148c4565b905080600b84604051611688919061426c565b9081526020016040518091039020836040516116a4919061426c565b908152602001604051809103902060008282546116c19190614312565b9250508190555080600c846040516116d9919061426c565b908152602001604051809103902060003373ffffffffffffffffffffffffffffffffffffffff1673ffffffffffffffffffffffffffffffffffffffff16815260200190815260200160002060008282546117339190614312565b9250508190555080600a8460405161174b919061426c565b908152602001604051809103902060008282546117689190614312565b9250508190555080601284604051611780919061426c565b908152602001604051809103902060003373ffffffffffffffffffffffffffffffffffffffff1673ffffffffffffffffffffffffffffffffffffffff168152602001908152602001600020836040516117d9919061426c565b908152602001604051809103902060008282546117f69190614312565b92505081905550601060003373ffffffffffffffffffffffffffffffffffffffff1673ffffffffffffffffffffffffffffffffffffffff16815260200190815260200160002060405180608001604052808581526020013373ffffffffffffffffffffffffffffffffffffffff16815260200184815260200183815250908060018154018082558091505060019003906000526020600020906004020160009091909190915060008201518160000190816118b19190614584565b5060208201518160010160006101000a81548173ffffffffffffffffffffffffffffffffffffffff021916908373ffffffffffffffffffffffffffffffffffffffff160217905550604082015181600201908161190e9190614584565b5060608201518160030155505060118360405161192b919061426c565b908152602001604051809103902060405180608001604052808581526020013373ffffffffffffffffffffffffffffffffffffffff16815260200184815260200183815250908060018154018082558091505060019003906000526020600020906004020160009091909190915060008201518160000190816119ae9190614584565b5060208201518160010160006101000a81548173ffffffffffffffffffffffffffffffffffffffff021916908373ffffffffffffffffffffffffffffffffffffffff1602179055506040820151816002019081611a0b9190614584565b5060608201518160030155505060008060009054906101000a900473ffffffffffffffffffffffffffffffffffffffff1673ffffffffffffffffffffffffffffffffffffffff166064604051611a6090614929565b60006040518083038185875af1925050503d8060008114611a9d576040519150601f19603f3d011682016040523d82523d6000602084013e611aa2565b606091505b5050905080611ae6576040517f08c379a0000000000000000000000000000000000000000000000000000000008152600401611add906149b0565b60405180910390fd5b83604051611af4919061426c565b60405180910390203373ffffffffffffffffffffffffffffffffffffffff167fcd230f7e44a2186de0bb3cf7714b1b492610b841c89ca3dcbd5b1333a3ec18e18686604051611b44929190614769565b60405180910390a350505050565b60028181548110611b6257600080fd5b906000526020600020016000915090508054611b7d906142b2565b80601f0160208091040260200160405190810160405280929190818152602001828054611ba9906142b2565b8015611bf65780601f10611bcb57610100808354040283529160200191611bf6565b820191906000526020600020905b815481529060010190602001808311611bd957829003601f168201915b505050505081565b600d5481565b6008818051602081018201805184825260208301602085012081835280955050505050506000915090505481565b6012838051602081018201805184825260208301602085012081835280955050505050506020528160005260406000208180516020810182018051848252602083016020850120818352809550505050505060009250925050505481565b600160009054906101000a900473ffffffffffffffffffffffffffffffffffffffff1681565b6006818051602081018201805184825260208301602085012081835280955050505050506000915054906101000a900473ffffffffffffffffffffffffffffffffffffffff1681565b60004262069780600584604051611d16919061426c565b908152602001604051809103902060009054906101000a900467ffffffffffffffff16611d439190614656565b67ffffffffffffffff16109050601382604051611d60919061426c565b908152602001604051809103902060009054906101000a900460ff1680611d845750805b8015611df65750601582604051611d9b919061426c565b908152602001604051809103902060003373ffffffffffffffffffffffffffffffffffffffff1673ffffffffffffffffffffffffffffffffffffffff16815260200190815260200160002060009054906101000a900460ff16155b8015611e5e57506000600c83604051611e0f919061426c565b908152602001604051809103902060003373ffffffffffffffffffffffffffffffffffffffff1673ffffffffffffffffffffffffffffffffffffffff1681526020019081526020016000205414155b611e9d576040517f08c379a0000000000000000000000000000000000000000000000000000000008152600401611e9490614a42565b60405180910390fd5b6001601583604051611eaf919061426c565b908152602001604051809103902060003373ffffffffffffffffffffffffffffffffffffffff1673ffffffffffffffffffffffffffffffffffffffff16815260200190815260200160002060006101000a81548160ff0219169083151502179055506000601483604051611f23919061426c565b90815260200160405180910390208054611f3c906142b2565b80601f0160208091040260200160405190810160405280929190818152602001828054611f68906142b2565b8015611fb55780601f10611f8a57610100808354040283529160200191611fb5565b820191906000526020600020905b815481529060010190602001808311611f9857829003601f168201915b505050505090506000601284604051611fce919061426c565b908152602001604051809103902060003373ffffffffffffffffffffffffffffffffffffffff1673ffffffffffffffffffffffffffffffffffffffff16815260200190815260200160002082604051612027919061426c565b90815260200160405180910390205490506000600b8560405161204a919061426c565b908152602001604051809103902083604051612066919061426c565b9081526020016040518091039020549050600080820361212657600c86604051612090919061426c565b908152602001604051809103902060003373ffffffffffffffffffffffffffffffffffffffff1673ffffffffffffffffffffffffffffffffffffffff1681526020019081526020016000205490503373ffffffffffffffffffffffffffffffffffffffff167fd062202474cb0be44012226d41105de1db85c69c417fbc111907fcbb25a44aa560405160405180910390a2612222565b600083146121d457600082600a88604051612141919061426c565b90815260200160405180910390205461215a91906148c4565b90508284826121699190614a62565b61217391906146c1565b8461217e9190614312565b91503373ffffffffffffffffffffffffffffffffffffffff167fe60bab41c59bb7b8da014b17716e6924f66553ddd1751db88bfa8d831fb3b7b5836040516121c69190613c9d565b60405180910390a250612221565b3373ffffffffffffffffffffffffffffffffffffffff167f111af70af2304203f6ba46b1d8b86b412f7a22d454c779f8c526df94a3c56e2e60405160405180910390a250505050506123fc565b5b6000600887604051612234919061426c565b9081526020016040518091039020548261224e91906146c1565b9050808261225c91906148c4565b915060003373ffffffffffffffffffffffffffffffffffffffff168360405161228490614929565b60006040518083038185875af1925050503d80600081146122c1576040519150601f19603f3d011682016040523d82523d6000602084013e6122c6565b606091505b505090508061230a576040517f08c379a000000000000000000000000000000000000000000000000000000000815260040161230190614b16565b60405180910390fd5b60068860405161231a919061426c565b908152602001604051809103902060009054906101000a900473ffffffffffffffffffffffffffffffffffffffff1673ffffffffffffffffffffffffffffffffffffffff168260405161236c90614929565b60006040518083038185875af1925050503d80600081146123a9576040519150601f19603f3d011682016040523d82523d6000602084013e6123ae565b606091505b505080915050806123f4576040517f08c379a00000000000000000000000000000000000000000000000000000000081526004016123eb90614ba8565b60405180910390fd5b505050505050505b50565b6007818051602081018201805184825260208301602085012081835280955050505050506000915054906101000a900473ffffffffffffffffffffffffffffffffffffffff1681565b600782604051612458919061426c565b908152602001604051809103902060009054906101000a900473ffffffffffffffffffffffffffffffffffffffff1673ffffffffffffffffffffffffffffffffffffffff163373ffffffffffffffffffffffffffffffffffffffff161480156124ea57506013826040516124cc919061426c565b908152602001604051809103902060009054906101000a900460ff16155b612529576040517f08c379a000000000000000000000000000000000000000000000000000000000815260040161252090614c3a565b60405180910390fd5b8060148360405161253a919061426c565b908152602001604051809103902090816125549190614584565b506001601383604051612567919061426c565b908152602001604051809103902060006101000a81548160ff0219169083151502179055506001600e8360405161259e919061426c565b908152602001604051809103902060070160146101000a81548160ff02191690831515021790555080600e836040516125d7919061426c565b908152602001604051809103902060080190816125f49190614584565b5081604051612603919061426c565b60405180910390207f9ebd80a0396fbf9d3cfaaba17ab4290390777c1f29bef764b78b7845acaa14618260405161263a9190613c6c565b60405180910390a25050565b6005818051602081018201805184825260208301602085012081835280955050505050506000915054906101000a900467ffffffffffffffff1681565b600c82805160208101820180518482526020830160208501208183528095505050505050602052806000526040600020600091509150505481565b60148180516020810182018051848252602083016020850120818352809550505050505060009150905080546126f3906142b2565b80601f016020809104026020016040519081016040528092919081815260200182805461271f906142b2565b801561276c5780601f106127415761010080835404028352916020019161276c565b820191906000526020600020905b81548152906001019060200180831161274f57829003601f168201915b505050505081565b6013818051602081018201805184825260208301602085012081835280955050505050506000915054906101000a900460ff1681565b6060600060028054905067ffffffffffffffff8111156127cd576127cc6132e3565b5b60405190808252806020026020018201604052801561280657816020015b6127f36131ff565b8152602001906001900390816127eb5790505b50905060005b600280549050811015612b2d5760006002828154811061282f5761282e6146f2565b5b906000526020600020018054612844906142b2565b80601f0160208091040260200160405190810160405280929190818152602001828054612870906142b2565b80156128bd5780601f10612892576101008083540402835291602001916128bd565b820191906000526020600020905b8154815290600101906020018083116128a057829003601f168201915b505050505090506000600f826040516128d6919061426c565b90815260200160405180910390208054905067ffffffffffffffff811115612901576129006132e3565b5b60405190808252806020026020018201604052801561293a57816020015b612927613219565b81526020019060019003908161291f5790505b50905060005b600f83604051612950919061426c565b908152602001604051809103902080549050811015612ae4576040518060400160405280600f85604051612984919061426c565b908152602001604051809103902083815481106129a4576129a36146f2565b5b9060005260206000200180546129b9906142b2565b80601f01602080910402602001604051908101604052809291908181526020018280546129e5906142b2565b8015612a325780601f10612a0757610100808354040283529160200191612a32565b820191906000526020600020905b815481529060010190602001808311612a1557829003601f168201915b50505050508152602001600b85604051612a4c919061426c565b9081526020016040518091039020600f86604051612a6a919061426c565b90815260200160405180910390208481548110612a8a57612a896146f2565b5b90600052602060002001604051612aa19190614cdd565b908152602001604051809103902054815250828281518110612ac657612ac56146f2565b5b60200260200101819052508080612adc90614721565b915050612940565b50604051806040016040528083815260200182815250848481518110612b0d57612b0c6146f2565b5b602002602001018190525050508080612b2590614721565b91505061280c565b508091505090565b6015828051602081018201805184825260208301602085012081835280955050505050506020528060005260406000206000915091509054906101000a900460ff1681565b600a818051602081018201805184825260208301602085012081835280955050505050506000915090505481565b600b8280516020810182018051848252602083016020850120818352809550505050505081805160208101820180518482526020830160208501208183528095505050505050600091509150505481565b6009818051602081018201805184825260208301602085012081835280955050505050506000915090505481565b6004818051602081018201805184825260208301602085012081835280955050505050506000915054906101000a900467ffffffffffffffff1681565b6060600060028054905067ffffffffffffffff811115612c8757612c866132e3565b5b604051908082528060200260200182016040528015612cc057816020015b612cad61318a565b815260200190600190039081612ca55790505b50905060005b600280549050811015613129576000600e60028381548110612ceb57612cea6146f2565b5b90600052602060002001604051612d029190614cdd565b908152602001604051809103902090508060405180610140016040529081600082018054612d2f906142b2565b80601f0160208091040260200160405190810160405280929190818152602001828054612d5b906142b2565b8015612da85780601f10612d7d57610100808354040283529160200191612da8565b820191906000526020600020905b815481529060010190602001808311612d8b57829003601f168201915b50505050508152602001600182018054612dc1906142b2565b80601f0160208091040260200160405190810160405280929190818152602001828054612ded906142b2565b8015612e3a5780601f10612e0f57610100808354040283529160200191612e3a565b820191906000526020600020905b815481529060010190602001808311612e1d57829003601f168201915b5050505050815260200160028201805480602002602001604051908101604052809291908181526020016000905b82821015612f14578382906000526020600020018054612e87906142b2565b80601f0160208091040260200160405190810160405280929190818152602001828054612eb3906142b2565b8015612f005780601f10612ed557610100808354040283529160200191612f00565b820191906000526020600020905b815481529060010190602001808311612ee357829003601f168201915b505050505081526020019060010190612e68565b5050505081526020016003820160009054906101000a900467ffffffffffffffff1667ffffffffffffffff1667ffffffffffffffff1681526020016004820154815260200160058201548152602001600682018054612f72906142b2565b80601f0160208091040260200160405190810160405280929190818152602001828054612f9e906142b2565b8015612feb5780601f10612fc057610100808354040283529160200191612feb565b820191906000526020600020905b815481529060010190602001808311612fce57829003601f168201915b505050505081526020016007820160009054906101000a900473ffffffffffffffffffffffffffffffffffffffff1673ffffffffffffffffffffffffffffffffffffffff1673ffffffffffffffffffffffffffffffffffffffff1681526020016007820160149054906101000a900460ff16151515158152602001600882018054613075906142b2565b80601f01602080910402602001604051908101604052809291908181526020018280546130a1906142b2565b80156130ee5780601f106130c3576101008083540402835291602001916130ee565b820191906000526020600020905b8154815290600101906020018083116130d157829003601f168201915b50505050508152505083838151811061310a576131096146f2565b5b602002602001018190525050808061312190614721565b915050612cc6565b508091505090565b828054828255906000526020600020908101928215613179579160200282015b828111156131785782518290816131689190614584565b5091602001919060010190613151565b5b5090506131869190613233565b5090565b604051806101400160405280606081526020016060815260200160608152602001600067ffffffffffffffff168152602001600081526020016000815260200160608152602001600073ffffffffffffffffffffffffffffffffffffffff168152602001600015158152602001606081525090565b604051806040016040528060608152602001606081525090565b604051806040016040528060608152602001600081525090565b5b80821115613253576000818161324a9190613257565b50600101613234565b5090565b508054613263906142b2565b6000825580601f106132755750613294565b601f0160209004906000526020600020908101906132939190613297565b5b50565b5b808211156132b0576000816000905550600101613298565b5090565b6000604051905090565b600080fd5b600080fd5b600080fd5b600080fd5b6000601f19601f8301169050919050565b7f4e487b7100000000000000000000000000000000000000000000000000000000600052604160045260246000fd5b61331b826132d2565b810181811067ffffffffffffffff8211171561333a576133396132e3565b5b80604052505050565b600061334d6132b4565b90506133598282613312565b919050565b600067ffffffffffffffff821115613379576133786132e3565b5b613382826132d2565b9050602081019050919050565b82818337600083830152505050565b60006133b16133ac8461335e565b613343565b9050828152602081018484840111156133cd576133cc6132cd565b5b6133d884828561338f565b509392505050565b600082601f8301126133f5576133f46132c8565b5b813561340584826020860161339e565b91505092915050565b600060208284031215613424576134236132be565b5b600082013567ffffffffffffffff811115613442576134416132c3565b5b61344e848285016133e0565b91505092915050565b600081519050919050565b600082825260208201905092915050565b6000819050602082019050919050565b600081519050919050565b600082825260208201905092915050565b60005b838110156134bd5780820151818401526020810190506134a2565b60008484015250505050565b60006134d482613483565b6134de818561348e565b93506134ee81856020860161349f565b6134f7816132d2565b840191505092915050565b600073ffffffffffffffffffffffffffffffffffffffff82169050919050565b600061352d82613502565b9050919050565b61353d81613522565b82525050565b6000819050919050565b61355681613543565b82525050565b6000608083016000830151848203600086015261357982826134c9565b915050602083015161358e6020860182613534565b50604083015184820360408601526135a682826134c9565b91505060608301516135bb606086018261354d565b508091505092915050565b60006135d2838361355c565b905092915050565b6000602082019050919050565b60006135f282613457565b6135fc8185613462565b93508360208202850161360e85613473565b8060005b8581101561364a578484038952815161362b85826135c6565b9450613636836135da565b925060208a01995050600181019050613612565b50829750879550505050505092915050565b6000602082019050818103600083015261367681846135e7565b905092915050565b600067ffffffffffffffff821115613699576136986132e3565b5b602082029050602081019050919050565b600080fd5b60006136c26136bd8461367e565b613343565b905080838252602082019050602084028301858111156136e5576136e46136aa565b5b835b8181101561372c57803567ffffffffffffffff81111561370a576137096132c8565b5b80860161371789826133e0565b855260208501945050506020810190506136e7565b5050509392505050565b600082601f83011261374b5761374a6132c8565b5b813561375b8482602086016136af565b91505092915050565b600067ffffffffffffffff82169050919050565b61378181613764565b811461378c57600080fd5b50565b60008135905061379e81613778565b92915050565b6137ad81613543565b81146137b857600080fd5b50565b6000813590506137ca816137a4565b92915050565b6137d981613522565b81146137e457600080fd5b50565b6000813590506137f6816137d0565b92915050565b600080600080600080600080610100898b03121561381d5761381c6132be565b5b600089013567ffffffffffffffff81111561383b5761383a6132c3565b5b6138478b828c016133e0565b985050602089013567ffffffffffffffff811115613868576138676132c3565b5b6138748b828c016133e0565b975050604089013567ffffffffffffffff811115613895576138946132c3565b5b6138a18b828c01613736565b96505060606138b28b828c0161378f565b95505060806138c38b828c016137bb565b94505060a06138d48b828c016137bb565b93505060c089013567ffffffffffffffff8111156138f5576138f46132c3565b5b6139018b828c016133e0565b92505060e06139128b828c016137e7565b9150509295985092959890939650565b600060208284031215613938576139376132be565b5b6000613946848285016137e7565b91505092915050565b60008115159050919050565b6139648161394f565b82525050565b600060208201905061397f600083018461395b565b92915050565b600081519050919050565b600082825260208201905092915050565b6000819050602082019050919050565b60006139bd83836134c9565b905092915050565b6000602082019050919050565b60006139dd82613985565b6139e78185613990565b9350836020820285016139f9856139a1565b8060005b85811015613a355784840389528151613a1685826139b1565b9450613a21836139c5565b925060208a019950506001810190506139fd565b50829750879550505050505092915050565b613a5081613764565b82525050565b613a5f8161394f565b82525050565b6000610140830160008301518482036000860152613a8382826134c9565b91505060208301518482036020860152613a9d82826134c9565b91505060408301518482036040860152613ab782826139d2565b9150506060830151613acc6060860182613a47565b506080830151613adf608086018261354d565b5060a0830151613af260a086018261354d565b5060c083015184820360c0860152613b0a82826134c9565b91505060e0830151613b1f60e0860182613534565b50610100830151613b34610100860182613a56565b50610120830151848203610120860152613b4e82826134c9565b9150508091505092915050565b60006020820190508181036000830152613b758184613a65565b905092915050565b60008060408385031215613b9457613b936132be565b5b600083013567ffffffffffffffff811115613bb257613bb16132c3565b5b613bbe858286016133e0565b925050602083013567ffffffffffffffff811115613bdf57613bde6132c3565b5b613beb858286016133e0565b9150509250929050565b600060208284031215613c0b57613c0a6132be565b5b6000613c19848285016137bb565b91505092915050565b600082825260208201905092915050565b6000613c3e82613483565b613c488185613c22565b9350613c5881856020860161349f565b613c61816132d2565b840191505092915050565b60006020820190508181036000830152613c868184613c33565b905092915050565b613c9781613543565b82525050565b6000602082019050613cb26000830184613c8e565b92915050565b600080600060608486031215613cd157613cd06132be565b5b600084013567ffffffffffffffff811115613cef57613cee6132c3565b5b613cfb868287016133e0565b9350506020613d0c868287016137e7565b925050604084013567ffffffffffffffff811115613d2d57613d2c6132c3565b5b613d39868287016133e0565b9150509250925092565b613d4c81613522565b82525050565b6000602082019050613d676000830184613d43565b92915050565b6000613d7882613502565b9050919050565b613d8881613d6d565b82525050565b6000602082019050613da36000830184613d7f565b92915050565b613db281613764565b82525050565b6000602082019050613dcd6000830184613da9565b92915050565b60008060408385031215613dea57613de96132be565b5b600083013567ffffffffffffffff811115613e0857613e076132c3565b5b613e14858286016133e0565b9250506020613e25858286016137e7565b9150509250929050565b600081519050919050565b600082825260208201905092915050565b6000819050602082019050919050565b600081519050919050565b600082825260208201905092915050565b6000819050602082019050919050565b60006040830160008301518482036000860152613ea482826134c9565b9150506020830151613eb9602086018261354d565b508091505092915050565b6000613ed08383613e87565b905092915050565b6000602082019050919050565b6000613ef082613e5b565b613efa8185613e66565b935083602082028501613f0c85613e77565b8060005b85811015613f485784840389528151613f298582613ec4565b9450613f3483613ed8565b925060208a01995050600181019050613f10565b50829750879550505050505092915050565b60006040830160008301518482036000860152613f7782826134c9565b91505060208301518482036020860152613f918282613ee5565b9150508091505092915050565b6000613faa8383613f5a565b905092915050565b6000602082019050919050565b6000613fca82613e2f565b613fd48185613e3a565b935083602082028501613fe685613e4b565b8060005b8581101561402257848403895281516140038582613f9e565b945061400e83613fb2565b925060208a01995050600181019050613fea565b50829750879550505050505092915050565b6000602082019050818103600083015261404e8184613fbf565b905092915050565b600081519050919050565b600082825260208201905092915050565b6000819050602082019050919050565b60006101408301600083015184820360008601526140a082826134c9565b915050602083015184820360208601526140ba82826134c9565b915050604083015184820360408601526140d482826139d2565b91505060608301516140e96060860182613a47565b5060808301516140fc608086018261354d565b5060a083015161410f60a086018261354d565b5060c083015184820360c086015261412782826134c9565b91505060e083015161413c60e0860182613534565b50610100830151614151610100860182613a56565b5061012083015184820361012086015261416b82826134c9565b9150508091505092915050565b60006141848383614082565b905092915050565b6000602082019050919050565b60006141a482614056565b6141ae8185614061565b9350836020820285016141c085614072565b8060005b858110156141fc57848403895281516141dd8582614178565b94506141e88361418c565b925060208a019950506001810190506141c4565b50829750879550505050505092915050565b600060208201905081810360008301526142288184614199565b905092915050565b600081905092915050565b600061424682613483565b6142508185614230565b935061426081856020860161349f565b80840191505092915050565b6000614278828461423b565b915081905092915050565b7f4e487b7100000000000000000000000000000000000000000000000000000000600052602260045260246000fd5b600060028204905060018216806142ca57607f821691505b6020821081036142dd576142dc614283565b5b50919050565b7f4e487b7100000000000000000000000000000000000000000000000000000000600052601160045260246000fd5b600061431d82613543565b915061432883613543565b92508282019050808211156143405761433f6142e3565b5b92915050565b7f556e61626c6520746f2063726561746520746f7069632c20636865636b20617260008201527f67756d656e74732e000000000000000000000000000000000000000000000000602082015250565b60006143a2602883613c22565b91506143ad82614346565b604082019050919050565b600060208201905081810360008301526143d181614395565b9050919050565b60008190508160005260206000209050919050565b60006020601f8301049050919050565b600082821b905092915050565b60006008830261443a7fffffffffffffffffffffffffffffffffffffffffffffffffffffffffffffffff826143fd565b61444486836143fd565b95508019841693508086168417925050509392505050565b6000819050919050565b600061448161447c61447784613543565b61445c565b613543565b9050919050565b6000819050919050565b61449b83614466565b6144af6144a782614488565b84845461440a565b825550505050565b600090565b6144c46144b7565b6144cf818484614492565b505050565b5b818110156144f3576144e86000826144bc565b6001810190506144d5565b5050565b601f82111561453857614509816143d8565b614512846143ed565b81016020851015614521578190505b61453561452d856143ed565b8301826144d4565b50505b505050565b600082821c905092915050565b600061455b6000198460080261453d565b1980831691505092915050565b6000614574838361454a565b9150826002028217905092915050565b61458d82613483565b67ffffffffffffffff8111156145a6576145a56132e3565b5b6145b082546142b2565b6145bb8282856144f7565b600060209050601f8311600181146145ee57600084156145dc578287015190505b6145e68582614568565b86555061464e565b601f1984166145fc866143d8565b60005b82811015614624578489015182556001820191506020850194506020810190506145ff565b86831015614641578489015161463d601f89168261454a565b8355505b6001600288020188555050505b505050505050565b600061466182613764565b915061466c83613764565b9250828201905067ffffffffffffffff81111561468c5761468b6142e3565b5b92915050565b7f4e487b7100000000000000000000000000000000000000000000000000000000600052601260045260246000fd5b60006146cc82613543565b91506146d783613543565b9250826146e7576146e6614692565b5b828204905092915050565b7f4e487b7100000000000000000000000000000000000000000000000000000000600052603260045260246000fd5b600061472c82613543565b91507fffffffffffffffffffffffffffffffffffffffffffffffffffffffffffffffff820361475e5761475d6142e3565b5b600182019050919050565b600060408201905081810360008301526147838185613c33565b905081810360208301526147978184613c33565b90509392505050565b7f556e61626c6520746f20706c61636520626574732c20636865636b206172677560008201527f6d656e74732e0000000000000000000000000000000000000000000000000000602082015250565b60006147fc602683613c22565b9150614807826147a0565b604082019050919050565b6000602082019050818103600083015261482b816147ef565b9050919050565b7f417474656d7074656420746f20706c61636520696e76616c6964206265742c2060008201527f636865636b20616d6f756e747320616e6420726573756c747300000000000000602082015250565b600061488e603983613c22565b915061489982614832565b604082019050919050565b600060208201905081810360008301526148bd81614881565b9050919050565b60006148cf82613543565b91506148da83613543565b92508282039050818111156148f2576148f16142e3565b5b92915050565b600081905092915050565b50565b60006149136000836148f8565b915061491e82614903565b600082019050919050565b600061493482614906565b9150819050919050565b7f4661696c656420746f207472616e7366657220666978656420636f6d6d69737360008201527f696f6e20746f20636f6e74726163742063726561746f722e0000000000000000602082015250565b600061499a603883613c22565b91506149a58261493e565b604082019050919050565b600060208201905081810360008301526149c98161498d565b9050919050565b7f496e76616c696420626574207374617465207768696c6520636c61696d696e6760008201527f207265776172642e000000000000000000000000000000000000000000000000602082015250565b6000614a2c602883613c22565b9150614a37826149d0565b604082019050919050565b60006020820190508181036000830152614a5b81614a1f565b9050919050565b6000614a6d82613543565b9150614a7883613543565b9250828202614a8681613543565b91508282048414831517614a9d57614a9c6142e3565b5b5092915050565b7f4661696c656420746f207472616e736665722072657761726420746f2075736560008201527f722e000000000000000000000000000000000000000000000000000000000000602082015250565b6000614b00602283613c22565b9150614b0b82614aa4565b604082019050919050565b60006020820190508181036000830152614b2f81614af3565b9050919050565b7f4661696c656420746f207472616e7366657220636f6d6d697373696f6e20746f60008201527f20626574206f776e65722e000000000000000000000000000000000000000000602082015250565b6000614b92602b83613c22565b9150614b9d82614b36565b604082019050919050565b60006020820190508181036000830152614bc181614b85565b9050919050565b7f6f6e6c79206f7261636c652063616e207265706f72742074686520726573756c60008201527f7400000000000000000000000000000000000000000000000000000000000000602082015250565b6000614c24602183613c22565b9150614c2f82614bc8565b604082019050919050565b60006020820190508181036000830152614c5381614c17565b9050919050565b60008154614c67816142b2565b614c718186614230565b94506001821660008114614c8c5760018114614ca157614cd4565b60ff1983168652811515820286019350614cd4565b614caa856143d8565b60005b83811015614ccc57815481890152600182019150602081019050614cad565b838801955050505b50505092915050565b6000614ce98284614c5a565b91508190509291505056fea264697066735822122080cf6135f699ce08123bd86a700da863076b3c3f215ce684c7f3da164cd0d81464736f6c63430008110033",
  "immutableReferences": {},
  "source": "// SPDX-License-Identifier: MIT\npragma solidity 0.8.17;\npragma experimental ABIEncoderV2;\n\ncontract PredictionMarket{\n\n    address payable contractCreator;\n    address public oracle;\n\n    constructor(address _oracle) payable {\n        contractCreator = payable(msg.sender);\n        oracle = _oracle;\n    }\n\n    // Prediction Market Contract Creator reward\n    // There's a 10 wei fixed commission transferred to the contract's creator for every placed bet\n    uint256 constant fixedCommission = 100;\n    // Minimum entry for all bets, topic owners cannot set it lower than this \n    uint256 constant minimumBet = fixedCommission + 1;\n\n    // topic mappings: \n    string[] public allTopics;\n    // Keep track of all createdTopics to prevent duplicates\n    mapping(string => bool) public createdTopics;\n\n    // There are two different dates associated with each created topic:\n    // 1. deadline when a user can no longer place new bets\n    mapping(string => uint64) public topicDeadlines;\n    // 2. deadline for oracle to submit the bet's final result - fixed at 30 days after topicDeadline\n    uint64 constant scheduleThreshold = 30 * 24 * 60 * 60; \n    mapping(string => uint64) public topicSchedules;\n\n\n    // Keep track of all owners to handle commission fees\n    mapping(string => address payable) public topicOwners; \n    mapping(string => address) public topicArbitrator; \n\n    // commision related:\n    mapping(string => uint256) public topicCommissions;\n    // Custom minimum entry for each topic, set by their owner\n    mapping(string => uint256) public topicMinimum;\n\n    // Total pooled per topic\n    mapping(string => uint256) public topicPools;\n\n    // For each topic, how much is the total pooled per side; resultPools[topicID][side]\n    mapping(string => mapping(string => uint256)) public resultPools;\n    // For each topic, how much each has each user put into that topic's pool; userPools[topicID][msg.sender]\n    mapping(string => mapping(address => uint256)) public userPools;\n    \n    // query price for oracle to submit bet results\n    uint256 public oraclePrice;\n\n    // Not enough to pay for it, the user should be informed and their funds returned\n    event LackingFunds(address indexed sender, uint256 funds);\n\n    /* Contains all the information that does not need to be saved as a state variable, \n    but which can prove useful to people taking a look at the bet in the frontend. */\n    event CreatedBet(string indexed _id, string description, string query);\n\n    struct topics {\n        string id;\n        string name;\n        string[] outcomes;\n        uint64 endDate;\n        uint256 minBet;\n        uint256 comm;\n        string desc;\n        address judge;\n        bool finished;\n        string result;\n    }\n\n    // list of all topics\n    // topics[] public topicList;\n    mapping(string => topics) topicList;\n\n    mapping(string => string[]) topicSides;\n\n    struct oneBet{\n        string topicid;\n        address user;\n        string side;\n        uint256 amt;\n    }\n\n    // bets by user\n    mapping(address => oneBet[]) allBets;\n    // bets by topic\n    mapping(string => oneBet[]) allBetsByTopic;\n\n    function createTopic(string memory topicID, string memory topic, string[] memory sides, uint64 deadline, uint256 minimum, uint256 commission, string memory description, address _arbitrator) public {\n\n        require(\n            bytes(topicID).length > 0\n            && sides.length > 1\n            && deadline > block.timestamp // topic can't be set in the past\n            // && deadline <= schedule // Users should only be able to place bets before it is actually executed\n            // && schedule < block.timestamp + scheduleThreshold\n            && commission <= 20 // maximum comission is 20%\n            && minimum >= minimumBet\n            && !createdTopics[topicID], // Can't have duplicate topics\n            \"Unable to create topic, check arguments.\"\n        );\n\n        // // The remaining balance should be enough to cover the cost of the smart oracle query\n        // uint256 balance = msg.value;\n\n        // // oraclePrice = provable_getPrice(\"URL\");\n        // oraclePrice = 0;\n\n        // if (oraclePrice > balance) {\n        //     emit LackingFunds(msg.sender, oraclePrice);\n        //     (bool success, ) = msg.sender.call.value(msg.value)(\"\");\n        //     require(success, \"Error when returning funds to bet owner.\");\n        //     return;\n        // }\n\n        // Create topic\n        allTopics.push(topicID);\n        createdTopics[topicID] = true;\n        topicOwners[topicID] = payable(msg.sender);\n        topicDeadlines[topicID] = deadline;\n        topicSchedules[topicID] = deadline + scheduleThreshold;\n        topicMinimum[topicID] = minimum;\n        topicCommissions[topicID] = 100/commission;\n        topicArbitrator[topicID]= _arbitrator;\n        topicSides[topicID] = sides;\n\n        topicList[topicID] = (topics(topicID, topic, sides, deadline, minimum, commission, description, _arbitrator, false, \"\"));\n\n        // initialize the sides, set pool for each side to 0\n        for (uint i = 0; i < sides.length; i++) {\n            resultPools[topicID][sides[i]] = 0;\n        }\n\n        emit CreatedBet(topicID, description, topic);\n    }\n\n    // The table in the frontend representing each topic's pool is populated according to these events.\n    event PlacedBets(address indexed user, string indexed _id, string id, string side);\n\n    // For each bet, track how much each user has put into each side\n    mapping(string => mapping(address => mapping(string => uint256))) public userBets;\n    \n    // only allow user to bet on 1 topic and 1 side each time\n    function placeBet(string memory topicID, string memory side) public payable {\n        require(\n            createdTopics[topicID]\n            && !finishedTopics[topicID] \n            && topicDeadlines[topicID] >= block.timestamp,\n        \"Unable to place bets, check arguments.\");\n\n        uint256 bet = msg.value;\n\n        require(\n        bytes(side).length > 0 \n        && msg.value >= topicMinimum[topicID],\n        \"Attempted to place invalid bet, check amounts and results\");\n\n        bet -= fixedCommission;\n\n        // Update all required state\n        resultPools[topicID][side] += bet;\n        userPools[topicID][msg.sender] += bet;\n        topicPools[topicID] += bet;\n        userBets[topicID][msg.sender][side] += bet;\n\n        allBets[msg.sender].push(oneBet(topicID, msg.sender, side, bet));\n        allBetsByTopic[topicID].push(oneBet(topicID, msg.sender, side, bet));\n\n        // Fixed commission transfer\n        (bool success, ) = contractCreator.call{value: fixedCommission}(\"\");\n        require(success, \"Failed to transfer fixed commission to contract creator.\");\n\n        emit PlacedBets(msg.sender, topicID, topicID, side);\n    }\n\n    // Keep track of when a bet ends and what its result was\n    mapping(string => bool) public finishedTopics;\n    mapping(string => string) public topicResults;\n\n    // Emit result\n    event ReportedResult(string indexed _id, string result);\n\n    // Function executed by oracle when the topic is scheduled to close\n    function reportResult(string memory topicID, string memory result) public {\n        require(msg.sender == topicArbitrator[topicID] && !finishedTopics[topicID], 'only oracle can report the result');\n        \n        topicResults[topicID] = result;\n        finishedTopics[topicID] = true;\n        \n        topicList[topicID].finished = true;\n        topicList[topicID].result = result;\n\n        emit ReportedResult(topicID, result);\n    }\n\n    // For each bet, track which users have already claimed their potential reward\n    mapping(string => mapping(address => bool)) public claimedBets;\n    \n    /* If the oracle service's scheduled callback was not executed after 5 days, \n    a user can reclaim his funds after the bet's execution threshold has passed. \n    Note that even if the callback execution is delayed,\n    oracle should've extracted the result at the originally scheduled time. */\n    uint64 constant topicThreshold = 5 * 24 * 60 * 60;\n    \n    // If the user wins the bet, let them know along with the reward amount.\n    event WonBet(address indexed winner, uint256 won);\n    \n    // If the user lost no funds are claimable.\n    event LostBet(address indexed loser);\n    \n    /* If no one wins the bet the funds can be refunded to the user, \n    after the bet creator's takes their cut. */\n    event UnwonBet(address indexed refunded);\n    \n    function claimBet(string memory topicID) public {\n        bool topicExpired = topicSchedules[topicID] + topicThreshold < block.timestamp;\n        \n        // If the bet has not finished but its threshold has been reached, let the user get back their funds\n        require(\n            (finishedTopics[topicID] || topicExpired) \n            && !claimedBets[topicID][msg.sender] \n            && userPools[topicID][msg.sender] != 0,\n        \"Invalid bet state while claiming reward.\");\n        \n        claimedBets[topicID][msg.sender] = true;\n        \n        string memory result = topicResults[topicID];\n        uint256 userBet = userBets[topicID][msg.sender][result];\n        uint256 winnerPool = resultPools[topicID][result];\n        uint256 reward;\n        \n        if (winnerPool == 0) {\n            // If no one won then all bets are refunded\n            reward = userPools[topicID][msg.sender];\n            emit UnwonBet(msg.sender);\n        } else if (userBet != 0) {\n            // User gets their corresponding fraction of the loser's pool, along with their original bet\n            uint256 loserPool = topicPools[topicID] - winnerPool;\n            reward = userBet + loserPool * userBet / winnerPool;\n            emit WonBet(msg.sender, reward);\n        } else {\n            // User lost\n            emit LostBet(msg.sender);\n            return;\n        }\n        \n        // Bet owner gets their commission\n        uint256 ownerFee = reward / topicCommissions[topicID];\n        reward -= ownerFee;\n        (bool success, ) = msg.sender.call{value:reward}(\"\");\n        require(success, \"Failed to transfer reward to user.\");\n        (success, ) = topicOwners[topicID].call{value:ownerFee}(\"\");\n        require(success, \"Failed to transfer commission to bet owner.\");\n    }\n\n    // return all topics\n    function getTopics() public view returns (topics[] memory){\n        topics[] memory id = new topics[](allTopics.length);\n        for (uint i = 0; i < allTopics.length; i++) {\n          topics storage member = topicList[allTopics[i]];\n          id[i] = member;\n        }\n      return id;\n    }\n\n    // return one topic \n    function getTopic(string memory id) public view returns (topics memory){\n        return topicList[id];\n    }\n\n    // return all bets a user has made\n    // should address be param or message sender?\n    function getUserBets(address _user) public view returns (oneBet[] memory){\n        return allBets[_user];\n    }\n\n    // return bets by topic\n    function getBetsByTopic(string memory topicID) public view returns (oneBet[] memory){\n        return allBetsByTopic[topicID];\n    }\n\n    struct indivPool{\n        string side;\n        uint256 amount;\n    }\n    struct pool{\n        string id;\n        indivPool[] pools;\n    }\n\n    // get pool for a topic\n    function getTopicPool() public view returns (pool[] memory){\n        pool[] memory pools = new pool[](allTopics.length);\n        \n\n        for (uint i = 0; i < allTopics.length; i++) {\n            string memory topicid = allTopics[i];\n            indivPool[] memory ip = new indivPool[](topicSides[topicid].length);\n\n            for (uint j = 0; j < topicSides[topicid].length; j++) {\n                ip[j] = indivPool(topicSides[topicid][j], resultPools[topicid][topicSides[topicid][j]]);\n            }\n\n            pools[i] = pool(topicid, ip);\n        }\n\n        return pools;\n    }\n\n    /*\n    // function to check if user has claimed the bet for a topic already\n\n    // function to check if user is owner of a topic\n    function isOwner(address person) public view returns (bool result){\n        topicOwners\n    }\n    */\n}\n",
  "sourcePath": "C:\\Users\\graez\\CZ4153-lilibet\\contracts\\PredictionMarket.sol",
  "compiler": {
    "name": "solc",
    "version": "0.8.17+commit.8df45f5f.Emscripten.clang"
  },
  "schemaVersion": "3.4.10",
  "updatedAt": "2022-10-15T06:54:30.972Z",
  "networkType": "ethereum",
  "devdoc": {
    "kind": "dev",
    "methods": {},
    "version": 1
  },
  "userdoc": {
    "kind": "user",
    "methods": {},
    "version": 1
  }
}